:400000000020002011000000FF070000FF07000008B5044B1A6803F53F5302331A6000F0EFFB00BFFA46004010B5054C237833B9044B13B10448AFF300800123237010BDE1
:4000400038E1FF1F00000000104B000008B5064B1BB106480649AFF300800648036813B1054B03B1984708BD00000000104B00003CE1FF1F08E1FF1F0000000010B5074B7C
:400080001A781C4642B100F057F8054B1A780AB1013A1A700023237010BD00BF54E1FF1F69E1FF1F38B51E4B1A780AB901221A701B78012B0BD11A4B02221A700023194A2F
:4000C000002199540133C02BF9D1174A138002F0DBF820B3154C0120657802F0E1F8854216D0012002F0DCF8607088B1104B1B7803F00F03012B0BD10B4CC022022009490E
:40010000228002F071F902200021228802F06CF9BDE8384004200749012202F065B938BD55E1FF1FD8E1FF1FD6E1FF1F0CE1FF1F1E60004059E1FF1F10B5184B1B7863B3D2
:4001400002F090F8164C08B1002301E06378013363706378052B20D902F090F8D8B1114B1A781AB901221A7000F044FA02F0AEFD01F096FC0020402101F088FE01F080FDDB
:4001800002F012FE02F07AF828B1074B012200201A7002F0A1FF0023637010BDBAE1FF1F55E1FF1F11E1FF1FC8EAFF1F38B50D4B1C78B4B904F038FA142001F0E9FA04F037
:4001C000FBFA054604F040FA40F26A539D422046CCBF0121214602F00DF8034B01221A709A7038BDBAE1FF1F55E1FF1F08B562B600F00CFE054800F017FE01F0EBF9BDE8B0
:4002000008400320014601F0FFBA00BF7D07000008B504F0C5F803F029FF03F0DBFE03F08DFE04F071F803F0ADFB03F0F7FB03F03DFD03F0CDFF03F009FB03F09BFCBDE85D
:40024000084003F0DFBD08B504F080F803F0E4FE03F096FE03F048FE04F02CF803F068FB03F0B2FB03F0F8FC03F05AFF03F096FA03F028FCBDE8084003F06CBD0120F8B537
:4002800001464FF4804241F6FF7303F0E7F9064600F0CEFF044600F0CBFF05462A46114F20460121002300F0F7FF042322462846012100F0F1FFBAB2204646F26F4100F014
:4002C000FDFF7A1C284646F26F4192B200F0F6FF2146304600F070FF30460121BDE8F84000F004BFA6E2FF1FF8B5002001F028F9304801F069FA642001F05EFA01F066F81C
:40030000002003F0C1FEFFF79EFF2B4B00241C7000F072FC294B012502201D7001F05EF84FF4005213460220294600F0A9FD244B187000F07DFF234F38550134082CF8D19B
:40034000214E0024B6B2651C05F00703FA5C60210623385D00F0A0FF1C49324689B2385D00F0ACFF6036FFF789FF082DB6B201D02C46E8E74FF4005213460021012000F0B3
:40038000E3FC134B134C187000F052FF207000F04FFF6070104800F091FD104800F0C2FC002003F071FE00F05FFDBDE8F840FFF74ABF00BF00366E012142004098E2FF1F15
:4003C000B1E2FF1F9CE2FF1F35E7FF1FA6E2FF1FA4E2FF1FB2E2FF1F45070000350700002DE9F84F584C2378012B40F0AA80637823B100236380A3806370A371534D2878D1
:4004000000F08AFE524BA8461B78012B0BD1A2794D4B092A03D100229A71B42604E001329A71B02600E0C0264A4B474F1E8000F05DFDA388484D3344A38000F051FDB4F848
:400440000290DFF820B109EB0603B3F5407FDFF818A12AD9C9F540791FFA89F9C9EB060649466A7828782323B6B200F015FF072331466878FE2200F00FFF79881FFA8BFB77
:400480001FFA8AFA59445246287889B200F016FF0AEB09025946687892B200F00FFF98F80000297800F088FE19E03146FE220723287800F0F1FE7B881FFA8AF20BEB030157
:4004C00089B2287800F0FAFE98F80000297800F073FE7B881E44B6B2B6F5407F01D07E8001E000237B80012198F8000000F0FEFD98F80000012100F06BFEE279124B02BB85
:400500009A88B2F5C07F1CD3144D012428780421DC7100F05DFE2146287800F0E7FD104B2878197800F048FE2146287800F0DEFDFFF76EFE00F08CFC2046BDE8F84F03F053
:40054000A3BDBDE8F88F00BF5CE1FF1FA4E2FF1F98E2FF1FD6E1FF1FB2E2FF1FB1E2FF1F9CE2FF1F35E7FF1FD8E1FF1F10B50D4CE379B3B10C4B0421187800F029FE01238F
:4005800063702372094B00204FF440726081E0711A8003F079FD00F067FCBDE81040FFF752BE10BD5CE1FF1FB1E2FF1F0EE1FF1F10B50446FFF7DAFF002000F0C1FF094802
:4005C00001F002F9084B20461C7000F027FB012000F0B6FF054801F0F7F8054B01221A7010BD00BF00366E0198E2FF1F40A5AE025CE1FF1F08B5002000F0A2FF094801F05F
:40060000E3F8642001F0D8F800F0E0FE002003F03BFDFFF718FE044B00221A70034BFF229A7008BD00366E015CE1FF1F0EE1FF1F38B5194B1B7803F0FF055BBB174B1A784A
:4006400042B31978164A01EB410111448C78197801EB4101114448781978000201EB4101525C40EA044010431D704AF64443C31A584258410B4B0C4C9A78824208D0DD78F4
:40068000987015B10123237302E0FFF791FF25730023637338BD00BFCAEAFF1FB0EAFF1F95EAFF1F0EE1FF1F5CE1FF1F38B5114CE3786BB9104B5B7853B9104B5A7B0AB980
:4006C00064225A735B7B012B02D1E370FFF792FFE278084B012A0BD1074A527842B1074C0025227BDD701AB19878FFF761FF257338BD00BF0EE1FF1FB6EAFF1F5CE1FF1F31
:40070000094B1A7A194672B100239AB2BF2A02D8064A00209854064800221A540133B3F5407FF2D10A7270475CE1FF1FD8E1FF1F35E7FF1F024B022000211A8801F054BEB1
:40074000D6E1FF1F0A4B0B4918880B4B0A8810B51C88821AA21A92B2B2F5407F1A80088003D3BDE81040FFF701BF60321A8010BD60E1FF1F66E1FF1F0EE1FF1F024B01222B
:400780001B78024B1A7070479043004054E1FF1F08B503F01DFD03F059F803F0EBF903F031FB052000F0F4FF03F020FD03F05CF803F0EEF903F034FB03F0B2FC02F0EEFFD3
:4007C00003F080F9BDE8084003F0C4BA08B5FFF7DFFFFFF789FDFFF709FD01F04FFD28B1FFF760FCFFF762FFFFF722FFFFF7DEFCFFF744FC01F028F8FFF782FFEDE7FEE709
:4008000008B51249124B4A1C1AD053F8106C53F80C0C53F8085C0022AA4200EB020403D0B45884500432F7E753F8040C0022824203D00025A5500432F9E710330139E2E7CA
:4008400004F038F9FFF7C2FFFEE700BF00000000704E000008B5124A124B1A609A6842F400729A600023032B98BF0F4A4FEA830094BF52F823100D490D4A0133302B11507C
:40088000F1D10C4B19780C4B19700C4B1A6000F035F800F015FC0A4B00221A6008BD00BF0004FA050CED00E000000000FF07000000E0FF1FBC76004004E1FF1F08ED00E020
:4008C00000E1FF1F012807D8044A52F8203010441978027A0A431A70704700BF144B0000012808D8044A52F820301044017A1A7822EA01021A707047144B0000F8B572B626
:400900000024994B0021234418689A88063404F0F7F82A2CF5D19549002051F8042FD3B222F0FF05420002F1904290321C4602323BB112F8026C12F8017C013BAF55DBB220
:40094000F5E78B4A20449142E7D18A4A0A211170032640F2031122F83B6C22F8391C40F2032122F8371C40F2033122F8351C824A824D1360824A834C1168834AEE341160A2
:40098000824A116802F1784202F5DC421160804A1168804A1160804A1168804A116002F55942DB32117841F002011170117C41F0020111742A7842F040022A70784A1178A5
:4009C00041F010011170774A03CA44F8EE0C44F8EA1C03CA44F82E0C44F82A1C07CA03C42280714A03CA44F8C21C704944F8C60C0878A1F2A22140F0080081F8A20201207A
:400A000081F880072F20088069481C210724017046800171C4800172664950200B80887011208B8088711168634A19261160062182F80012522102F5807211705F4A1C461E
:400A400011785F4AC9B2117040F20F71A2F27F42118041F2512122F8021C5A4B4FF4F0701B7803F0010343EA440400F015FB013E04F0030477D0032CEFD1534A4FF4807349
:400A80001380524907231370482000230B708870137053714E4B042602221A709E7293F8A123802042F01F0283F8A12393F8A023602742F0010283F8A0232B78C12243F013
:400AC00080032B70434B1A70434B444A1B78DBB203F00701F34011705370414B44F281221C70A3F82F200D2283F85F27202283F8F328102283F8FB083A4C83F80329082129
:400B0000012283F80B1983F80D1983F816294023237027722274A67484F8983084F89B3084F8A0100C443049A4F5B4540B7048710B724A730B742D4B1A702D4AA3F52373A4
:400B4000C3F8CA222B4AC3F8CE22902283F8E2224FF48272A3F8E42244221A7095E80F0007C42380F8BDFEE71E4B0000FCFFFF478C0000488358004000760040A0430040AF
:400B80000C08004802510040087600401008004814080048187600401808004828760040C2430040E40700480008004822430040824000408C400040004100400F0100495B
:400BC000A14600402542004004400040064000400140004000480040CF0100496E5800400D510040285A0040CB5A0040025B00400702040203020802074B09221A70152237
:400C00001A7476225A705D229A70352203F8022C0F229A73704700BF2A640040072838B5044636D80123834013F09D0F19D113F0620F2ED0364B21221A8003F50B53C0223D
:400C4000363334491A70344854230B70992580210170457001743149DC20087001F8FE2C15E02B4B24221A8003F50B532949402236331A70C02060230B70C8738D200874E1
:400C80000020C877DC2081F8200001F8DE2C244A1370002000F0B6FCFA2000F08DFD072C34D8DFE804F02222100A04161C291720002100F021F92F2023E00B20002100F04F
:400CC0001BF917201DE00320012100F015F9082010E00F20002100F00FF91F2011E00720002100F009F90F200BE00220012100F003F90520012105E00120002100F0FCF803
:400D000003200021BDE8384000F05EB938BD00BF224200401965004028650040396500403C640040064A1023136002F68832126880211065034A1170A2F541721360704730
:400D400080E100E004E400E0F7B584468E460C4C02200025614617461E467246034600950195207000F044FA39463246207800F00BFA2078032100F0F5F9207803B0F0BD19
:400D800012E1FF1F38B50B4D0B4C2B7813F0020F06D100F08BF92B7843F002032B7001E000F084F9237843F004032370BDE8384000F080B9004300408243004008B500F0DD
:400DC00075F9044B1A7842F008021A70BDE8084000F070B982430040064B1B785B0707D4054B00F00F001A7802F0F00210431870704700BF824300408143004008B50320B3
:400E0000FFF7EAFFBDE80840FFF7D8BF10B5054C23781BB9FFF7F2FF01232370BDE81040FFF7B0BF74E1FF1F074A2023136002F688321268E0215065044A11706FF441719C
:400E40000A441360704700BF80E100E005E400E0044B1A7842F001021A701A7C42F001021A747047A2430040044B1A7802F0FE021A701A7C02F0FE021A747047A24300400D
:400E8000F7B5844600248E460B4D614617461E46724623460094019420462C7000F0A8F939463246287800F06FF92878214600F059F9287803B0F0BD13E1FF1F064A012369
:400EC000136002F68832126880211064034A1170A2F540721360704780E100E000E400E0014B01221A60704700E100E0014B01221A60704780E100E0F0B52C4B2C4D1F788A
:400F00002C8807F00707A4B2A0424DD0294A1678F6B267B934B150B91A7842F040021A702880F0BD28801A7802F0BF023BE006F0020303F0FF060BB31F4F204D00234FF011
:400F4000020C2B7087F800C03B711D4B1F787E3307F07F0703F87E7C1B781F0700D568B9184B1C8007232B702B7813F00103FBD1147804F0FD041470104C237012780D4BFC
:400F800094070CD5A3F56873002918800CBF01220322013B1A701A78D207FCD4F0BD044A10801A7832431A70F0BD00BF8640004084400040A24300401040004001400040A5
:400FC0000840004002400040F0B52C4B2C4D1F782C8807F00707A4B2A0424DD0294A1678F6B267B934B150B91A7842F040021A702880F0BD28801A7802F0BF023BE006F013
:40100000040303F0FF060BB31F4F204D00234FF0040C2B7087F800C03B711D4B1F78823307F07F0703F8827C1B781F0700D568B9184B1C8007232B702B7813F00103FBD10D
:40104000147804F0FB041470104C237012780D4B54070CD5A3F56873002918800CBF01220322013B1A701A78D207FCD4F0BD044A10801A7832431A70F0BD00BF8A40004086
:4010800088400040A2430040104000400140004008400040024000400230800800F0058000BF013800467FF4FCAF7047EFF3108072B6704780F31088704700BFAFF30080B2
:4010C000074A7F23802113705170064A013BDBB202F80839002BF9D1034A1370704700BF14E1FF1FF87B00400078004017280FD8084B0001C25C11B142F0200201E002F08A
:40110000DF02C254C25C42F00102C25400207047012070471070004017280BD8064B0001C25C02F0FE02C254C25C02F0DF02C25400207047012070471070004017280DD8AC
:40114000074A000113460344197941F004011971835C43F00103835400207047012070471070004017280BD8064B0001C25C01F0070102F0F10242EA4101C1540020704705
:40118000012070471070004041F6FF73994208BF4FF400519A4208BF4FF40052172808D8C00000F1804000F5EC408180C28000207047012070470000172804D8034B000173
:4011C0001954002070470120704700BF19700040172808D8054B00011A5C01F0070111431954002070470120704700BF14700040172810B51AD8C40001F07F0141EAC2124F
:4012000004F1804404F5EC44D2B222709DF8082003F00F0343EA0213DBB263709DF80C30002003F00F03A370E07010BD012010BD10B5FFF73BFF0A4B5A78182A0AD91C7869
:40124000013A5A70E20002F1804202F5F04212781A7000E0FF24FFF72DFF204610BD00BF14E1FF1F030610B5044611D4FFF71EFF084BE200197802F1804202F5F042117036
:401280005A781C7001325A70BDE81040FFF712BF10BD00BF14E1FF1F30B504060CD411F4704509D1C40004F1804404F5F0442180A270E370284630BD012030BD030608D417
:4012C000C00000F1804000F5F0408180C28000207047012070470000204B1A78510703D11F4A1278D20731D41B7803F00703012B05D11C4B1B7813F0010327D100E00023DE
:4013000008282AD8DFE800F00507090B0D0F11291600154B0AE0154B08E0154B06E0154B04E0154B02E0154B00E0154B1A78154BD2B209E0144A1178124AC9B2117063B188
:40134000124B1A7842F002021A7070470F4B1A7802F0FD021A700123D2E7704793430040A5430040B543004008010049090100490A0100490B010049890100490C0100491F
:401380000D010049A14600400F010049096000400D4B1A7802F0F0021A70002203F8042C13F80C2C42F0800203F80C2CC2B2000A03F8122C03F8110C13F8132C42F0010290
:4013C00003F8132C704700BF14400040024B1A7802F0FE021A70704720420040022806D84FF040231A7802F0FC02104318707047044B1A7802F0EF021A701A7C02F0EF0270
:401400001A747047A0430040012808D014D3022817D14FF040231A7802F0BF0204E04FF040231A7842F040021A7093F8002242F0200283F800227047024B1A7802F0DF0246
:401440001A70704700420040024B1A7842F010021A70704700420040024B1A7802F0EF021A7070470042004070B5344B08281C7814BF0646032604F00704022C054605D041
:40148000032C07D0002C08BF022400E00324A64204D300E000242846FFF71EFF082D3ED8DFE805F0050C13181F262D3D3500234B1A7802F0B80242F0030226E01F4B1A78B6
:4014C00002F0B80242F001021FE01C4B1A7802F0B8021AE0194B1A7802F0B80242F0020213E0164B1A7802F0B80242F004020CE0124B1A7802F0B80242F0050205E00F4BCC
:401500001A7802F0B80242F006021A700CE00B4B1A7802F0B80242F042021A7001E0082D02D1FFF791FF01E0FFF796FFA64204D22846BDE87040FFF7CFBE70BD004200409B
:40154000044B00F003001A7802F0FC0202431A70704700BF05400040014B1870704700BF04400040F8B50446FFF7A0FD164B07461A78013B1B78D2B2DBB214B153EA02233E
:401580001AD1124B124D1E78F6B2062E9CBF07221A703CB92B78204643F040032B70FFF7F7FE06E02046FFF7F3FE2B7803F0BF032B70064B1E7002E02046FFF7E9FE384662
:4015C000BDE8F840FFF776BD074000400440004008400040024B1A7842F002021A70704700430040024B1A7842F004021A70704700430040024B1A7802F0FB021A7070478F
:40160000004300402DE9F041194B1A7842F001021A7040B3174C182093F8E08093F86071267800F0BDFC08F004085FFA88F8FFB2F6B22546012000F09DFC10F0010008D1EA
:401640000D4B1A78D207F5D51B78DB07F2D5044600E01024B8F1000F01D1FFF7CBFF074B1F702E7000E004462046BDE8F08100BF20420040824300402542004080430040C4
:40168000F8B5134B1A78103342F0100203F8102C1A7842F010021A70C0B10E4C13F8B07C13F8306C257807F004070020FFB2F6B2EDB200F075FC012000F05CFCC307FAD5AC
:4016C0000FB9FFF797FF044B1E702570F8BD00BFA043004082430040804300402DE9F743244B8DF806001A781D4642F001021A70002839D0204C182093F8F09093F870812B
:40170000277800F04DFC5FFA89F95FFA88F8FFB226469DF80630E3B12B7804238DF807309DF8073003F0FF044BB1012000F022FCC207FAD59DF80730013BDBB2EEE72B7889
:401740001B0607D59DF80630013BDBB28DF80630DFE7102419F0040F01D1FFF74BFF074B83F80080377000E00446204603B0BDE8F08300BF1042004082430040804300404D
:40178000024B1A7802F0FE021A7070471042004010B50446B4F5004F064B05D91868FFF77BFCA4F50044F5E758686043BDE81040FFF772BC1CE1FF1F024B1B7A5843FFF79F
:4017C0006BBC00BF1CE1FF1F0C4B08B1D86001E00B4ADA60D9680B4801F5742202F23F22B2FBF0F21A724FF47A7001F2E732B2FBF0F25A60D2031A60704700BF1CE1FF1F3E
:4018000040A5AE0240420F000E4B00F003001A78490102F0FC0202431A701A7801F0600142F080021A701A7802F07F021A701A7802F09F020A431A701A7842F010021A708E
:40184000704700BF83430040014B01221A70704784430040054B00F01F001B6800F1100253F8220043F82210704700BF08ED00E000F01F0000F16040490100F56440C9B22D
:40188000017070472DE9F04FDFF844B1484B9BF8002048495A720A78474F9A723A78DFF834A1DA728A78DFF830911A73FA78DFF82C815A738A79DFF828C19A73FA793F4EB4
:4018C000DA738A7B3E4D1A74FA7B3E4C5A744A7C3D489A747A7C0337DA740A7D1A75BA7C5A750A7E9A75BA7EDA7591F820201A767A7F5A7691F822209A769AF80020DA76A1
:4019000099F800201A7798F800205A779CF800209A7797F82C20DA77327883F820202A7883F82120227883F82220027883F8232091F8382083F8242000228BF8002007F83D
:40194000042C07F8032C023F3A70BA703A71BA713A73BA73FA733A74BA743A75BA753A77BA77FA7787F820208AF8002089F8002088F800208CF8002087F82E2032702A707B
:401980002270027081F83820104A117801F0080101F0FF0041B1012183F82E10137803F0F7031370BDE8F08F83F82E00BDE8F08F76E1FF1F025A0040035A0040335A004051
:4019C000345A0040365A0040385A004022430040005A0040265A0040285A00402A5A0040305A00402B4B2C4A597A183202F8181C997A02F8161CD97A02F8151C197B02F8A6
:401A0000141C597B02F8121C997B02F8101CD97B02F80E1C197C02F8081C597C02F8061C997C02F8051CD97C02F8041C197D02F8021C597D1170997D9170D97D1172197EF9
:401A40009172597ED172997E1173D97E9173197F1174597F9174997F1176D97F917693F82010D17693F82110117793F82210917793F8231082F8201093F8241082F822107D
:401A800093F82E30012B04D1044B1A7842F008021A70704776E1FF1F005A00402243004010B56A4A6A4C1378372003F00F0384F83030684B197884F83110117801F0F001CC
:401AC00011701A7800221A7003F25E431B7803F0C00384F8353002F08DFF5F4B1A7802F0070284F833201A7802F0400284F834201B7803F0100303F0FF021BB1012384F854
:401B0000393001E084F83920544B1B7803F00303012B84F8323010D14FF040231B7803F00303012B06D003D3022B06D1032002E0002000E00220FFF703FD494B1B7813F01F
:401B4000010305D0012384F83E30FFF73FFC01E084F83E300420FFF787FC424B1B7803F0100303F0FF001BB1012384F8363006E084F83600FFF784FD0620FFF71DFE364B34
:401B80001B7803F0200303F0FF026BB14FF040231B78002013F0400F14BF0123022384F83730FFF731FC01E084F837204FF040231A7802F0300284F838201AB11A7802F074
:401BC000CF021A70244B1B78DB0601D5FFF744FC254B1B78DBB284F83A3013B10020FFF7BBFC94F8323013B10020FFF7A9FC1F4B1F4A1B781B02A38712781343A38713B1AC
:401C00000020FFF7AFFC144B1A4A1B7803F00703D05C02F0EFFE184B1B7813F0010305D0012384F83F30FFF7ABFD01E084F83F30124B1B7803F0040303F0FF021BB101236C
:401C400084F8403010BD84F8402010BDA143004076E1FF1FA2430040004200400540004020420040A0430040044000400740004006400040484B0000104200400B40004037
:401C8000F7B5784E784C334653F8070F9A889B7900908DF8063094F84030ADF80420012B0DD1724B4B201B7803F00703F35C5843FFF7F2F96E4B1A7842F004021A7094F8A8
:401CC0003F30012B08D0372002F094FE94F83230023B012B25D817E00020FFF7FFFC654B05251A781F46614BC8201B7803F00703F35C5843FFF7D0F93B781B06E3D5013DD2
:401D0000ADB2002DEFD1DEE75B4B574A1B7892F83A00834201D0FFF71FFC94F83200FFF70FFC94F8343058060CD54F4B02AA93F83330134413F8083C032B03D10820FFF765
:401D400093FB13E094F8333002AA134413F8080CFFF78AFB94F8343013F0400F434B1A7814BF42F0400202F0BF021A7094F83630012B08D1414B1B7803F0100303F0FF0062
:401D80000BB9FFF77DFC94F83700FFF73DFB94F83930012B01D1FFF757FB4FF04023197894F8382001F030018A4204D0197801F0CF010A431A7094F83E30012B04D094F83C
:401DC0003230012B26D818E00020FFF71BFC5020FFF7F2FC2A4BAB251A781E460120FFF7EBFC3378D90703D5254B1B78DA07E6D4013DADB2002DF1D1E1E71F4B1A4A1B78EF
:401E000092F83A00834201D0FFF7A6FB94F83200FFF796FB94F836302BB9184B1B78DB0601D5FFF7E5FA174BA08F1A78013B1B7843EA0223984201D0FFF794FB124B94F8B7
:401E400035101A78A3F25F4302F03F020A4383F85F2494F830201A7094F831205A7003B0F0BD00BF484B000076E1FF1F004200400B4000401042004004400040A04300405C
:401E80002542004007400040004800402DE9F0470E46FFF70BF9304D07462B7803F0080303F0FF08002B52D12C4B2D4C1A7802F01F021A70FFF7E6FC2A482B4903782B4A51
:401EC0002371C6F3071303700B788246637106F00F030B701378C6F30036A371244B16701E78894616F0070F164603D1012384F82D300AE084F82D801A7802F0070284F819
:401F00002C201A7802F0F8021A702B7803F0F80343F003032B702B7800BF00BF30BF94F82D30012B08D0124B0D491A7891F82C1002F0F8020A431A70FFF754FD23793846BD
:401F40008AF80030637989F80030A3793370BDE8F047FFF7AFB800BF934300408346004076E1FF1F98430040994300409A4300400042004038B50546FFF798F8064B1C785E
:401F8000064B93F84220144324EA050583F84250FFF790F8204638BD9043004076E1FF1F38B5114C0546237803F0FD032370FFF719FB237813F0010F0C4B0CD01A78AA42E7
:401FC00011D0227802F0FE0222701D70237843F00103237038BD1978A94218BF1D70237843F00103237038BD8243004080430040F8B5FFF75BF8414B01261A78022542F025
:4020000001021A701A7C3E4C42F001021A7403F5E75318331E7003F8945C13F88D2C074602F07F0203F88D2C0020FFF7C5FB2378304603F0F9032370324B1A7802F0DF02B7
:402040001A70237833432370FFF7B6FB2820FFF7B3FB2D4B28461A7802F07F021A701A7802F0BF021A7023782B432370FFF7A4FB2378264A43F004032370002313705370E9
:402080002349FF225A5423495A540133092BF7D13846FFF70FF820491720FFF7DBFB17200721FFF7E5FB1D491520FFF7D3FB15200721FFF7DDFB1A491820FFF7CBFB182066
:4020C0000721FFF7D5FB17490220FFF7C3FB02200721FFF7CDFB14490320FFF7BBFB03200721FFF7C5FB11491620FFF7B3FBBDE8F84016200021FFF7BBBB00BFA5430040CC
:402100009443004012600040F8510040846000408AEAFF1F81EAFF1F672B0000652B0000A9290000ED2A0000292B00006D2B000038B5214B4FF400021A604FF080721A6054
:4021400004221A6008221A601C4A0C46222111704FF480021A601A4B50221A700546194801F0AEFA01F09EFA01F0C4FA164B00221A70164B0CB1032200E002221A70144B45
:40218000144A1D7000231370134A01201370134A1370134A1370134A1370134A1370134B03221A70802203F8202CFEF775FF104B04221A7038BD00BF00E100E09E600040F0
:4021C0009C600040192C0000CAEAFF1F09600040C4EAFF1FC9EAFF1FC5EAFF1FC8EAFF1FB4EAFF1FC7EAFF1F42EBFF1F286000401260004070B5074C064623780D461BB9D3
:40220000FFF7F6FE0123237030462946BDE87040FFF78EBFBAE1FF1F0A4A002313700A4A13700A4A13700A4A13700A4A13700A4A13700A4A13700A4B03221A70802203F822
:40224000202C7047CAEAFF1FC9EAFF1FC5EAFF1FC8EAFF1FB4EAFF1FC7EAFF1F42EBFF1F28600040044B1878C0B200F0FB021A70C0F38000704700BF09600040014B187887
:40228000704700BFC9EAFF1F044B1A7802F0FF001AB118780022C0B21A707047C8EAFF1F014B185C704700BFB6EAFF1F164B0C2210B502FB00331B79090C13F0800F19BF7A
:4022C0008AB24FF480438BB24FF480420228044608D006280CD12020012101F0A1F90B4B987105E02020012101F07CF9074B9870631E072B07D8FEF79BFF054B1855FEF7DD
:4023000097FF044B185510BDD4EAFF1F5CEAFF1F8AEAFF1F81EAFF1F092870B5064634BF044601240D4D2B5DFF2B08D00C4B185DFEF7F2FE285DFEF795FFFF232B55094D84
:40234000285DFF2803D0FEF78DFFFF232B550134E4B2082C01D8092EE4D070BD8AEAFF1F5CEAFF1F81EAFF1F10B5194B194C1A5CD20002F1804202F5F042A1B9164931F8B6
:402380001010203989B211801A5C54F82010D20002F18042203102F5F04289B291800F4A012111540CE0022111801A5C54F82010D20002F180421E3102F5F04289B29180DC
:4023C000074A1B5C115C074A0901535410BD00BF8AEAFF1F38EAFF1F66EAFF1F78EAFF1F5CEAFF1F197000402DE9F84F471EFFB2072F04468846154600F29B804E4B0C223D
:4024000002FB0032D6783F014C4AFFB246EA1526BE54EEB20132BE54494EDFF84491325CB944FF2A9A4601D1FFF740FFB8F1000F3ED0DFF830A1DFF820B11AF80400FEF737
:402440006BFE404B202D34BF2946202123F814503D4B1BF8042043F82480305D1123FEF71BFF1FFA89F21FFA88F1305DFEF726FF1BF80400354B01211B5D0246FEF70CFF45
:40248000334907F5C14289B21BF80400FEF716FF1AF80400FEF752FE315D1AF80400FEF78BFE1AF804000121BDE8F84FFEF71EBE0C2303FB04A383F80180002D35D0214B65
:4024C00007F1804723F81450224B07F5C14703F80480DFF8908018F80400FEF71DFE1E4B202D34BF294620211A5D305D1123FEF7D3FE154B1FFA89F233F82410305DFEF777
:40250000DDFE18F80400FEF719FE315D18F80400FEF752FE18F804000121FEF7E7FD3B7843F001033B70BDE8F88F5A790B4BD2B2FA54BDE8F88F00BFD4EAFF1F0C6000407B
:402540008AEAFF1F66EAFF1F38EAFF1F564B00002CE1FF1F78EAFF1F81EAFF1F0E600040886000405CEAFF1F10B5504B504A1B781478DBB213F0800F03F0030304F07F0464
:40258000DBB25CD0022B12D14A4B1B78812B40F08B80494B1B78012B40F08680474B03221A80474A04EB440414445C6020E0012B7AD103F1804303F5C0431B78DBB2832B96
:4025C0002BD004D8812B0AD0822B1DD06CE0842B2CD0FF2B68D1394B00221A8060E0364B1A78D2B2012A07D1344B1A80354A5A60BDE8104000F02EBA1A78D2B2022A53D1EB
:402600002E4B1A80304AF2E72B4B1A78D2B2022A4AD12A4B1A802D4AE9E7274B1A78D2B2022A41D1254B1A80294AE0E7224B1A78D2B2022A38D1214B1A80264AD7E7022BE8
:4026400014D11C4B1B78012B2ED11B4B1B78012B2AD11A4B03221A80194A04EB44010A445A6000F01FFA1C4B1C7010BD012B1BD103F1804303F5C0431B78012B14D10E4BDD
:402680001A78D2B2012A03D10C4B1A800D4A06E01A78D2B2022A07D1084B1A800A4A5A60BDE8104000F0FEB9002010BD00600040046000400160004003600040B8EAFF1FF1
:4026C00095EAFF1FB1EAFF1F93EAFF1F2DE1FF1F2FE1FF1F31E1FF1FB0EAFF1F30B51A4B1A481A8801780A4492B219491A80194BCAB21C88A4B284B1174A91420CD05A6871
:402700001278D2B201F8012B5A6801325A601A88013A92B21A80EAE7082203780F4C082B0F4B00D042B10F490D7885F080050D700F212170022101E00221217019700A4B30
:4027400002701A7030BD00BF44EBFF1F42EBFF1F00600040B8EAFF1F08600040B5EAFF1FCAEAFF1FC6EAFF1F43EBFF1F074B02221A70074B80221A70064B0F221A70064A8E
:4027800000231370054A012013707047CAEAFF1FC6EAFF1FB5EAFF1F42EBFF1F43EBFF1F10B5154B1A78154B02F00F021988023AD2B2114489B219801149124B188880B2A8
:4027C00078B172B1586811F8014B013AE4B204705868D2B2013058601888013880B21880EBE7094B1A70094B1A7882F080021A70074B0B221A7010BD2960004044EBFF1F63
:4028000000600040B8EAFF1F43EBFF1FC6EAFF1FB5EAFF1F064A06231370064A01201370054B80221A70054B00221A70704700BFCAEAFF1FB5EAFF1FC6EAFF1F43EBFF1FDA
:40284000054B9A683AB19A68044910709A680988518000229A607047B8EAFF1F44EBFF1F08B5124B1A78D2B21A701B78DBB21A0602D50F4A137008BD0220FFF7E1FF0D4B46
:402880001B7803F06003202B05D0402B06D043B900F054FD04E002F0E3F801E000F096FE10B9034B03221A7008BD00BF28600040B5EAFF1F0060004008B50849084B01208A
:4028C0001A8809780A4492B21A80064B00221A70FFF7B6FF044B03221A7008BD42EBFF1F44EBFF1FCAEAFF1FB5EAFF1F08B50C4B1B78DBB2042B07D0062B09D0022B0DD1A8
:40290000BDE80840FFF7D8BFBDE80840FFF748BF0320FFF795FF034B03221A7008BD00BFCAEAFF1FB5EAFF1F08B5054B002201201A70FFF785FF034B03221A7008BD00BFA1
:40294000CAEAFF1FB5EAFF1F08B50A4B1A7832B11978094A41F08001117000221A70074B002201201A70FFF76BFF054B03221A7008BD00BFB4EAFF1F08600040CAEAFF1F46
:40298000B5EAFF1F074B1B78DBB2042B05D0062B05D0022B05D1FFF7A1BEFFF7C5BFFFF7D3BF7047CAEAFF1F10B51D4C2378DBB2DA0633D518060AD503F00F03012B2DD191
:4029C000FFF74EFF174B1B78190609D510BD5A0602D5FFF7D7FF03E09B061FD5FFF786FF23781B061AD4104B104A1B78127813430F4A13701278934210D10A4B08491A78B9
:402A00002078D2B2000605D41A78D2B20A700A7802F00F021B789A42EFD110BD10BD00BF28600040B5EAFF1FC6EAFF1F43EBFF1F29600040054A00231380054A916819B17F
:402A400091680B7092685380704700BF44EBFF1FB8EAFF1F10B50F4C23889BB213B9FFF785FE14E00C4B02221A700C4B00221A70FFF7E0FF0A4B1A78013B1B7843EA02235C
:402A8000228892B29A4288BF2380FFF727FE012010BD00BFB8EAFF1FCAEAFF1FC6EAFF1F0760004008B50C4B04221A700B4B80221A70FFF7BFFF0A4B01201A78013B1B78C2
:402AC00043EA0222074B198889B2914288BF1A80054B0B221A7008BDCAEAFF1FC6EAFF1F07600040B8EAFF1FB5EAFF1F08B5FDF777FC0A4B1B780A4B1A7E02F00302012AF8
:402B000003D0DA7E82F08002DA7601225A76054B1A7802F0FD021A7008BD00BF1E600040D4EAFF1F0B6000400B4B1B780B4B93F8482002F00302012A05D093F84B2082F07C
:402B4000800283F84B20012283F84920044B1A7802F0DF021A7070475E600040D4EAFF1F0B6000407047FFF757BB00002DE9F047234B4FF000081C78E4B21C705FFA88F51F
:402B80002F010135FFB2EDB2002C36D0E30730D51C4E3E4496F800905FFA89F919F0010F25D0194B0C2202FB053212799A4612F0800F1CD007F1804303F5C1431A7802F062
:402BC000FE021A70114B33F815309BB2202B04D928460021FFF7C8FB02E00D4B01225A550C2202FB05A56A790A4BD2B2DA5586F80090640808F10108C0E7BDE8F08700BFF8
:402C00009F60004082600040D4EAFF1F66EAFF1F78EAFF1F0E6000402DE9F04100F03CFD00F07F0600F060FD002400F003070125002F35D04FEA4518A8F102085FFA88F8FF
:402C40001EB3F20719D5174B1B5DDB0715D4164B5B5D03F0FF0283B9144B28461A55013B03F804800121FFF77FFB04F1804303F5C1431A7842F001021A7010340135E4B210
:402C8000EDB2760808F12008D8E77F08002F14BF0127002718BF702418BF08253E46C7E7BDE8F0818260004078EAFF1F85600040014B1B78704700BF8F450040024B1B7878
:402CC0000BB100F003B97047C9EAFF1F2DE9F041FEF7ECF92C4F80463B782C4D13F0800F3BD0012609202E70FFF716FB284B294C1A78002002F07F021A70FEF75DFD237843
:402D0000002003F0F90323703B7803F07F033B70FEF752FD204B30461A7832406A701A7802F0FE021A70FEF747FD2378304603F0FE032370194B1A7842F020021A70A3F5D0
:402D4000E3530D3B1A7802F0FE021A701A7C02F0FE021A74FEF730FD01E000232B704046FEF7A8F90E490C20FEF774FD0C200721FEF77EFD0B4A4FF480531360A2F5C07280
:402D80001360BDE8F08100BF08600040BBE1FF1F10600040944300400960004012600040B12C000080E200E070B5FEF77FF9284D06462B78002B45D0264B4FF480521A60F2
:402DC000254B264C1A78282042F001021A701A7C42F001021A7403F5E75318331A7842F001021A70237843F001032370FEF7E4FC1B4B6A78197800200A431A70FEF7DCFC5A
:402E00002378022043F002032370FEF7D5FC2378222243F004032370124B01201A70502203F8022C032203F8762C13F8962C42F0800203F8962CFEF72FF90B4B04221A70D2
:402E4000FFF73CFF3046BDE87040FEF733B900BFBBE1FF1F80E100E0A543004094430040096000409E600040126000407FB5144B02466D4603F11006186859682C4603C4D1
:402E80000833B3422546F7D1BAB122231370032353700C4B13F8011B04ACC9B204EB111001F00F01214411F8101C10F8100C907002F8041F04498B42ECD104B070BD00BF87
:402EC0005F4B0000000100490801004970B500221B4B11460C241D201A4D83F8724083F87300501C04FB00556E7966B12D792D0601D51C7009E008241C70012404FA02F2E8
:402F00001143C9B201E080221A70082803F1100301D00246DEE70C4B55221A70202283F83020002283F8312022229A70D022D9701A7450221A74FF2203F8822C70BD00BF80
:402F40000E600040D4EAFF1F8C600040074B1A78074B03EBC2035B6803F108021B7A834286BF02EBC000406800207047C4EAFF1F704B00002DE9F041474B1A78002A00F01A
:402F8000888018780138C0B2FFF7E0FFC368077A083303EBC707BB427BD013F8082C3F493F488C5C805C844271D0895C13F8070C88426CD13B4909788A4268D113F8061CB4
:402FC00013F805CC01F07F00441EE6B211F0800F35494FEA06124FF00C05D2B20CF0030C05FB00150AD04FF00108C44585F8018014BF4FF00D0C4FF0070C0AE04FF0000861
:40300000BCF1010F85F8018014BF4FF0090C4FF0050C85F805C0254D4FF0010C05F802C00C25684333F804CC0D18A5F808C013F806CC02F1804285F804C013F805CC02F598
:40304000C14201F800C00021E9701178760001F0FE011170164AF6B216701178104641F0010111700178C906FCD5012505FA04F413F9061C00290F490878A6BF0443E4B2E2
:4030800020EA04040C70117801F0FE011170083381E7BDE8F08100BFC9EAFF1FB6EAFF1F40EBFF1F04600040D4EAFF1F0E600040146000408F60004008B5064B1878013850
:4030C000C0B2FFF743FF20B143681B7900EBC300406908BDC9EAFF1F2DE9F04100210C254D43484C0131002362190929635593705370D370537113819372F0D128B1424927
:40310000424A0B7013704B705370414B1A78002A76D018780138C0B2FFF718FF4368057ADB79ED0013F0400F3A4B1A7814BF42F0010202F0FE021A700122C368083303EBE2
:40314000050C6345A3F108013DD013F8067C07F07F06B24235D10C2606FB0246B6F8088033F804EC1FFA88F8F04538BFA6F808E013F8086CDFF890E01EF8066013F807EC92
:40318000B6451ED1CE780C2317F0800F06F0030603FB024306D00127BE425F7014BF0D26072605E00027012E5F7014BF092605265E710C2353438F78E6183771C978E154EA
:4031C00001E00833BDE70132092AB6D1C36803F1080215440833AB420AD013F8062C0C2002F07F0200FB024213F8081C9172F1E7FFF762FFBDE8F041074B1860FFF766BE68
:40320000BDE8F081D4EAFF1FB6EAFF1F40EBFF1FC9EAFF1FC7EAFF1FD0EAFF1F114B197801F07F014A1ED2B2072A19D80E4B0C2000FB01339978120141F00101997000217C
:40324000D9705978D2B241F0020159701B7913F0800F064B14BF8D218921D154FFF7DABA0020704704600040D4EAFF1F0E60004010B51A4B1B7803F07F035A1ED2B2072AFE
:4032800029D817490C2000FB03139978120101F0FE0199700021D9701249D2B2545C04F07F045454597801F0FD01597019795B7811F0800F0C4905D0012B01D1505406E00B
:4032C0000D2303E0012B0CBF082309235354BDE81040FFF79FBA002010BD00BF04600040D4EAFF1F0C6000400E60004010B50E4B1C780E4BE4B218780138C0B2FFF726FE06
:4033000043681B79A3420CD9012C0AD8084B094A195D0120C9B21155074A1278D2B21A5510BD002010BD00BF04600040C9EAFF1FB6EAFF1F40EBFF1F0260004038B58E4C2B
:40334000002323808D4B1A7812F0800F8C4A127800F08A800A2A00F20C81DFE812F05A000A010A010A010A010A010B000A017A000A017E00834B1A78012A09D1824B1A7848
:40338000824B03EBC2035B685B686360122311E01A78022A13D17E4B1878FFF7D7FD002800F0E780436863606368DA7863689B7843EA02232380BDE83840FFF74BBB1B78D0
:4033C000032B22D1734B00227149D0B20D78854202D80A783AB910E0187801320028F8D019780B44F0E76A4A6B491278097C914203D16A48FFF73AFD684B1A78002A00F03F
:40340000B8801A78D2B2228019E0BDE8384001F027BB1A7812F0030213D0022A40F0A9805F4B22801B785F4A03F07F030C2101FB03239A785C4BD2B21A7000225A706360F0
:40344000B9E702232380594B1978574BC9B21970F4E701232380564BF1E701232380504B544A1B781344EAE7013A0A2A00F28180DFE802F0367F527F067F7F7F0B7F220063
:40348000434B1A784C4BD2B260E0414B1B7803F0FF0453B9464B1A78944266D01C70474B01201870FFF718FE5FE0601EC0B2FFF74DFD0028EED15CE0FFF718FF002858D07F
:4034C000374B01221C783E4BE4B21C703B4B1A70FFF750FD374B1A5D3A4BD2B21A5544E01B7803F00303012B32D00CD3022B40D103F1804303F5C0431B78002B39D1BDE80A
:403500003840FFF7B5BE224B1B78012B31D1274B1A7802F0FD0219E01B7803F00303012B16D00BD3022B24D103F1804303F5C0431B78F3B9BDE83840FFF770BE144B1B78CC
:40354000012B16D1194B1A7842F002021A700CE0134B1A78012A0CD81B781B4A0C48DBB2D15C007821EA0001D154BDE83840FFF751B9002038BD00BFB8EAFF1F0060004097
:403580000160004003600040C4EAFF1F704B000002600040C44B0000294E000050EBFF1F04600040D4EAFF1FBDE1FF1FC7EAFF1FC9EAFF1FB6EAFF1FB4EAFF1FC8EAFF1F99
:4035C000C5EAFF1F40EBFF1FCBEAFF1F034B00201B781B0644BF024B1B7870470060004001600040F7B584468E460C4C01200025614617461E4672460346009501952070D9
:40360000FDF7F6FD394632462078FDF7BDFD20780221FDF7A7FD207803B0F0BD33E1FF1FF7B584468E460C4C05200025614617461E4672460346009501952070FDF7D8FD10
:40364000394632462078FDF79FFD20780221FDF789FD207803B0F0BD34E1FF1FF7B584468E460C4C03200025614617461E4672460346009501952070FDF7BAFD394632461B
:403680002078FDF781FD20780221FDF76BFD207803B0F0BD35E1FF1F014B1878704700BF6865004008B5FDF701FD044B1A7842F010021A70BDE80840FDF7FCBC986500402A
:4036C000074A0223136002F688321268E0215064044A11706FF440710A441360704700BF80E100E001E400E0014B1878704700BF6864004008B5FDF7D9FC044B1A7842F0E9
:4037000010021A70BDE80840FDF7D4BC986400402DE9F041184B07461C78984604F00404E4B230B924B3154A137843F0100313701EE024B9124A137843F01003137007261A
:4037400000250FB90D4A00E00D4A13780A200133DBB21370FEF730F898F8003003F00403A34207D10135EBB2B342EAD3BDE8F0810F26E5E7BDE8F081965B004034460040A4
:4037800035460040044B1A7842F004021A701A7C42F004021A747047A7430040044B1A7802F0FB021A701A7C02F0FB021A747047A74300400F4B00F003011A78012802F025
:4037C000FC0241EA02021A70A3F590530A4AA3F10D0305D109490978C9B21170084A04E008490978C9B21170074A1278D2B21A70704700BF425800403446004012010049A7
:4038000016010049B1010049B901004908B50120FFF7D0FF0C4B1A7802F0DF021A701A7802F0FB021A701A7842F008021A7093F8952202F0E70283F8952293F8952242F01B
:40384000100283F8952208BD4258004010B5054C23781BB9FFF7DAFF01232370BDE81040FFF790BFBFE1FF1F2DE9F84F2049214B214E93F8009037780C784FF0000AE4B294
:4038800004F0F60283F800A086F800A00A701B4A1B4D92F800B010785FFA89F940F0300010701848FFB280F800A085F800A092F800E05FFA8BFB0EF0030EBEF1010F9846E4
:4038C00002D00120FFF724FF5046FFF721FF0B4A074B82F800B0A2F5905288F800900E3A37701C702878137843EA0020BDE8F88FD35A0040D05A0040D25A0040425800407A
:403900003546004034460040084B1A7842F001021A701A7C42F001021A7403F5A6530E331A7842F080021A70704700BFA9430040044B1A7802F0FE021A701A7C02F0FE028C
:403940001A747047A9430040044B00F003001A7802F0FC0202431A70704700BF01580040074B0E221A7018225A7081229A7093F80B22032042F0080283F80B22FFF7E4BF1F
:403980000058004010B5054C23781BB9FFF7E8FF01232370BDE81040FFF7B6BFC0E1FF1F084B1A7842F004021A701A7C42F004021A7403F5A6530E331A7842F080021A7032
:4039C000704700BFA9430040044B1A7802F0FB021A701A7C02F0FB021A747047A9430040044B00F003001A7802F0FC0202431A70704700BF09580040074B0E221A701822E5
:403A00005A7081229A7093F82322032042F0080283F82322FFF7E4BF0858004010B5054C23781BB9FFF7E8FF01232370BDE81040FFF7B6BFC1E1FF1F2DE9F041184B0746B7
:403A40001C78984604F0010430B924B3154A137843F0100313701EE024B9134A137843F010031370072600250FB90E4A00E00E4A13780A200133DBB21370FDF79DFE98F81A
:403A8000003003F00103A34207D10135EBB2B342EAD3BDE8F0810F26E5E7BDE8F08100BF965B00403046004031460040044B1A7842F001021A701A7C42F001021A74704763
:403AC000A7430040044B1A7802F0FE021A701A7C02F0FE021A747047A74300400F4B00F003011A78012802F0FC0241EA02021A70A3F590530A4AA3F10F0305D10949097878
:403B0000C9B21170084A04E008490978C9B21170074A1278D2B21A70704700BF40580040304600401001004914010049AD010049B501004908B50120FFF7D0FF0C4B1A785E
:403B400002F0DF021A701A7802F0FB021A701A7842F008021A7093F8872202F0E70283F8872293F8872242F0100283F8872208BD4058004010B5054C23781BB9FFF7DAFFC5
:403B800001232370BDE81040FFF790BFC2E1FF1F2DE9F84F2049214B214E93F8009037780C784FF0000AE4B204F0F60283F800A086F800A00A701B4A1B4D92F800B0107857
:403BC0005FFA89F940F0300010701848FFB280F800A085F800A092F800E05FFA8BFB0EF0030EBEF1010F984602D00120FFF724FF5046FFF721FF0B4A074B82F800B0A2F5AF
:403C0000905288F80090103A37701C702878137843EA0020BDE8F88FC35A0040C05A0040C25A0040405800403146004030460040084B1A7842F002021A701A7C42F00202A8
:403C40001A7403F5A6530E331A7842F080021A70704700BFA9430040044B1A7802F0FD021A701A7C02F0FD021A747047A9430040044B00F003001A7802F0FC0202431A702B
:403C8000704700BF05580040074B0E221A7018225A7081229A7093F81722032042F0080283F81722FFF7E4BF0458004010B5054C23781BB9FFF7E8FF01232370BDE810401A
:403CC000FFF7B6BFC3E1FF1F2DE9F041184B07461C78984604F00204E4B230B924B3154A137843F0100313701EE024B9124A137843F010031370072600250FB90D4A00E04F
:403D00000D4A13780A200133DBB21370FDF754FD98F8003003F00203A34207D10135EBB2B342EAD3BDE8F0810F26E5E7BDE8F081965B00403246004033460040044B1A7844
:403D400042F002021A701A7C42F002021A747047A7430040044B1A7802F0FD021A701A7C02F0FD021A747047A74300400F4B00F003011A78012802F0FC0241EA02021A7044
:403D8000A3F590530A4AA3F10E0305D109490978C9B21170084A04E008490978C9B21170074A1278D2B21A70704700BF41580040324600401101004915010049AF01004943
:403DC000B701004908B50120FFF7D0FF0C4B1A7802F0DF021A701A7802F0FB021A701A7842F008021A7093F88E2202F0E70283F88E2293F88E2242F0100283F88E2208BDC6
:403E00004158004010B5054C23781BB9FFF7DAFF01232370BDE81040FFF790BFC4E1FF1F2DE9F84F2049214B214E93F8009037780C784FF0000AE4B204F0F60283F800A0CC
:403E400086F800A00A701B4A1B4D92F800B010785FFA89F940F0300010701848FFB280F800A085F800A092F800E05FFA8BFB0EF0030EBEF1010F984602D00120FFF724FF19
:403E80005046FFF721FF0B4A074B82F800B0A2F5905288F800900F3A37701C702878137843EA0020BDE8F88FCB5A0040C85A0040CA5A004041580040334600403246004067
:403EC000084B1A7842F060021A70A3F5A653133B1A7842F008021A701A7C42F008021A74704700BF77580040084B1A7802F0F7021A70074A117801F0F70111701B7823B996
:403F0000044B1A7802F09F021A707047A4430040B443004077580040054B00F003001A7802F0FC021A701A7802431A70704700BF5E5800400320FFF7EFBF000008B5054B6F
:403F40001A781AB901221A70FFF7F4FFBDE80840FFF7B6BFC5E1FF1F084B1A7842F060021A70A3F5A653133B1A7842F004021A701A7C42F004021A74704700BF7758004013
:403F8000084B1A7802F0FB021A70074A117801F0FB0111701B7823B9044B1A7802F09F021A707047A4430040B443004077580040054B00F003001A7802F0FC021A701A78E9
:403FC00002431A70704700BF5C5800400320FFF7EFBF000008B5054B1A781AB901221A70FFF7F4FFBDE80840FFF7B6BFC6E1FF1F084B1A7842F060021A70A3F5A653133BBA
:404000001A7842F002021A701A7C42F002021A74704700BF77580040084B1A7802F0FD021A70074A117801F0FD0111701B7823B9044B1A7802F09F021A707047A44300405A
:40404000B443004077580040054B00F003001A7802F0FC021A701A7802431A70704700BF5A5800400320FFF7EFBF000008B5054B1A781AB901221A70FFF7F4FFBDE8084026
:40408000FFF7B6BFC7E1FF1F014B1870704700BF7D6400402DE9F041184B07461C78984604F00804E4B230B924B3154A137843F0100313701EE024B9124A137843F01003EA
:4040C0001370072600250FB90D4A00E00D4A13780A200133DBB21370FDF76EFB98F8003003F00803A34207D10135EBB2B342EAD3BDE8F0810F26E5E7BDE8F081965B0040E1
:404100003646004037460040044B1A7842F008021A701A7C42F008021A747047A7430040044B1A7802F0F7021A701A7C02F0F7021A747047A74300400F4B00F003011A78F8
:40414000012802F0FC0241EA02021A70A3F590530A4AA3F10C0305D109490978C9B21170084A04E008490978C9B21170074A1278D2B21A70704700BF43580040364600405C
:404180001301004917010049B3010049BB01004908B50120FFF7D0FF0C4B1A7802F0DF021A701A7802F0FB021A701A7842F008021A7093F89C2202F0E70283F89C2293F80B
:4041C0009C2242F0100283F89C2208BD4358004010B5054C23781BB9FFF7DAFF01232370BDE81040FFF790BFC8E1FF1F2DE9F84F2049214B214E93F8009037780C784FF0AA
:40420000000AE4B204F0F60283F800A086F800A00A701B4A1B4D92F800B010785FFA89F940F0300010701848FFB280F800A085F800A092F800E05FFA8BFB0EF0030EBEF1A8
:40424000010F984602D00120FFF724FF5046FFF721FF0B4A074B82F800B0A2F5905288F800900D3A37701C702878137843EA0020BDE8F88FDB5A0040D85A0040DA5A0040C5
:40428000435800403746004036460040084B1A7842F008021A701A7C42F008021A7403F5A6530E331A7842F080021A70704700BFA9430040044B1A7802F0F7021A701A7C0F
:4042C00002F0F7021A747047A9430040044B00F003001A7802F0FC0202431A70704700BF0D580040074B0E221A7018225A7081229A7093F82F22032042F0080283F82F22F0
:40430000FFF7E4BF0C58004010B5054C23781BB9FFF7E8FF01232370BDE81040FFF7B6BFC9E1FF1F084B1A7842F060021A70A3F5A653133B1A7842F001021A701A7C42F004
:4043400001021A74704700BF77580040084B1A7802F0FE021A70074A117801F0FE0111701B7823B9044B1A7802F09F021A707047A4430040B443004077580040054B00F0AA
:4043800003001A7802F0FC021A701A7802431A70704700BF585800400320FFF7EFBF000008B5054B1A781AB901221A70FFF7F4FFBDE80840FFF7B6BFCAE1FF1F344B302266
:4043C0002DE9F0411A7006229A700822DA7000241F221C7101255C719A7114221C725C729C721D7583F8842A042283F8852A182283F8862A274A83F8874A1221112313709F
:404400005170947015715371234B19221A7097225A70FCF74BFE214F214E3B78442243F003033B703378804643F0030333701D4B03201A70FDF7C0F93B78404603F0FC0365
:404440003B70337803F0FC033370FCF733FE164B58221A7005225C709A710222DA7120461C725C7200F0CCF9104B40F29B22294656201A6000F0D0F929464FF4AF7000F0C1
:404480003DFABDE8F0411D200949FDF7E3B900BF004E00408A58004090580040F8460040F9460040925800409458004048EBFF1FE147000070B5244D244E002401231020ED
:4044C00033702C7000F010FA102000F089FA1D200721FDF7CDF91E4B04221A705C701C7293F87122033B42F0180283F874221C700A2283F8F54283F8F642133B1A7012226C
:404500005C70DC701A7213225A725C731422A3F67F231A700D232B714FF400536B80337815F823200B4B1A70337805EB830333F8022C094B1A803378AC71012B03D1BDE80F
:404540007040FFF73BBF70BDCCE1FF1F36E1FF1F965800400E4E00400C4E004070B5FCF7A5FD2A4B2A4D1B782A4B2B4C1A78064642F001021A701A78032042F010021A70C5
:404580001A7C42F001021A741A7C42F010021A742B7843F002032B70237843F0020323701E4B1A7842F003021A70FDF705F92B78304603F0FD032B70237803F0FD032370E8
:4045C000174B1A7842F006021A707A22DA72A3F5A653163B1A7842F001021A701A7C42F001021A745A7842F008025A705A7C42F008025A740B4A4FF000531360A2F5C072B4
:404600001360BDE87040FCF755BD00BF36E1FF1FF8460040AA430040F9460040915800407758004080E200E010B5064CE3792BB9237A0BB9FFF73EFF0123E371BDE81040BD
:40464000FFF78CBFCCE1FF1F70B5FCF72FFD304B304D1A78304C02F0FE021A705A78064642F004025A702B78032043F002032B70237843F002032370284B1A7802F0FC0254
:404680001A705A7802F0F7025A70FDF795F82B78304603F0FD032B70237803F0FD0323701F4B1A7802F0EF021A701A7802F0FE021A701A7C02F0FE021A741A7C02F0EF029A
:4046C0001A7403F5A6530D331A7802F0F9021A70A3F5A653163B1A7802F0FE021A701A7C02F0FE021A7403F5A75301331A7802F0F7021A70A3F5A7531A7802F0F7021A7026
:404700001A7C02F0F7021A74BDE87040FCF7D2BC004E0040F8460040F946004091580040AA430040024B1A7842F001021A707047004E0040024B1A7802F0FE021A707047BE
:40474000004E00400246074B997911B11878C0B203E0054B187800F00100012801D0002AF1D07047CCE1FF1F014E00400D4B0E4A1B7803F00303012B02D8108880B209E09C
:40478000032B0A4908BF0A4B1278087808BF1B7842EA0020074B9A790AB100221A7000B2704700BF144E0040104E0040114E0040124E0040CCE1FF1F10B5084B1A7842F092
:4047C00004021A70FFF7AEFF0020FFF7BBFFFFF7CDFF0446FFF7AEFF204610BD014E00407047000008B50020FCF77AF80120FCF777F8024BFF221A7008BD00BF37E1FF1F17
:4048000010B50446FFF7EEFF2046FCF75BF8014B1C7010BD37E1FF1FF0B52C4B2C4D1F782C8807F00707A4B2A0424DD0294A1678F6B267B934B150B91A7842F040021A707E
:404840002880F0BD28801A7802F0BF023BE006F0080303F0FF060BB31F4F204D00234FF0080C2B7087F800C03B711D4B1F78863307F07F0703F8867C1B781F0700D568B96C
:40488000184B1C8007232B702B7813F00103FBD1147804F0F7041470104C237012780D4B14070CD5A3F56873002918800CBF01220322013B1A701A78D207FCD4F0BD044AAF
:4048C00010801A7832431A70F0BD00BF8E4000408C400040A243004010400040014000400840004002400040034B00F0F8001A7802431A70704700BF8E4000402DE9F0416F
:40490000304B314D93F800C02C880CF0070CA4B2A0421F4653D02D4A1678F6B2BCF1000F0FD13CB168B91A7842F040021A702880BDE8F08128801A7802F0BF021A70BDE8EF
:40494000F08116F0010623D0DFF890C0204D00234FF001082B708CF800800CF8043C1D4B93F800C00CF07F0C83F800C03B781F0700D568B9184B1C8007232B702B7813F036
:404980000103FBD1147804F0FE041470104C237012780E4BD4070DD5A3F29F33002918800CBF01220322013B1A701A78D207FCD4BDE8F081044A10801A7816431E70BDE844
:4049C000F08100BF0241004000410040A143004001400040084000400240004014400040034B00F0F8001A7802431A70704700BF0241004010B50446FCF758FB0F2C06D842
:404A0000164B1A7802F01F0242F0400220E0202C06D8124B1A7802F01F0242F0800217E0312C06D80D4B1A7802F01F0242F0C0020EE0422C04D8094B1A7802F01F0207E0E1
:404A4000532C06D8054B1A7802F01F0242F020021A70BDE81040FCF72DBB00BF00480040104B1B7803F00303012B0CD0022B0ED10D4B0E4A1B780C2103F07F0301FB0323ED
:404A800008339B7801E0084B1B78DBB200E00023074A1268D35C012B01D1FDF765BD0020704700BF0060004004600040D4EAFF1FD0EAFF1F70B50E4B0E4D0024ED1AAD10F4
:404AC0001E46AC4204D056F8242090470134F8E700F0B4F9084D094B0024ED1AAD101E46AC4204D056F8242090470134F8E770BD484E0000484E0000504E0000484E0000B5
:404B000002440346934202D003F8011BFAE7704700000000035B004024430040400010510040200040510040300000000140001000140140000800400140000A004C014083
:404B400000020050014020000C061803303E4A02010300040506000004000000040000303132333435363738394142434445460001000000784B000001000000294E0000A2
:404B800001000000884B000001000000B94D000002000000B24B00000000000000000000000000000000000000000000B04B0000010100008603020001000101820DC00041
:404BC000010002030403090468034F00700065006E00200053006F007500720063006500200048006100720064007700610072006500200043006F00700079007200690029
:404C0000670068007400200028006300290020003200300031003500200050006500740065007200200041006C006C0061006E001A0341007500640069006F0043006F008C
:404C40006E00740072006F006C001C035A00650072006F00420061006E0064007700690064007400680016034D006900630072006F00700068006F006E006500100353001E
:404C80007000650061006B00650072001C035500530042002000530074007200650061006D0069006E0067000E034100630074006900760065001C0341006300740069009C
:404CC0007600650020003100360020006200690074001C03410063007400690076006500200032003400200062006900740008034D0061006300200350006C0061007900BE
:404D00006C0069007300740043006F006E00740072006F006C0044035200450044004F00550042004C00450052002000520061006E0064006F006D0020004E0075006D001A
:404D40006200650072002000470065006E0065007200610074006F0072003803430044004300200043006F006D006D0075006E00690063006100740069006F006E00200098
:404D800049006E007400650072006600610063006500260343004400430020004400610074006100200049006E007400650072006600610063006500000902700002010A9C
:404DC000803209040000010101000C09240100011E0001010C24020401020002030000040924030501010004060905860302001E000009040100000102000C09040101012F
:404E000001020008072401050101000E2402010202100244AC0080BB000905820DC000010000072501010101001201000200000008501DC9600300010C800100F8B500BF80
:404E4000F8BC08BC9E4670474D00000055080000F8B500BFF8BC08BC9E46704729000000704E000008E1FF1F30000000400A000000000000FFFF0003FF01FFFF7F80000090
:404E80002F0000000000E457C8AF00002D00000040A5AE020C0180FF7F0100FFFFFF01FF000000000000000000000000000000000000000000000000000000000000000046
:404EC00000000000000000000000000000000000000000000000000000000000000000000000000000000000000000000000000000000000000000000000000000000000B2
:404F00000000000000000000000000000000000000000000000000000000000000000000000000000000000000000000000000000000000000000000000000000000000071
:404F40000000000000000000000000000000000000000000000000000000000000000000000000000000000000000000000000000000000000000000000000000000000031
:404F800000000000000000000000000000000000000000000000000000000000000000000000000000000000000000000000000000000000000000000000000000000000F1
:0200000480007A
:400000000145004006520040045A00400164004001650040010101400203014002050140020701405C08014049090140720A01403B0B01405E0C0140450D01403A0E01405B
:40004000360F014002150140021701405818014041190140031B0140114001400D410140074201400943014008440140084501400B46014015470140084801400E490140F2
:40008000084C0140084D01400A500140035101407E02008001801928602061207C400B201B202B203B208803887FE208E608EC02E608EE01E202EE0200AA02450A010B0842
:4000C0000D040F03107211021285130514FD180119071D011E101F06200A2A042C462E99303F3303343F350436C0370838223B803E403F144021410345604702481249FFAC
:400100004AFF4BFF4F0154035604580459045A045B045C045D945F016280644065406620681069508008822484A0865C870188038F029001920293029405960A97029A0321
:400140009C209EDCA280A440A61CA803AF01B00CB203B4E0B501B630B702B880B980BA0ABF40D608D804D904DB04DC44DD90DF010004010203040501060409020A150EA8B7
:400180000F0210A0132016081741180419821A111DA11F012140221025402718298031043302350136103740380439403C803D20458047184F0256085C805D206301660212
:4001C00081408E049140932494049601970299249AA09B409E1E9F01A0F0A110A240A302A520A614A701AD04B304C05EC2FFC4DECA08CCB3CE3AD070D630D888E001E20292
:40020000EE020001010A021C03300B2A0C061403150A16041770180419041A0A1B781F0A20042101220223782404260228062A082C062D0A2F703140320733073410351808
:400240003608372838023AA83BAE40124504480349FF4AFF4BFF4DA04F01580459045A045C995D045F01604061A864406520664067208340844D8510862288018A028B01A0
:400280008D4A8F21902D912292509472950196089802997D9A049D1E9F01AA10AC1DAD26AE22AF41B07FB17FB802B902C024C101C9FFCAFFCBFFCF01D608D804D904DA0452
:4002C000DB04DC44DD94DF01E040E120E240E380E410E610E76CE810E974EA40EBA8EC10ED11EE40EFA801820410060407200A140EA812AA1608174019961A141C801D0295
:400300001E80211122AA274029822F01311032883614374139223C903E083F02400442014522476048B06401860288018B0491409328950499209AA09E109F40A110A302E7
:40034000A522A901B004B101B212C069C276C4CFCA19CCFECEF5D0BCD810EE0112022601270130013402370139203A0C40244101460B480449FF4AFF4BFF4C0F4D0F4E0354
:400380004F015608580459045A045B045D945F01604061206240638064106610676C681069746A406BA86C106D116E406FA8810282138324852686088750880189028A1215
:4003C0008B748D028E178F3491059201930295019613976A99029A019B749D029E019F24A001A126A212A350A502A61FA734A902AA17AB7CAD02AE11AF34B003B107B20468
:40040000B308B411B510B609B760BAAABB8ABF10D804D904DB04DF010006020608100AA10E40104112201310170818021A211B111E481F242006214022012311251026600A
:40044000270428552A102B512F2032513304380A39803A043B104522474056805F4065A067206940868089808A2090089280934094049505966397199B089C109E149F0444
:40048000A342A511A6C4A701AD40AF44B780C00FC21FC42FCA4FCC0FCE0FD0B0D610D870E608002002050301050606020841090A0A040C41124114801605170E18081A070B
:4004C0001E43224126412810290C2A052E413003330E34F835013604370139083AB2580459045F01820183108701920193089B209E019F02A304A601A802A909AB12B00159
:40050000B118B320B503B602B704B820BE50D808D904DB04DF01000401810204040209100AA10C810E4210101140131114241708180819801A801B401D101F822104222090
:40054000230224022540260127282A102C842F44330436A2380239083B103D065E885F226421678479407B017E0185048A028D10C01FC29FC46FCAA4CCB2CEC7D6F0D8F021
:40058000DE10E402E810EA0AEE04000D02020301040B06040C0C0D011005120813011570170D19101B661C011E021F0123422520275A29012A102C042E0B320C3330341065
:4005C000350F360337403A803B2040264103440449FF4AFF4BFF4C0A4F01547F5604580459045A045B045C445D945F016240636C64406584681069118A04920198069A01A1
:40060000A407A801AA02B407C026C103C404C710C820C9FFCAFFCBFFCC0FCD0FCE0BCF01D608D804DA04DB04DC04DD94DF01E240E36CE440E584E810E91100200505070149
:4006400009020A040E8213281604174019101A041B101D041E2A1F48273D2E042F48350137683C803F02428043144680472849104F2051025A805D115F4462A8648066203C
:40068000672189118AA88B409325960499019AA49B409C809F25A050A240A301A502A614AA10B140B210C0B2C29AC4C6CAE0CCF0CE90D0E7D224D6F8D8FEEA0AB640E402B5
:4006C000E8101340154017021F083301361037083B403D4042018601C4E0C620CCE0CE30D010E21033406302660887019B029F09A610AF08CC10D640D880E610EC40861017
:400700009B029F49A610AA08E610EE802740860298109B029F49AC10C880E240EE4029407C2088408C20CA08DE01E002E6041302854098089940A440B408C408E8020080D9
:400740003D10448098089B029F40A440AB40C002CE04D001020203400D0816403D10832084408E02911098089C809F40A040AF02B110C00AC204C404CE04E608E8019810EB
:400780009B02A202A304AB04AF09EA50EE201A024F085810620286019810A202A304B702C640D280D480D840E4403040644898089B209C80AD08AE40CC084008772084805B
:4007C00098089B209C80D008DE04001101010C110D010E110F01101011011C101D0100AD010B108200C0C000C0002B0000202000200000200000000000000000C0000000E9
:40080000002828002800D7005F01180100010000000200000003000000050000000000000000000000000000000000000000000000000000000000000000000000000000E5
:400840000000000000000000000000000000000000000000000000000000000000000000000000000000000000000000000000000000000000000000000000000000000078
:400880000000000000000000000000000000000000000000000000000000000000000000000000000000000000000000000000000000000000000000000000000000000038
:4008C00000000000000000000000000000000000000000000000000000000000000000000000000000000000000000000000000000000000000000000000000000000000F8
:4009000000000000000000000000000000000000000000000000000000000000000000000000000000000000000000000000000000000000000000000000000000000000B7
:0200000490006A
:0400000000004007B5
:0200000490105A
:04000000BC90ACAF55
:0200000490303A
:020000002928AD
:0200000490402A
:4000000000000000000000000000000000000000000000000000000000000000000000000000000000000000000000000000000000000000000000000000000000000000C0
:0200000490501A
:0C00000000012E10506900012E30799193
:00000001FF