:400000000080002011000000130800001308000008B5044B1A6803F53F5302331A6000F0F9FB00BFFA46004010B5054C237833B9044B13B10448AFF300800123237010BD4D
:400040003881FF1F00000000484B0000084B10B51BB108480849AFF300800848036803B910BD074B002BFBD0BDE81040184700BF00000000484B00003C81FF1F0881FF1FBB
:400080000000000010B5074B1A781C4642B100F057F8054A13780BB1013B13700023237010BD00BF5481FF1F6981FF1F38B51E4B1A780AB901221A701B78012B0BD11A4B19
:4000C00002221A700023194A002199540133C02BF9D1174A138002F06BF920B3154C0120657802F071F9854216D0012002F06CF9607088B1104B1B7803F00F03012B0BD1D4
:400100000B4CC02202200949228002F001FA02200021228802F0FCF9BDE8384004200749012202F0F5B938BD5581FF1FD881FF1FD681FF1F0C81FF1F1E6000405981FF1F25
:4001400010B5184B1B7863B302F020F9164C08B1002301E06378013363706378052B20D902F020F9D8B1114B1A781AB901221A7000F04AFA02F0F4FD01F018FD00204021FE
:4001800001F00AFF01F002FE02F054FE02F00AF928B1074B012200201A7002F0DDFF0023637010BDBA81FF1F5581FF1F1181FF1FC88AFF1F38B50D4B1C78B4B904F064FA8D
:4001C000142001F001FB04F025FB054604F06CFA40F26A539D422046CCBF0121214602F09DF8034B01221A709A7038BDBA81FF1F5581FF1F08B562B600F022FE054800F0ED
:400200002DFE01F003FABDE808400320014601F017BB00BF9107000008B504F0EBF803F04BFF03F0FDFE03F0AFFE04F097F803F0C7FB03F013FC03F05DFD03F0EFFF03F07A
:400240001FFB03F0B7FCBDE8084003F0FFBD08B504F0A6F803F006FF03F0B8FE03F06AFE04F050F803F080FB03F0CCFB03F016FD03F07CFF03F0ACFA03F044FCBDE8084046
:4002800003F08CBD0120F8B501464FF4804241F6FF7303F0FDF9074600F0E4FF044600F0E1FF0646114D324620460121002301F00FF8042322463046012101F009F8AAB2E2
:4002C000204646F26A5101F015F86A1C304646F26A5192B201F00EF82146384600F086FF3846BDE8F840012100F014BFA682FF1FF8B5002001F040F9304801F081FA64203E
:4003000001F076FA01F082F8002003F0E3FEFFF79EFF2B4B00241C7000F088FC294B012502201D7001F07AF84FF4005213460220294600F0BFFD244B187000F093FF234D10
:4003400028550134082CF8D1214C6F1EA4B20026013606F00703EA5C17F8010F0623602100F0B6FF1B49224689B2387800F0C2FF6034FFF787FF082EA4B2E9D14FF400521A
:4003800013460021012000F0F9FC134B134C187000F068FF207000F065FF6070104800F0A7FD104800F0D8FC002003F093FE00F075FDBDE8F840FFF74ABF00BF00366E011F
:4003C000214200409882FF1FB182FF1F9C82FF1F3587FF1FA682FF1FA482FF1FB282FF1F59070000490700002DE9F84F5B4C2378012B40F0B080637823B100236380A3802C
:400400006370A371564F387800F09AFE554B1B78012B0BD1A379514A092B09BF002301339371B4251CBF9371B02500E0C0254E4BDFF828811D8000F073FDA388DFF8349180
:400440002B44A38000F066FD6688DFF82CB17319B3F5407FDFF824A12EDDC6F54076B6B2AD1B314699F8012099F800002323ADB200F02EFF0723294699F80100FE2200F003
:4004800027FFB8F802101FFA8BFB1FFA8AFA5944524699F8000089B200F02CFF0AEB0602594699F8010092B200F024FF387899F8001000F09BFE1CE007232946FE2299F857
:4004C000000000F005FFB8F802101FFA8AF2594489B299F8000000F00DFF387899F8001000F084FEB8F802301D44ADB2B5F5407F02D0A8F8025002E00023A8F802300121C1
:40050000387800F007FE3878012100F07BFEE279124B02BB9A88B2F5C07F1CD3134D012428780421DC7100F06DFE2146287800F0F1FD0F4B2878197800F058FE21462878C0
:4005400000F0E8FDFFF768FE00F09CFC2046BDE8F84F03F0BFBDBDE8F88F00BF5C81FF1FA482FF1F9882FF1FD681FF1FB182FF1F9C82FF1FB282FF1F3587FF1FD881FF1FFA
:4005800010B50D4CE379B3B10C4B0421187800F039FE012363702372094B00204FF440726081E0711A8003F095FD00F077FCBDE81040FFF74CBE10BD5C81FF1FB182FF1F73
:4005C0000E81FF1F10B50446FFF7DAFF002000F0D3FF094801F014F9084B20461C7000F037FB012000F0C8FF054801F009F9054B01221A7010BD00BF00366E019882FF1F5A
:4006000040A5AE025C81FF1F08B5002000F0B4FF094801F0F5F8642001F0EAF800F0F6FE002003F057FDFFF712FE044B00221A70034BFF229A7008BD00366E015C81FF1FFA
:400640000E81FF1F38B5194B1B7803F0FF045BBB174A137843B31378164903EB43030B449D78137803EB43030B4458781378000203EB4303CB5C40EA054018434AF6444322
:40068000C31A584258410C4B14709A780B4C824208D0DD78987015B10123237302E0FFF791FF25730023637338BD00BFCA8AFF1FB08AFF1F958AFF1F0E81FF1F5C81FF1F11
:4006C00038B5114CE3786BB9104B5B7853B9104B5A7B0AB964225A735B7B012B02D1E370FFF792FFE278084B012A0BD1074A527842B1074C0025227BDD701AB19878FFF70D
:4007000061FF257338BD00BF0E81FF1FB68AFF1F5C81FF1F094B197A1A4669B10023BF2B9EBF0749002058540648002119540133B3F5407FF3D11172704700BF5C81FF1FF1
:40074000D881FF1F3587FF1F024B022000211A8801F0DEBED681FF1F0A4B0B480B4910B51C8803880A88E31AD31A9BB2B3F5407F0B80048003D3BDE81040FFF701BF6033B1
:400780000B8010BD6081FF1F6681FF1F0E81FF1F024B01221B78024B1A707047904300405481FF1F08B503F039FD03F069F803F001FA03F04BFB052001F006F803F03CFDF8
:4007C00003F06CF803F004FA03F04EFB03F0CEFC02F0FEFF03F096F9BDE8084003F0DEBA08B5FFF7DFFFFFF783FDFFF703FD01F0D9FD28B1FFF75AFCFFF762FFFFF722FF78
:40080000FFF7D8FCFFF73EFC01F03AF8FFF782FFEDE7FEE708B51148114AC8B1A2F1100132C9234604391E1BAE4204D051F8046F43F8046BF7E71D4652F8041C5C1B8C42E9
:4008400003D0002443F8044BF8E701381032E4E704F04CF9FFF7C4FFFEE700BF01000000B84E000008B5124A124B1A60124A136843F4007313600023032B98BF0F4A4FEA17
:40088000830094BF52F823100D490E4A0133302B1150F1D10C4B19780C4B19700C4B1A6000F036F800F020FC0A4B00221A6008BD0004FA050CED00E014ED00E0000000004F
:4008C000130800000080FF1FBC7600400481FF1F08ED00E00081FF1F012807D8044B53F8202018441178037A0B431370704700BF4C4B0000012808D8044B53F82020184455
:40090000017A137823EA0103137070474C4B0000F8B572B600249F4A062303FB04230021D3F80A00DA89013404F006F9082CF2D19948002450F8041F04F1105303F1420227
:4009400021F0FF054333C9B20B4452005B0002329A4205D012F8026C12F8017CAF55F6E78E4B0C449842E5D18D4B0A221A7040F20312032723F83B7C23F8392C40F203224F
:4009800023F8372C40F2033223F8352C854B00261E60854B854D1A68854B864C1A60864B1A68864B1A60864B1A68864B1A60864B1A68864B1A60864A137843F00203137032
:4009C000137C43F0020313742B78A2F5863243F040032B70413A137843F0100313707D4B03CBC2F8400DC2F8441D93E8070003C42280794A0C3303CB1060516003CB5161C3
:400A0000764910610A78072042F008020A70744A612111702F21A2F5F062118071491C220A704F800A71C8800A726F4A5021168091701121968091711A686C4B19241A6021
:400A4000062283F80022522203F580731A70684B684A1B78DBB2137040F20F72664B1A8041F2512223F8022C644B4FF4F0701A7802F0010242EA460303F0030600F024FB7A
:400A8000013C00F08680032EEED15D4A5D494FF48073138007270023482017700B70887013705371584B02224FF0040E1A7083F80AE091F89C33102443F01F0381F89C33D3
:400AC00091F89B3343F0010381F89B332B78C12143F080032B70424B19704C4B4C491B78DBB203EA070023FA0EF308704B70494B4FF485411E70A3F82F1044F24001A3F88D
:400B00003F104549202309200B7081F8700681F80438424B80201870414E402381F8143881F81E2881F824480121317086F802E0F1723474B17486F898103A490B704C7109
:400B400044F202040B72A1F80F404A7448750B76354B04F180441A70262283F840204FF40172A3F8422040F20522A3F84420172283F8462083F85800442283F85A70A3F2BA
:400B80008A231A7004F2AE3495E80F0007C42380F8BDFEE74C4B0000FCFFFF478000004883580040007600404C080048A043004008760040F05100405008004810760040BD
:400BC000540800481876004058080048287600400350014024080048225100402243004000480040824000408C400040004100400F010049A14600402242004025420040BB
:400C0000044000400640004001400040CF0100496E5800400D510040FC510040085A0040285A0040C35A0040005B0040074B09221A7015221A74A3F5807376221A705D228B
:400C40005A703522DA700F22DA74704728650040072838B5044637D80123834013F09D0F1AD113F0620F2FD0364B21221A8003F50B5338333449C0221A70344854230B7027
:400C8000992580210170457001743149DC2008706FF48170014414E02A4B24221A8003F50B532949383340221A70C02060230B70C8738D2008740020C877DC2081F8200015
:400CC000E3390A70234A1370002000F0B7FCFA2000F08EFD072C34D8DFE804F02222100A04161C291720002100F020F92F2023E00B20002100F01AF917201DE003200121E4
:400D000000F014F9082010E00F20002100F00EF91F2011E00720002100F008F90F200BE00220012100F002F90520012105E00120002100F0FBF803200021BDE8384000F003
:400D40005BB938BD224200401B6500402A6500403B65004039640040064A1023136002F68832126880211065034A1170A2F541721360704780E100E004E400E0F7B586467F
:400D80000F4616461D460B4C022000237146009301933A460346207000F044FA31462A46207800F00BFA2078032100F0F3F9207803B0F0BD1281FF1F38B50B4D0B4C2B782A
:400DC00013F0020F06D100F087F92B7843F002032B7001E000F080F9237843F004032370BDE8384000F07CB9004300408243004008B500F071F9044A137843F008031370F5
:400E0000BDE8084000F06CB982430040064B1B785B075FBF054A00F00F00137803F0F0035CBF184310707047824300408143004008B50320FFF7EAFFBDE80840FFF7D8BF99
:400E400010B5054C23781BB9FFF7F2FF01232370BDE81040FFF7B0BF7481FF1F074A2023136002F688321268E0215065044A11706FF441710A441360704700BF80E100E09D
:400E800005E400E0044A137843F001031370137C43F0010313747047A2430040044A137803F0FE031370137C03F0FE0313747047A2430040F7B584468E4617461E46002448
:400EC0000A4D6146724623460094019420462C7000F0A8F939463246287800F06FF92878214600F057F9287803B0F0BD1381FF1F064A0123136002F6883212688021106407
:400F0000034A1170A2F540721360704780E100E000E400E0014B01221A60704700E100E0014B01221A60704780E100E0F0B52C4D2C4E2F78348807F00707A4B2A0424DD0D4
:400F4000294B1A78D2B26FB934B158B92B7843F040032B703080F0BD30802B7803F0BF032B70F0BD02F0020202F0FF060AB31F4F1F4A00254FF0020E157087F800E03D71E1
:400F800017F8085C05F07F0507F8085C144D2D782D0700D568B9174D2C8007241470147814F00104FBD11A7802F0FD021A70104A14701B780C4A9C070BD50E4B0029188021
:400FC00014BF03220122013B1A701A78D207FCD4F0BD044B1880137833431370F0BD00BF8640004084400040A2430040104000400140004002400040F0B52C4D2C4E2F7850
:40100000348807F00707A4B2A0424DD0294B1A78D2B26FB934B158B92B7843F040032B703080F0BD30802B7803F0BF032B70F0BD02F0040202F0FF060AB31F4F1F4A0025E9
:401040004FF0040E157087F800E03D7117F8085C05F07F0507F8085C144D2D782D0700D568B9174D2C8007241470147814F00104FBD11A7802F0FB021A70104A14701B7872
:401080000C4A5C070BD50E4B0029188014BF03220122013B1A701A78D207FCD4F0BD044B1880137833431370F0BD00BF8A40004088400040A2430040104000400140004095
:4010C00002400040000000000230800803D000BF01380046FCD17047EFF3108072B6704780F31088704700BF074A7F23802113705170064A013BDBB202F80839002BF9D12C
:40110000034A1370704700BF1481FF1FF87B00400078004017280FD8084B0001C25C11B142F0200201E002F0DF02C254C25C42F00102C254002070470120704710700040FB
:4011400017289FBF074B0001C25C02F0FE029FBFC254C25C02F0DF02C25494BF00200120704700BF1070004017289FBF084900010B461B189FBF1A7942F004021A71435C64
:401180009DBF43F00103435400200120704700BF1070004017289FBF074A0001835C01F007019FBF03F0F10343EA41018154002088BF0120704700BF1070004041F6FF73D7
:4011C000994208BF4FF400519A4208BF4FF4005217289FBFC00000F1804000F5EC4081809ABFC280002001207047000017289FBF034B00011954002088BF0120704700BF67
:401200001970004017289FBF054B00011A5C01F007019DBF1143195400200120704700BF14700040172810B51AD8C00001F07F0100F1804441EAC21204F5EC44D2B22270D6
:401240009DF8082003F00F0343EA0213DBB263709DF80C30002003F00F03A370E07010BD012010BD10B5FFF737FF0B4A5378182B81BF147803F1FF335370E30083BF03F1D4
:40128000804303F5F0431B78FF2488BF1370FFF727FF204610BD00BF1481FF1F030610B5044611D4FFF718FF084AE300117803F1804303F5F0431970537814700133537086
:4012C000BDE81040FFF70CBF10BD00BF1481FF1F30B504060CD411F4704509D1C40004F1804404F5F0442180A270E370284630BD012030BD03065FBFC00000F1804000F5F0
:40130000F04081805ABFC2800020012070470000204B1A78510703D11F4A1278D20731D41B7803F00703012B05D11C4B1B7813F0010327D100E0002308282AD8DFE800F0B8
:401340000507090B0D0F11291600154B0AE0154B08E0154B06E0154B04E0154B02E0154B00E0154B1B78154ADBB209E0144A13491278D2B20A7063B1124A137843F0020306
:40138000137070470F4A137803F0FD0313700123D2E7704793430040A5430040B543004008010049090100490A0100490B010049890100490C0100490D010049A14600409A
:4013C0000F010049096000400B4A137803F0F00313700A4B00221A70094A137843F080031370084BC2B21A70000A074A5870137843F00103137070471440004010400040F6
:40140000084000400240004001400040024A137803F0FE03137070472042004002289FBF4FF04022137803F0FC03184398BF107070470000044A137803F0EF031370137C1B
:4014400003F0EF0313747047A0430040012808D014D3022817D14FF04022137803F0BF0304E04FF04022137843F04003137092F8003243F0200382F800327047024A1378F6
:4014800003F0DF031370704700420040024A137843F010031370704700420040024A137803F0EF031370704700420040F8B5314C08282578064605F0070514BF07460327BC
:4014C000062D08D8DFE805F00607040A07070700032500E00225AF4204D300E000253046FFF716FF082E36D8DFE806F0050B11151B2127352E00237803F0B80343F00303F1
:4015000020E0237803F0B80343F001031AE0237803F0B80316E0237803F0B80343F0020310E0237803F0B80343F004030AE0237803F0B80343F0050304E0237803F0B80363
:4015400043F0060323700BE0237803F0B80343F04203237001E0082E02D1FFF797FF01E0FFF79CFFAF4204D23046BDE8F840FFF7CFBEF8BD00420040044A00F003001378D5
:4015800003F0FC0303431370704700BF05400040014B1870704700BF04400040F8B50446FFF79AFD164B07461A78013B1B78D2B2DBB214B153EA02231AD1124B124E1D789F
:4015C000EDB2062D9CBF07221A703CB93378204643F040033370FFF7F7FE06E02046FFF7F3FE337803F0BF033370064B1D7002E02046FFF7E9FE3846BDE8F840FFF770BD4A
:40160000074000400440004008400040024A137843F002031370704700430040024A137843F004031370704700430040024A137803F0FB0313707047004300402DE9F041B1
:40164000184A137843F00103137038B3164B174C18201D78264693F88080277800F026FD05F00405EDB25FFA88F8FFB2012000F005FD10F0010008D10D4B1A78D207F5D5FD
:401680001B78DB07F2D5044600E010240DB9FFF7CDFF084B83F80080377000E004462046BDE8F0812042004000430040824300402542004080430040F8B5124A137843F0D2
:4016C00010031370137C43F010031374C0B10E4B0E4D1C7893F880702E7804F004040020E4B2FFB2F6B200F0E1FC012000F0C6FCC307FAD50CB9FFF799FF054B1F702E700A
:40170000F8BD00BFA04300400043004082430040804300402DE9F743234D8DF806002B7843F001032B70002839D0204B204E93F8009093F88080377818205FFA89F95FFAFC
:4017400088F8FFB200F0B2FC9DF80630E3B12B7804238DF807309DF8073003F0FF044BB1012000F08BFCC207FAD59DF80730013BDBB2EEE72B781B0607D59DF80630013BB6
:40178000DBB28DF80630DFE7102419F0040F01D1FFF74CFF074B83F80080377000E00446204603B0BDE8F08310420040004300408243004080430040024A137803F0FE0381
:4017C000137070471042004010B50446B4F5004F064B05D91868FFF777FCA4F50044F5E758686043BDE81040FFF76EBC1C81FF1F024B1B7A5843FFF767BC00BF1C81FF1F02
:401800000C4A08B1D06001E00B4BD360D3680B4803F5742101F23F21B1FBF0F103F2E73311724FF47A71B3FBF1F35360DB031360704700BF1C81FF1F40A5AE0240420F0057
:401840000E4B00F003001A78490102F0FC0202431A701A7801F0600142F080021A701A7802F07F021A701A7802F09F020A431A701A7842F010021A70704700BF83430040F8
:40188000014B01221A70704784430040054A00F01F00126800F1100352F8230042F82310704700BF08ED00E000F01F0000F16040490100F56440C9B201707047134B144A8E
:4018C0001B78DBB20360127843EA0223114A0360127843EA0243104A0360127843EA026303600E4B0E4A1B78DBB24360127843EA02230C4A4360127843EA02430A4A436057
:40190000127843EA02634360704700BF0301004904010049EC46004002010049010100490001004905010049060100492DE9F04FDFF8A0B1504B9BF80020DFF89CA15A723A
:401940009AF80020DFF894919A724C4ADFF890811278DFF890C1DA72494ADFF88CE11278484F1A73484A494E1278494D5A73494A494C127849489A73494A4049127801316E
:40198000DA73484A12781A74474A12785A74474A12789A74464A1278DA74464A12781A75454A12785A75454A12789A75444A1278DA75444A12781A76434A12785A76434A7A
:4019C00012789A7699F80020DA7698F800201A779CF800205A779EF800209A773A78DA77327883F820202A7883F82120227883F82220027883F82320354A127883F82420A2
:401A000000228BF800208AF8002001F8012C0A708A700A718A710A738A73CA730A748A740A758A750A778A77CA7781F8202089F8002088F800208CF800208EF800203A70CD
:401A400032702A702270027081F836201E31A1F5B8510A7802F0080202F0FF0042B1012283F82E200B7803F0F7030B70BDE8F08F83F82E00BDE8F08F7681FF1F035A00408D
:401A8000045A0040325A0040065A0040335A0040345A0040085A0040365A0040385A00400A5A0040105A0040125A0040135A0040145A0040165A0040185A00401A5A0040D2
:401AC000205A0040225A0040235A0040245A00403A5A0040005A0040025A0040265A0040285A00402A5A0040305A00402D4B2E4A597A183202F8181C997A02F8161CD97A0E
:401B000002F8151C197B02F8141C597B02F8121C997B02F8101CD97B02F80E1C197C02F8081C597C02F8061C997C02F8051CD97C02F8041C197D02F8021C597D1170997DB0
:401B40009170D97D1172197E9172597ED172997E1173D97E9173197F1174597F9174997F1176D97F917693F82010D17693F82110117793F82210917793F8231082F8201076
:401B800093F8241082F8221093F82E302232012B01BFA2F5B852183A137843F0080308BF137070477681FF1F005A004010B56A4A6A4C1378372003F00F0384F83030684B80
:401BC000197884F83110117801F0F00111701A7800221A7003F25E431B7803F0C00384F8353002F027FF5F4B1A7802F0070284F833201A7802F0400284F834201B7803F073
:401C0000100303F0FF021BB1012384F8393001E084F83920544B1B7803F00303012B84F8323010D14FF040231B7803F00303012B06D003D3022B06D1032002E0002000E0ED
:401C40000220FFF799FC494B1B7813F0010305D0012384F83E30FFF7D9FB01E084F83E300420FFF723FC424B1B7803F0100303F0FF001BB1012384F8363006E084F8360056
:401C8000FFF71AFD0620FFF7B3FD364B1B7803F0200303F0FF026BB14FF040231B78002013F0400F0CBF0223012384F83730FFF7CDFB01E084F837204FF04022137803F0E2
:401CC000300384F838301BB1137803F0CF031370244B1B78DB0601D5FFF7E0FB254B1B78DBB284F83A3013B10020FFF751FC94F8323013B10020FFF73FFC1F4B1B781A02EB
:401D00001E4BA2871B781343A38713B10020FFF745FC144B1A4A1B7803F00703D05C02F089FE184B1B7813F0010305D0012384F83F30FFF741FD01E084F83F30124B1B781A
:401D400003F0040303F0FF021BB1012384F8403010BD84F8402010BDA14300407681FF1FA2430040004200400540004020420040A043004004400040074000400640004068
:401D8000884B0000104200400B400040F7B5774E774C334653F8070F9A889B7900908DF8063094F84030ADF80420012B0DD1714B4B201B7803F00703F35C5843FFF784F9C1
:401DC0006D4A137843F00403137094F83F30012B08D0372002F02EFE94F83230023B012B25D817E00020FFF795FC644B05251F461A78604BC8201B7803F00703F35C5843A1
:401E0000FFF762F93B781B06E3D5013DADB2002DEFD1DEE75A4B564A1B7892F83A00834201D0FFF7B5FB94F83200FFF7A5FB94F8343058060CD54E4B02AA93F83330134491
:401E400013F8083C032B03D10820FFF72FFB13E094F8333002AA134413F8080CFFF726FB94F8343013F0400F424B1A7814BF42F0400202F0BF021A7094F83630012B08D1D2
:401E8000404B1B7803F0100303F0FF000BB9FFF713FC94F83700FFF7D9FA94F83930012B01D1FFF7F3FA4FF04022117894F8383001F030018B421FBF117801F0CF010B435E
:401EC000137094F83E30012B04D094F83230012B26D818E00020FFF7B1FB5020FFF788FC294BAB251E461A780120FFF781FC3378D90703D5244B1B78DA07E6D4013DADB23E
:401F0000002DF1D1E1E71E4B194A1B7892F83A00834201D0FFF73CFB94F83200FFF72CFB94F836302BB9174B1B78DB0601D5FFF781FA164BA08F1A78013B1B7843EA0223F3
:401F4000984201D0FFF72AFB11490B7803F03F0294F8353013430B7094F830200D4B1A7094F831205A7003B0F0BD00BF884B00007681FF1F004200400B40004010420040BD
:401F800004400040A0430040254200400740004000480040A14300402DE9F0470F46FFF79BF8304A80461378914603F0080303F0FF0A002B52D192F8F0322B4C03F01F0353
:401FC00082F8F032FFF7B2FC284A294E1378294D2371C7F3071313703378637107F00F0333702B78C7F30037A371234B2F701978174611F0070F03D1012384F82D300AE02C
:4020000084F82DA01A7802F0070284F82C201A7802F0F8021A7099F8003003F0F80343F0030389F8003099F8003000BF00BF30BF94F82D30012B08D00F490B7803F0F8027E
:40204000094B93F82C3013430B70FFF74FFD404623793B7063793370A3792B70BDE8F047FFF73EB8934300407681FF1F98430040994300409A4300400042004038B505460E
:40208000FFF72AF8074A084B1C7892F842301C4324EA050582F84250FFF722F804F0070038BD00BF7681FF1F9043004038B5114C0546237803F0FD032370FFF7AFFA23787A
:4020C00013F0010F0C4B0CD01A78AA4211D0227802F0FE0222701D70237843F00103237038BD1978A94218BF1D70237843F00103237038BD8243004080430040F8B5FEF752
:40210000EBFF444A01271378022643F001031370137C414C43F001031374404B02F5E3521F700B3203F8946C1378054603F07F0313700020FFF75CFB2378394A03F0F903F2
:4021400023701378384603F0DF03137023783B432370FFF74DFB2820FFF74AFB314B30461A7802F07F021A701A7802F0BF021A70237833432370FFF73BFB23782A4A43F09C
:40218000040323700023137053702849FF225A5427495A540133092BF7D12846FEF7A0FF17200721FFF780FB22491720FFF76EFB18200721FFF778FB1F491820FFF766FBFB
:4021C00015200721FFF770FB1C491520FFF75EFB02200721FFF768FB19490220FFF756FB03200721FFF760FB16490320FFF74EFB16200021FFF758FB13491620FFF746FB04
:402200000C200721FFF750FBBDE8F8400C200F49FFF73CBBA5430040944300409D60004012600040F8510040846000408A8AFF1F818AFF1F2B2C00006D2A0000292C000042
:40224000AD2B0000E92B0000312C0000412D000010B50C46224B234A187000231370224A22211370214A22481370224A1370224A1370224A1370224A1370224B4FF4000290
:402280001A604FF080721A604FF400121A6004221A6008221A601C4A11704FF480021A601A4B50221A7001F025FA01F015FA01F03BFA174B1CB91A7802F0FE0202E01A78FA
:4022C00042F001021A70134B03221A70802203F8202C0120FEF7F8FE0F4B04221A7010BDC48AFF1FCA8AFF1FC88AFF1FC98AFF1FC52C0000C58AFF1FB48AFF1FC78AFF1F5E
:40230000408BFF1F00E100E09E6000409C60004009600040286000401260004070B5074C064623780D461BB9FFF7E8FE0123237030462946BDE87040FFF78ABFBA81FF1F6B
:402340000A4A002313700A4A13700A4A13700A4A13700A4A13700A4A13700A4A13700A4B03221A70802203F8202C7047CA8AFF1FC88AFF1FC98AFF1FC58AFF1FB48AFF1F99
:40238000C78AFF1F408BFF1F28600040044B1878C0B200F0FB021A70C0F38000704700BF09600040014B1878704700BFC98AFF1F044B1A7802F0FF001AB118780022C0B25F
:4023C0001A707047C88AFF1F014B185C704700BFB68AFF1F164A10B50C2303FB00231B79090C13F0800F19BF8AB24FF480438BB24FF480420228044608D006280CD12020F5
:40240000012101F027F90B4B987105E02020012101F002F9074B9870631E072B07D8FEF721FF054B1855FEF71DFF044B185510BDD48AFF1F5C8AFF1F8A8AFF1F818AFF1FA4
:40244000082870B5054694BF044601240D4E335DFF2B08D00C4B185DFEF772FE305DFEF71DFFFF233355094E305DFF2803D0FEF715FFFF2333550134E4B2092C01D0092DFC
:40248000E4D070BD8A8AFF1F5C8AFF1F818AFF1F10B5194A194C135CDB0003F1804303F5F043A1B9164931F81010203989B21980135C54F82010DB0003F18043203103F52E
:4024C000F04389B299800F4B012119540CE002211980135C54F82010DB0003F180431E3103F5F04389B29980074B125C195C074B09015A5410BD00BF8A8AFF1F388AFF1F9C
:40250000668AFF1F788AFF1F5C8AFF1F19700040431E072B2DE9F04704468846174600F299804D4B0C2202FB0032D2784B4DDFF82C9142EA172206017255B144FAB2484D6C
:4025400089F801202A5C9A46FF2A01D1FFF742FFB8F1000F40D0DFF82891DFF81CA119F80400FEF7EDFD3F4B202F23F814703E4B394643F8248028BF20211AF80420112350
:40258000285DFEF7A5FE06F5C0421FFA88F1285D7832FEF7AFFE1AF80400344B01211B5D0246FEF795FE324906F5C04289B270321AF80400FEF79EFE19F80400FEF7D4FDC8
:4025C000295D19F80400FEF711FE19F804000121BDE8F047FEF79EBD0C2202FB04A383F801809FB31F4B23F81470224B03F80480DFF88C8018F80400FEF7A2FD1E4B202F81
:4026000039461A5D28BF20211123285DFEF760FE154B06F5C04233F824107832285DFEF769FE18F80400FEF79FFD144F295D18F80400FEF7DBFD18F804000121FEF76AFD28
:40264000F35D43F00103F355BDE8F0875B79DBB289F80230BDE8F087D48AFF1FFC5F00408A8AFF1F668AFF1F388AFF1F964B00002C81FF1F788AFF1F818AFF1F7060004003
:402680005C8AFF1F10B53D490878CB780A790C7800F003002406DBB202F07F0245D502280DD14978812967D1012B65D1344903230B80344B02EB42021A444A6019E00128B5
:4026C0005AD14A78D2B2832A23D004D8812A0AD0822A18D050E0842A21D0FF2A4CD1284B00221A8044E0012B07D1254A1380264B5360BDE8104000F00FBA022B3CD1204AF0
:402700001380224BF4E7022B36D11D4A1380204BEEE7022B30D11A4A13801E4BE8E7022B2AD1174A13801C4BE2E702280FD14978012921D1012B1FD1114903230B80114B3D
:4027400002EB420003444B60144B1A7010E0012812D14A78012A0FD1012B03D1084A1380094B04E0022B07D1054A1380074B5360BDE8104000F0F6B9002010BD006000405C
:40278000B88AFF1F958AFF1FB18AFF1F938AFF1F2D81FF1F2F81FF1F3181FF1FB08AFF1F30B51A4A1A490878138803449BB213800023184AD8B21488A4B284B1082B0DD0F2
:4027C0005068154C0078C0B2E05450680133013050601088013880B21080EAE718460B780E4C082B0E4A00D040B10E4D2B7883F080032B700F232370022301E002232370D8
:402800001370094B1870087030BD00BF448BFF1F408BFF1FB88AFF1F00600040B58AFF1FCA8AFF1FC68AFF1F418BFF1F074B02221A70074B80221A70064B0F221A70064A3E
:4028400000231370054A012013707047CA8AFF1FC68AFF1FB58AFF1F408BFF1F418BFF1F10B5164B16491B780A8803F00F03023BDBB21A4492B20A800020124A118889B203
:4028800081B17BB110495468095C013BC9B221705168DBB20131516011880130013989B21180EAE7094A1370094A137883F080031370084B0B221A7010BD00BF29600040A2
:4028C000448BFF1FB88AFF1F00600040418BFF1FC68AFF1FB58AFF1F064A06231370064A01201370054B80221A70054B00221A70704700BFCA8AFF1FB58AFF1FC68AFF1F1B
:40290000418BFF1F054B9A683AB19A68044910709A680988518000229A607047B88AFF1F448BFF1F08B5124B1A78D2B21A701B78DBB21A0602D50F4A137008BD0220FFF793
:40294000E1FF0D4B1B7803F06003202B05D0402B06D043B900F01AFD04E002F0A1F801E000F048FE10B9034B03221A7008BD00BF28600040B58AFF1F0060004008B5084A2E
:40298000084B0120197813880B449BB21380064B00221A70FFF7B6FF044B03221A7008BD448BFF1F408BFF1FCA8AFF1FB58AFF1F08B50C4B1B78DBB2042B07D0062B09D0F4
:4029C000022B0DD1BDE80840FFF7D8BFBDE80840FFF746BF0320FFF795FF034B03221A7008BD00BFCA8AFF1FB58AFF1F08B5054B002201201A70FFF785FF034B03221A701C
:402A000008BD00BFCA8AFF1FB58AFF1F08B50A4B1A7832B11A78094942F080020A7000221A70074B002201201A70FFF76BFF054B03221A7008BD00BFB48AFF1F08600040F8
:402A4000CA8AFF1FB58AFF1F074B1B78DBB2042B05D0062B05D0022B05D1FFF7A1BEFFF7C5BFFFF7D3BF7047CA8AFF1F10B51D4C2378DBB2DA0634D518060AD503F00F0347
:402A8000012B2ED1FFF74EFF174B1B78190609D510BD5A0602D5FFF7D7FF03E09B0620D5FFF786FF23781B061BD4104B104A1B78127813430F4A13701278934211D10A4AAE
:402AC000084913782078DBB200065FBF1378DBB20B700B78127858BF03F00F039342EED110BD10BD28600040B58AFF1FC68AFF1F418BFF1F29600040054A00231380054A2D
:402B0000916819B191680B7092685380704700BF448BFF1FB88AFF1F10B50E4C23889BB213B9FFF783FE13E00B4B02221A700B4B00221A70FFF7E0FF094AD1799379228853
:402B400043EA012392B29A4288BF2380FFF728FE012010BDB88AFF1FCA8AFF1FC68AFF1F0060004008B50C4B04221A700B4B80221A70FFF7C1FF0A4A0120D179937943EA1C
:402B8000012308490A8892B29A4288BF0B80064B0B221A7008BD00BFCA8AFF1FC68AFF1F00600040B88AFF1FB58AFF1F08B5FDF71BFC0A4A137803F0FD031370084B93F858
:402BC0002230084B1A7E02F00302012A1EBFDA7E82F08002DA7601225A7608BD0B600040FC5F0040D48AFF1F0C4A137803F0DF0313700B4B93F862300A4B93F8482002F09D
:402C00000302012A1EBF93F84B2082F0800283F84B20012283F84920704700BF0B600040FC5F0040D48AFF1F7047FFF789BB00002DE9F8431D4B01241E78F6B2002E32D03B
:402C4000F2072CD51A4D4FEA04184544AB786F781F40FB0722D5174B0C2202FB04321279994612F0800F19D02A78134B02F0FE022A7033F8142092B2202A04D9204600212F
:402C8000FFF706FC02E00D4B01221A550C2202FB04935A790A4BD2B203F80820AF700134E4B27608CAE7BDE8F88300BF9F60004070600040D48AFF1F668AFF1F788AFF1FCE
:402CC000FE5F00402DE9F04100F000FD00F07F0700F024FD012400F00308B8F1000F29D06501023DEDB2E7B1FA0714D5124E23011E44B378DB070ED4104B1B5D03F0FF0249
:402D00004BB97271204635710121FFF7C1FB337843F0010333700134E4B2C7F347072035E0E7C8F34708B8F1000F1CBF01270824B846D2E7BDE8F08170600040788AFF1F6A
:402D400000F062BC08B5054B1B782BB100F00CF9BDE8084000F04CB908BD00BFC98AFF1F2DE9F041FEF7B8F9DFF8C480074698F80030294D13F0800F3DD0012609202E70E5
:402D8000FFF75EFB254A264C1378002003F07F031370FEF72DFD2378002003F0F903237098F8003003F07F0388F80030FEF720FD1C4B30461A7832406A701A7802F0FE02AE
:402DC0001A70FEF715FD2378174A03F0FE0323701378304643F020031370A2F5E3520D3A137803F0FE031370137C03F0FE031374FEF7FEFC01E000232B703846FEF770F95C
:402E000000F002FC094A4FF480531360A2F5C0721360BDE8F08100BFBB81FF1F1060004094430040096000401260004080E200E00860004070B5FEF74FF9274E0546337884
:402E4000002B44D0254B4FF480521A60244A254C1378282043F001031370137C43F00103137402F5E7521832137843F001031370237843F001032370FEF7BAFC1A4A73783D
:402E8000117800200B431370FEF7B2FC2378022043F002032370FEF7ABFC2378222243F004032370114B01201A70502203F8022C032203F8762C0E4A137843F080031370A5
:402EC000FEF702F90B4B04221A70FFF73BFF2846BDE87040FEF704B9BB81FF1F80E100E0A543004094430040096000409E600040086000401260004070B50446194B88B011
:402F000003AA03F11006154618685968083303C5B3422A46F7D11B782B7004B32223237001AD032328466370FEF7C8FC20460022AB5C08A901EB131108AC03F00F0311F871
:402F4000141C234413F8143C01328170082A4FF00001C1700371417100F10400E8D108B070BD00BF9F4B000000231846F0B55C1C1B4A260132440C251D211570517019497F
:402F8000194A05FB04114F79324467B1097909065FBF0821917001229A4056BF40EA02039570D8B201E080239370082C2346DED10E4B55221A70202283F83020002283F8C3
:402FC000312022229A70D8701A7C42F080021A741A7C02F07F021A74FF2203F8822CF0BD70600040D48AFF1FFC5F00408C600040012207490C2303FB021319790132090628
:403000004CBF01210021092A5970F2D1704700BFD48AFF1F064B074A1B7802EBC30253681A7C824286BF03EBC003586900207047C48AFF1FB04B0000F8B5384B1A78002AB4
:403040006BD018780138C0B2FFF7E4FF344AC3681178057AC9B203EBC505AB425DD01A788A4258D12F4A5878525C904253D19C78DFF8C0E004F07F060C24744300270EEB84
:403080000402D878D77093F802C000F0030082F804C093F803C00EF804C09C88148193F90240BC4207DA01280CBF07200D2050710120507005E001280CBF052009205071A5
:4030C0005770194A300101241454723202441078741E164E00F0FE00107030466200D2B23270327842F0010232700278D206FCD593F902200E48002A07784FF0010202FA85
:4031000004F2AABF3A4327EA0202D2B20270327802F0FE02327008339FE7F8BDC98AFF1FC58AFF1FB68AFF1FFE5F0040146000408F600040D48AFF1F08B5064B18780138E5
:40314000C0B2FFF767FF20B143681B7900EBC300406908BDC98AFF1FF8B500210C254D43414C013100236219092963559370D3701381937253705371F0D128B13B493C4A04
:403180000B7013704B7053703A4B1A78002A69D018780138C0B2FFF73DFF43680121DB7913F0400F344B1A7814BF42F0010202F0FE021A70027AD200C36803EB020C634587
:4031C00033D09F7807F07F05A9422CD10C2505FB01452E89B3F804E0B6B2764538BFA5F808E0224E1D78755D5E78AE421BD10C264E43A5192F71DF78A755DE7893F90230E5
:4032000006F00306002B06DA012E0CBF07230D236B71012305E0012E0CBF052309236B7100236B7001E00833C9E701310929C3D1C3680A32991C1A44083191420AD011F8F6
:40324000083C0C2503F07F0305FB034311F80A0C9872F1E7FFF770FF084B1860BDE8F840FFF782BEF8BD00BFD48AFF1FB68AFF1F428BFF1FC98AFF1FC78AFF1FD08AFF1F49
:40328000114B1B7903F07F035A1E072A19D80F490C2202FB031291781B0141F0010191700021D170517841F002015170127912F0800F074A1A4414BF8D2389239370FFF70B
:4032C0000BBB0020704700BF00600040D48AFF1FFC5F004030B5184B1A7902F07F02531E072B26D8154B0C2000FB02339978144C01F0FE0199700021D970120110497F252C
:40330000155511445A7802F0FD025A701A795B78120605D5012B01D1887006E00D2303E0012B0CBF082309238B70BDE83040FFF7D3BA002030BD00BF00600040D48AFF1F31
:40334000FC5F004038B50D4B0D4D2C791878E4B20138C0B2FFF75EFE43681B79A34201D2022C09D8074A0849135D0120DBB20B55AB78DBB2135538BD002038BDC98AFF1F92
:4033800000600040B68AFF1F428BFF1F38B5884A884C13780021DBB221801806517840F188800A2900F20181DFE811F05800FF00FF00FF00FF00FF000B00FF007900FF0053
:4033C0007D00D2787A4B012A09D17B4B1A787B4B03EBC2035B685B686360122310E0DA78022A12D19878FFF715FE002800F0DD80436863606368DA7863689B7843EA022353
:403400002380BDE83840FFF787BBDB78032B21D16B4B0021664AC8B29578854202D892783AB910E0187801310028F8D01A781344F0E75F4A63499278097C914203D16248DE
:40344000FFF75AFD604B1A78002A00F0AE801A78228018E0BDE8384001F022BB13F0030313D0022B40F0A1802380514B0C211B7903F07F02554B01FB02339A78544BD2B27F
:403480001A7000225A706360BBE702222280514A11784F4AC9B2117053706260B1E7012323804D4BEFE70123238013794B4A1344E9E701390A2978D8DFE801F037774F7768
:4034C000067777770A7720009378454ADBB25AE0937803F0FF0453B93F4B1A78944260D01C70404B01201870FFF736FE59E0601EC0B2FFF78FFD0028EED156E0FFF722FF67
:40350000002852D02A4A384913791279DBB2D2B20A70364A3149D25CCB5C9A4241D0314B01221A70FFF788FD3BE003F00303012B2BD009D3022B38D11D4B9B78002B34D1D2
:40354000BDE83840FFF7C6BE194B9B78012B2CD1204A137803F0FD0315E003F00303012B13D008D3022B20D1114B9B78EBB9BDE83840FFF785BE0E4B9B78012B15D1154AF0
:40358000137843F0020313700BE0094B1A79012A0BD898781B791649DBB2CA5C22EA0002CA54BDE83840FFF797B9002038BD00BF00600040B88AFF1FC48AFF1FB04B000065
:4035C0000C4C0000714E0000508BFF1FD48AFF1FBD81FF1FC78AFF1FC98AFF1FB68AFF1FB48AFF1FC88AFF1FC58AFF1F428BFF1FCB8AFF1F034B00201A78120648BF5B781C
:40360000704700BF00600040024B1878C0F38010704700BF8F450040F7B586460F4616461D460B4C012000237146009301933A4603462070FDF7F6FD31462A462078FDF712
:40364000BDFD20780221FDF7A5FD207803B0F0BD3381FF1FF7B586460F4616461D460B4C052000237146009301933A4603462070FDF7D8FD31462A462078FDF79FFD2078A3
:403680000221FDF787FD207803B0F0BD3481FF1FF7B586460F4616461D460B4C032000237146009301933A4603462070FDF7BAFD31462A462078FDF781FD20780221FDF7F9
:4036C00069FD207803B0F0BD3581FF1F014B1878704700BF6964004008B5FDF7FDFC044A137843F010031370BDE80840FDF7F8BC99640040074A0223136002F68832126806
:40370000E0215064044A11706FF440710A441360704700BF80E100E001E400E0014B1878704700BF6B64004008B5FDF7D5FC044A137843F010031370BDE80840FDF7D0BCC2
:403740009B6400402DE9F041184D80462C7804F00804E4B230B92CB3154A137843F0100313701FE024B9134A137843F01003137007270026B8F1000F01D10D4A00E00D4AEA
:4037800013780A200133DBB21370FEF731F82B7803F00803A34207D10136F3B2BB42E9D3BDE8F0810F27E4E7BDE8F081965B00403646004037460040044A137843F0080311
:4037C0001370137C43F0080313747047A7430040044A137803F0F7031370137C03F0F70313747047A74300400F4A00F003011378012803F0FC0343EA010313700BBF0B4B1D
:403800000B4B1B781B780B490BBFDBB2DBB20B700B700CBF084B094BA2F590521B780C3ADBB21370704700BF4358004013010049B30100493646004017010049BB0100493D
:4038400008B50120FFF7D0FF0C4B1A7802F0DF021A701A7802F0FB021A701A7842F008021A7093F89C2202F0E70283F89C2293F89C2242F0100283F89C2208BD4358004039
:4038800010B5054C23781BB9FFF7DAFF01232370BDE81040FFF790BFBF81FF1F2DE9F04F214A224E224D96F800A095F8009092F8008000235FFA88F81E4C08F0F601337079
:4038C0002B70117094F800B021781B4F41F0300121701A4985B00B703B7020785FFA8AFA00F0030001285FFA89F95FFA8BFB0192029104D001200393FFF724FF039B1846AB
:40390000FFF720FF84F800B086F800A085F80090019B83F80080029B38781B7843EA002005B0BDE8F08F00BFDB5A0040D85A0040DA5A004043580040374600403646004010
:40394000084A137843F001031370137C43F00103137402F5A6520E32137843F080031370704700BFA9430040044A137803F0FE031370137C03F0FE0313747047A943004091
:40398000044A00F00300137803F0FC0318431070704700BF01580040074B0E221A7018225A7081229A70054A0320137843F008031370FFF7E5BF00BF005800400B5A00404E
:4039C00010B5054C23781BB9FFF7E6FF01232370BDE81040FFF7B4BFC081FF1F084A137843F008031370137C43F00803137402F5A6520E32137843F080031370704700BF98
:403A0000A9430040044A137803F0F7031370137C03F0F70313747047A9430040044A00F00300137803F0FC0318431070704700BF0D580040074B0E221A7018225A708122C4
:403A40009A70054A0320137843F008031370FFF7E5BF00BF0C5800403B5A004010B5054C23781BB9FFF7E6FF01232370BDE81040FFF7B4BFC181FF1F2DE9F041184D804665
:403A80002C7804F00204E4B230B92CB3154A137843F0100313701FE024B9134A137843F01003137007270026B8F1000F01D10D4A00E00D4A13780A200133DBB21370FDF771
:403AC00097FE2B7803F00203A34207D10136F3B2BB42E9D3BDE8F0810F27E4E7BDE8F081965B00403246004033460040044A137843F002031370137C43F0020313747047DC
:403B0000A7430040044A137803F0FD031370137C03F0FD0313747047A74300400F4A00F003011378012803F0FC0343EA010313700BBF0B4B0B4B1B781B780B490BBFDBB234
:403B4000DBB20B700B700CBF084B094BA2F590521B780E3ADBB21370704700BF4158004011010049AF0100493246004015010049B701004908B50120FFF7D0FF0C4B1A78A5
:403B800002F0DF021A701A7802F0FB021A701A7842F008021A7093F88E2202F0E70283F88E2293F88E2242F0100283F88E2208BD4158004010B5054C23781BB9FFF7DAFF68
:403BC00001232370BDE81040FFF790BFC281FF1F2DE9F04F214A224E224D96F800A095F8009092F8008000235FFA88F81E4C08F0F60133702B70117094F800B021781B4F2C
:403C000041F0300121701A4985B00B703B7020785FFA8AFA00F0030001285FFA89F95FFA8BFB0192029104D001200393FFF724FF039B1846FFF720FF84F800B086F800A063
:403C400085F80090019B83F80080029B38781B7843EA002005B0BDE8F08F00BFCB5A0040C85A0040CA5A0040415800403346004032460040084A137843F004031370137C3D
:403C800043F00403137402F5A6520E32137843F080031370704700BFA9430040044A137803F0FB031370137C03F0FB0313747047A9430040044A00F00300137803F0FC03B9
:403CC00018431070704700BF09580040074B0E221A7018225A7081229A70054A0320137843F008031370FFF7E5BF00BF085800402B5A004010B5054C23781BB9FFF7E6FF39
:403D000001232370BDE81040FFF7B4BFC381FF1F2DE9F041184D80462C7804F0010430B92CB3164A137843F0100313701FE024B9134A137843F01003137007270026B8F1F7
:403D4000000F01D10D4A00E00D4A13780A200133DBB21370FDF74CFD2B7803F00103A34207D10136F3B2BB42E9D3BDE8F0810F27E4E7BDE8F08100BF965B004030460040DF
:403D800031460040044A137843F001031370137C43F0010313747047A7430040044A137803F0FE031370137C03F0FE0313747047A74300400F4A00F003011378012803F05C
:403DC000FC0343EA010313700BBF0B4B0B4B1B781B780B490BBFDBB2DBB20B700B700CBF084B094BA2F590521B780F3ADBB21370704700BF4058004010010049AD010049D0
:403E00003046004014010049B501004908B50120FFF7D0FF0C4B1A7802F0DF021A701A7802F0FB021A701A7842F008021A7093F8872202F0E70283F8872293F8872242F08A
:403E4000100283F8872208BD4058004010B5054C23781BB9FFF7DAFF01232370BDE81040FFF790BFC481FF1F2DE9F04F214A224E224D96F800A095F8009092F800800023B0
:403E80005FFA88F81E4C08F0F60133702B70117094F800B021781B4F41F0300121701A4985B00B703B7020785FFA8AFA00F0030001285FFA89F95FFA8BFB0192029104D0DC
:403EC00001200393FFF724FF039B1846FFF720FF84F800B086F800A085F80090019B83F80080029B38781B7843EA002005B0BDE8F08F00BFC35A0040C05A0040C25A00401B
:403F0000405800403146004030460040084A137843F060031370A2F5A652133A137843F008031370137C43F008031374704700BF77580040084B09491A7802F0F7021A7099
:403F40000A7802F0F7020A701B7823B9044A137803F09F0313707047A4430040B443004077580040054B00F003001A7802F0FC021A701A7810431870704700BF5E580040AE
:403F80000320FFF7EFBF000008B5054B1A781AB901221A70FFF7F4FFBDE80840FFF7B6BFC581FF1F084A137843F060031370A2F5A652133A137843F004031370137C43F09A
:403FC00004031374704700BF77580040084B09491A7802F0FB021A700A7802F0FB020A701B7823B9044A137803F09F0313707047A4430040B443004077580040054B00F04F
:4040000003001A7802F0FC021A701A7810431870704700BF5C5800400320FFF7EFBF000008B5054B1A781AB901221A70FFF7F4FFBDE80840FFF7B6BFC681FF1F084A137831
:4040400043F060031370A2F5A652133A137843F002031370137C43F002031374704700BF77580040084B09491A7802F0FD021A700A7802F0FD020A701B7823B9044A13784B
:4040800003F09F0313707047A4430040B443004077580040054B00F003001A7802F0FC021A701A7810431870704700BF5A5800400320FFF7EFBF000008B5054B1A781AB967
:4040C00001221A70FFF7F4FFBDE80840FFF7B6BFC781FF1F014B1870704700BF796400402DE9F041184D80462C7804F00404E4B230B92CB3154A137843F0100313701FE0E3
:4041000024B9134A137843F01003137007270026B8F1000F01D10D4A00E00D4A13780A200133DBB21370FDF763FB2B7803F00403A34207D10136F3B2BB42E9D3BDE8F08135
:404140000F27E4E7BDE8F081965B00403446004035460040044A137843F004031370137C43F0040313747047A7430040044A137803F0FB031370137C03F0FB0313747047B0
:40418000A74300400F4A00F003011378012803F0FC0343EA010313700BBF0B4B0B4B1B781B780B490BBFDBB2DBB20B700B700CBF084B094BA2F590521B780D3ADBB213708F
:4041C000704700BF4258004012010049B10100493446004016010049B901004908B50120FFF7D0FF0C4B1A7802F0DF021A701A7802F0FB021A701A7842F008021A7093F824
:40420000952202F0E70283F8952293F8952242F0100283F8952208BD4258004010B5054C23781BB9FFF7DAFF01232370BDE81040FFF790BFC881FF1F2DE9F04F214A224E87
:40424000224D96F800A095F8009092F8008000235FFA88F81E4C08F0F60133702B70117094F800B021781B4F41F0300121701A4985B00B703B7020785FFA8AFA00F003000E
:4042800001285FFA89F95FFA8BFB0192029104D001200393FFF724FF039B1846FFF720FF84F800B086F800A085F80090019B83F80080029B38781B7843EA002005B0BDE8CB
:4042C000F08F00BFD35A0040D05A0040D25A0040425800403546004034460040084A137843F002031370137C43F00203137402F5A6520E32137843F080031370704700BF9F
:40430000A9430040044A137803F0FD031370137C03F0FD0313747047A9430040044A00F00300137803F0FC0318431070704700BF05580040074B0E221A7018225A708122B7
:404340009A70054A0320137843F008031370FFF7E5BF00BF045800401B5A004010B5054C23781BB9FFF7E6FF01232370BDE81040FFF7B4BFC981FF1F084A137843F060037B
:404380001370A2F5A652133A137843F001031370137C43F001031374704700BF77580040084B09491A7802F0FE021A700A7802F0FE020A701B7823B9044A137803F09F0309
:4043C00013707047A4430040B443004077580040054B00F003001A7802F0FC021A701A7810431870704700BF585800400320FFF7EFBF000008B5054B1A781AB901221A700E
:40440000FFF7F4FFBDE80840FFF7B6BFCA81FF1F344B30222DE9F0411A7006229A700822DA7000241F221C7101255C719A7114221C725C729C721D7583F8842A042283F89E
:40444000852A182283F8862A274A83F8874A1221112313705170947015715371234B19221A7097225A70FCF737FE8046204F214E3B78442243F003033B703378032043F0F2
:40448000030333701C4B1A70FDF7B2F93B78404603F0FC033B70337803F0FC033370FCF71FFE164B58221A7005225C709A710222DA7120461C725C7200F0D0F940F29B2261
:4044C0000F4B294656201A6000F0D4F929464FF4AF7000F03FFABDE8F0411D200949FDF7D5B900BF004E00408A58004090580040F8460040F946004092580040945800407B
:40450000488BFF1F3D48000070B5244D244E00240123102033702C7000F012FA102000F07FFA1D200721FDF7BFF91E4B04221A701D4A5C701C72137843F0180313701B4B04
:404540000A221C7083F8F54283F8F642133B1A7012225C70DC701A7213225A725C731422A3F67F231A700D232B714FF400536B80337815F823200E4B1A70337805EB830357
:4045800033F8022C0B4B1A803378AC71012B03D1BDE87040FFF73CBF70BD00BFCC81FF1F3681FF1F96580040075B0040935800400E4E00400C4E004070B5FCF78DFD294B31
:4045C000294D1B78294B2A4C1A78064642F001021A701A78032042F010021A701A7C42F001021A741A7C42F010021A742B78214A43F002032B70237843F002032370137815
:4046000043F003031370FDF7F3F82B781A4A03F0FD032B702378304603F0FD032370137843F006031370154B7A221A70144A137843F001031370137C43F001031374537828
:4046400043F008035370537C43F0080353740D4A4FF000531360A2F5C0721360BDE87040FCF73EBD3681FF1FF8460040AA430040F946004091580040775800408258004039
:40468000A143004080E200E010B5064CE3792BB9237A0BB9FFF738FF0123E371BDE81040FFF78ABFCC81FF1F70B5FCF715FD314A314D1378314C03F0FE03137053780646DF
:4046C00043F0040353702B78032043F002032B70237843F00203237092F8913A03F0FC0382F8913A92F8923A03F0F70382F8923AFDF77EF82B78304603F0FD032B702378FD
:4047000003F0FD0323701E4B1A7802F0EF021A701A7802F0FE021A701A7C02F0FE021A741A7C02F0EF021A74164A137803F0F9031370A2F5A652163A137803F0FE03137022
:40474000137C03F0FE03137402F5A7520132137803F0F7031370A2F5A752137803F0F7031370137C03F0F7031374BDE87040FCF7B7BC00BF004E0040F8460040F94600407E
:40478000AA43004077580040024A137843F0010313707047004E0040024A137803F0FE0313707047004E0040074B9A7912B11B78DBB203E0054B1B7803F00103012B01D052
:4047C0000028F1D018467047CC81FF1F014E00400C4B1A78043B02F00302012A02D8188880B208E008491B780878032A43EA002004BF064B1B78064B9A790AB100221A7093
:4048000000B27047144E0040114E0040124E0040CC81FF1F10B5084A137843F004031370FFF7B2FF0020FFF7BFFFFFF7D1FF0446FFF7B2FF204610BD014E004070470000B9
:4048400008B50020FCF756F80120FCF753F8024BFF221A7008BD00BF3781FF1F10B50446FFF7EEFF2046FCF737F8014B1C7010BD3781FF1FF0B52C4D2C4E2F78348807F082
:404880000707A4B2A0424DD0294B1A78D2B26FB934B158B92B7843F040032B703080F0BD30802B7803F0BF032B70F0BD02F0080202F0FF060AB31F4F1F4A00254FF0080E8B
:4048C000157087F800E03D7117F8085C05F07F0507F8085C144D2D782D0700D568B9174D2C8007241470147814F00104FBD11A7802F0F7021A70104A14701B780C4A1C0796
:404900000BD50E4B0029188014BF03220122013B1A701A78D207FCD4F0BD044B1880137833431370F0BD00BF8E4000408C400040A24300401040004001400040024000400B
:40494000034A00F0F800137803431370704700BF8E400040F0B52C4B2C4E1F78328807F0070792B290429E464CD0294D2C78E4B26FB932B158B91A7842F040021A7030801C
:40498000F0BD30801A7802F0BF021A70F0BD14F0010422D01F4F204B00264FF0010C1E7087F800C007F8046C17F80C6C06F07F0607F80C6C9EF80060360700D568B9174E95
:4049C000328007221A701A7812F00102FBD12B7803F0FE032B70104B1A702B780C4ADD070BD50E4B0029188014BF03220122013B1A701A78D207FCD4F0BD044B18801378C6
:404A00001C431470F0BD00BF0241004000410040A1430040144000400140004002400040034A00F0F800137803431370704700BF0241004010B50446FCF74EFB0F2C06D882
:404A4000164A137803F01F0343F0400320E0202C06D8124A137803F01F0343F0800317E0312C06D80D4A137803F01F0343F0C0030EE0422C04D8094A137803F01F0307E0B3
:404A8000532C06D8054A137803F01F0343F020031370BDE81040FCF723BB00BF004800400F4A137803F00303012B0BD0022B0CD113790C2103F07F020A4B01FB02330833E8
:404AC0009B7800E01379DBB200E00023064A1268D35C012B01D1FDF7D5BD0020704700BF00600040D48AFF1FD08AFF1F0E4B70B51E460E4C0025E41AA410A54204D056F8E4
:404B0000253098470135F8E700F0BCF9084B094C1E46E41AA4100025A54204D056F8253098470135F8E770BD904E0000904E0000904E0000984E000003460244934202D06F
:404B400003F8011BFAE7704700000000035B0040244300404000105100401000405100403000C0510040100000000140001000140140000800400140000A004C0140000226
:404B800000500140200000000C061803303E4A02010300040506000004000000040000303132333435363738394142434445460001000000B84B000001000000714E0000DC
:404BC000000000000000000001000000D04B000001000000014E000002000000FA4B00000000000000000000000000000000000000000000F84B0000010100008603020032
:404C000001000101820DC000010002030403090468034F00700065006E00200053006F007500720063006500200048006100720064007700610072006500200043006F005A
:404C40007000790072006900670068007400200028006300290020003200300031003500200050006500740065007200200041006C006C0061006E001A0341007500640012
:404C800069006F0043006F006E00740072006F006C001C035A00650072006F00420061006E0064007700690064007400680016034D006900630072006F00700068006F008D
:404CC0006E006500100353007000650061006B00650072001C035500530042002000530074007200650061006D0069006E0067000E034100630074006900760065001C03A4
:404D000041006300740069007600650020003100360020006200690074001C03410063007400690076006500200032003400200062006900740008034D0061006300200392
:404D400050006C00610079006C0069007300740043006F006E00740072006F006C0044035200450044004F00550042004C00450052002000520061006E0064006F006D0094
:404D800020004E0075006D006200650072002000470065006E0065007200610074006F0072003803430044004300200043006F006D006D0075006E0069006300610074006E
:404DC00069006F006E00200049006E007400650072006600610063006500260343004400430020004400610074006100200049006E0074006500720066006100630065007E
:404E0000000902700002010A803209040000010101000C09240100011E0001010C24020401020002030000040924030501010004060905860302001E000009040100000184
:404E400002000C090401010101020008072401050101000E2402010202100244AC0080BB000905820DC000010000072501010101001201000200000008501DC9600300011B
:404E80000C800100F8B500BFF8BC08BC9E4670474D00000065080000F8B500BFF8BC08BC9E46704729000000B84E00000881FF1F30000000400A000000000000FFFF00035C
:404EC000FF01FFFF7F8000002F0000000000E457C8AF00002D00000040A5AE020C0180FF7F0100FFFFFF01FF00000000000000000000000000000000000000000000000009
:404F00000000000000000000000000000000000000000000000000000000000000000000000000000000000000000000000000000000000000000000000000000000000071
:404F40000000000000000000000000000000000000000000000000000000000000000000000000000000000000000000000000000000000000000000000000000000000031
:404F800000000000000000000000000000000000000000000000000000000000000000000000000000000000000000000000000000000000000000000000000000000000F1
:404FC00000000000000000000000000000000000000000000000000000000000000000000000000000000000000000000000000000000000000000000000000000000000B1
:020000040003F7
:0200000480007A
:400000000145004004520040045A0040026400400402014005030140030501406C0801404D090140590A0140530B0140550C0140340D014002150140011701404E1801407C
:40004000441901405A1A0140541B01400E40014012410140094201400643014004440140094501400D4601400C4701400748014010490140094C0140064D01400A50014015
:40008000035101407E02004001C019207C400B201B202B203B20897F8B0338083E0458045F011E20E205E602EA80EC01B210E208EC02020403040410050108100E101102E7
:4000C0001305140A16A5170219061A101B011E202210240526622A082C0F2ED0320E3307340336F03A804023410149FF4AFF4BFF4F015608580459045A045B045C445D943F
:400100005F01604061206240638064106610676C681069746A406BA86C106D116E406FA8800182068301860488018F0190049301960498019A02A403AE03B003B404B70189
:40014000BA02BF40C023C104C6B0C808C9FFCAFFCBFFCC0FCD0FCE03CF01D47FD604D804D904DA04DB04DC04DD94DF01E040E120E240E380E410E610E76CE810E974EA40ED
:40018000EBA8EC10ED11EE40EFA800080106030405080690070509280B800D280F021210138014021505160819221B011C081D881E021F402240260827103004310833021B
:4001C00035013604371039423E0A400241A04305452047845110582159045A40601062A06340640169409010910392409304950496809740983099099BE59C049D209E8866
:400200009F10A001A122A206A601A708AB08B020B140C0FEC2EEC4F5CCE1CEC9D077D60FD81FEC010405060A070408031308140E150116011702180B1A0423012C052E0A3E
:400240002F0232033308340C3503370439023B083E105608580459045B045C045D905F0184FD852D8750880A89018B828F109001911D932294AA96459D029E049F04A210C6
:40028000A432A572A6C5A708A94DAA01AB22AC46AE99B23FB320B43FB57FB6C0B780B828B920BE40BF04C016C103C560C602C806C9FFCAFFCBFFCF01D403D604D804D90494
:4002C000DA04DB04DC44DD94DF01E280E440E540E620E810E9500004012005280A200B080C800EA013801511178419081A201B101DA01E201F14200222022324240425043F
:4003000026C027042A022B022D082F04320233083680370138103A103B043C843D1045844D014F2054C058805F50614062186780824087408E4891129310940495059720FF
:40034000989099019A029BC19C049D289E889F10A102A204A302A440A681AB10AC80B240B310C066C2B6C4F1CA69CC93CE72D050D220D638D88EE401E880EE010020021CCF
:400380000420054A061C07210A1C0B010D10111E13011405157D160A18081A241B801C031D0120012202234024032526274129222A032F803030317F3203340C3580377F54
:4003C000380239823A285608580459045B045C445D905F018104830A840A85068670870889028B048C0A8D038E308F049501960A971C99049B029E2AA004A104A278A3020F
:40040000A40AA670A801AA78AD06B040B107B228B407B508B618B710B908BABABBA2D804D904DC99DF01004003200501060807100A210E2A122813011404150416801848E5
:400440001A211B611D031E281F0121112228234127852B412D212F113218350836803711380839203B413C843D103F206640830684109A029B40AB40B202C075C2E5C47EBC
:40048000CAF9CCF6CE7FD810E204E602EA80E402E601EA0E021F034105100615070708010A100B410E110F4511081211130315411603170619201A011B071E011F47220104
:4004C00024012610274729412A0A2B062D802E112F07300432093304341135F8360337033AAA3BB03F0440464704483049FF4AFF4BFF4DA04F01580459045A045D045F016C
:40050000604061A864406520664067208208870188018A028E019204A602B003B301B404B608BA0CD608D804D904DB04DD90DF01000202010308056107200A400C010E1947
:40054000101015401715180419801A401B081C801E191F102204254027152C012D242F1535413602372438043D803E153F084008420445024E08560A5B40600261148010F4
:400580008C028D108EA09120930498109A019B609D049E8AA005A18AA20BA6A0A70AAA01C0FBC2F8C4F4CA70CCF0CEF2D080D220D608D80EE004EA0E020106010802120188
:4005C000170126012F0230013202350137023E0440634105440249FF4AFF4BFF4C0A4F01580959045A045B045D045F016240636C64406584681069118001827A8402867C94
:40060000880E8A508C028E0C9002925C930794029505960C980599069A029C029D039E0CA002A20CA402A60CA802AA7CAC0EAE10B020B107B240B407B618B902BAAAC06341
:40064000C101C402C601C804C9FFCAFFCBFFCC0FCD0FCE0BCF01D804D904DA04DD04DF01E240E36CE440E584E810E911000602800308054107240A400B400C010E1513047C
:40068000140815041602170118201B021D401E0C1F05225027402980320434083501360237603A043B04411842084588460848044A014B104F10568059025AA05B0860045E
:4006C000628463407A0483408502860489808A028B0C90049124925993049420970A980999809B259D409E80A005A188A203A308A702AB08B040B204B540B704C0FEC2F816
:40070000C4F4CA08CCF2D076D22CD60FD80FDE04E402EC01134015421F083301358037083B403D404002C4E0C620CCE0CE30D0103310634065018020810187409102930802
:400740009C029D809F09AB08B304CC10D8C0E2A0E640EC80858093089C029D809F19A020AD01E210EC40271093089C029F19A020C8802B017C20CA08DE01130852208308C4
:4007800085209C20B301C408D404EA0101203F204480822094109D20A620A810B020C002CE04D001E801001003100D0816403E4094109C80AB10C00AC204C404CE04930866
:4007C0009A019C02A020AA01AF09EA701A024C20530462018002860193089A019C02A020C640D280D420D840E440E68032408004824096409C80AB10AD08AE40CC08400456
:40080000848090049C80AA40D008001101010C110D010E100F01101111011C111D0100AD010B10820CC0C000C00023004000000000000000E0000000000202000200000078
:40084000042828002800D2005F01180100010000000200000003000000050000000000000000000000000000000000000000000000000000000000000000000000000000A6
:400880000000000000000000000000000000000000000000000000000000000000000000000000000000000000000000000000000000000000000000000000000000000038
:4008C00000000000000000000000000000000000000000000000000000000000000000000000000000000000000000000000000000000000000000000000000000000000F8
:4009000000000000000000000000000000000000000000000000000000000000000000000000000000000000000000000000000000000000000000000000000000000000B7
:400940000000000000000000000000000000000000000000000000000000000000000000000000000000000000000000000000000000000000000000000000000000000077
:0200000490006A
:0400000000004007B5
:0200000490105A
:04000000BC90ACAF55
:0200000490303A
:02000000BBB291
:0200000490402A
:4000000000000000000000000000000000000000000000000000000000000000000000000000000000000000000000000000000000000000000000000000000000000000C0
:400040000000000000000000000000000000000000000000000000000000000000000000000000000000000000000000000000000000000000000000000000000000000080
:400080000000000000000000000000000000000000000000000000000000000000000000000000000000000000000000000000000000000000000000000000000000000040
:4000C0000000000000000000000000000000000000000000000000000000000000000000000000000000000000000000000000000000000000000000000000000000000000
:0200000490501A
:0C00000000012E16106900012E35CC1BEB
:00000001FF