:400000000020002011000000390B0000390B000080B500AF024B034A12681A6000F090FDBC760040FA46004010B5054C237833B9044B13B10448AFF300800123237010BD64
:4000400048E1FF1F00000000F480000008B5064B1BB106480649AFF300800648036813B1054B03B1984708BD00000000F48000004CE1FF1F08E1FF1F0000000080B500AF5D
:40008000094B1B78002B0ED000F084F8074B1B78002B05D0054B1B78013BDAB2034B1A70014B00221A7080BD64E1FF1F81E1FF1F90B583B000AF314B1B78002B02D12F4BB6
:4000C00001221A702D4B1B78012B1ED10023FB802A4B02221A700023FB8002E0FB880133FB80FB88B3F5907FF8D30023FB8006E0FB88234A0021D154FB880133FB80FB8846
:40010000BF2BF5D91F4BC0221A8003F0FBFC0346002B2FD01C4B5C78012003F00DFD03469C4222D0012003F007FD03461A46164B5A70154B5B78002B17D0144B1B78DBB2A2
:4001400003F00F03012B10D10E4BC0221A800D4B1B8802200A491A4603F020FE094B1B88022000211A4603F019FE04200849012203F014FE0C37BD4690BD00BF67E1FF1FBE
:40018000F0E1FF1FECE1FF1F0CE1FF1F1E60004069E1FF1F80B500AF204B1B78002B00D13AE003F089FC0346002B03D01C4B00221A7005E01A4B1B780133DAB2184B1A70E0
:4001C000174B1B78052B27D903F090FC0346002B1FD0144B1B78002B04D1124B01221A7000F01EFB04F09EFC02F0CCFC0020402102F088FF02F006FE04F02EFD03F076FC37
:400200000346002B05D0084B01221A70002005F0BFF8034B00221A7080BD00BFCCE1FF1F65E1FF1F12E1FF1F04EBFF1F80B582B000AF134B1B78002B1FD107F06FF91420B1
:4002400002F094FB07F062FC0346FB8007F07EF9B7F9062040F26A539A4204DD0020012103F07EFA03E00020002103F079FA054B01221A70044B01221A700837BD4680BD45
:40028000CCE1FF1F67E1FF1F66E1FF1F80B500AF62B601F049F9054801F0D4F902F0B2FA0320032102F0D4FB80BD00BFA10A000080B500AF06F09EFF06F00AFD06F084FC37
:4002C00006F0FEFB06F026FF05F08EFF06F016F806F012FA06F0B2FD05F01AFE06F0A0F806F09CFA80BD00BF80B500AF06F092FF06F0FEFC06F078FC06F0F2FB06F01AFFED
:4003000005F082FF06F00AF806F006FA06F0A6FD05F00EFE06F094F806F090FA80BD00BF80B582B000AF012001214FF4804241F6FF7305F0DBFC0346FB7101F001FE034600
:400340003B7101F0FDFD03467B713A797B79104601211A46002301F04BFE7A793B79104601211A46042301F043FE3A790F4B9BB2104646F26F411A4601F072FE7A790C4B5A
:400380009BB2104646F26F411A4601F069FE3B79FA791046194601F043FDFB791846012101F028FC0837BD4680BD00BFC4E2FF1FC5E2FF1F90B583B000AF002002F064F987
:4003C000484802F007FB642002F0F2FA01F0CEFE002006F0D7FCFFF787FF434B00221A7000F030FF414B01221A70022001F0CEFE022001214FF400524FF4005301F0A4F987
:4004000003461A463A4B1A700023FB7109E0FC7901F096FD03461A46364B1A55FB790133FB71FB79072BF2D90023FB712EE0FB79304AD25CFB79591C2F4B0B40002B03DA06
:40044000013B63F0070301332A49CB5C104660211A46062301F0CCFDFB79264AD15C274B9AB2FB799BB21846400003445B0198B2234B9BB203449BB2084611461A4601F09B
:40048000EFFDFFF74DFFFB790133FB71FB79072BCDD9012000214FF400524FF4005301F013F803461A46174B1A7001F049FD03461A46154B1A7001F043FD03461A46124BAF
:4004C0005A70124801F070F9114800F0AFFF002006F058FC01F01EF9FFF706FF0C37BD4690BD00BF00366E0121420040B0E2FF1FD0E2FF1FB8E2FF1F07000080C4E2FF1FFD
:400500005CE7FF1FC0E2FF1FD4E2FF1F490A0000310A000080B582B000AFC023FB80804B1B78012B40F0F8807E4B1B78002B0BD07D4B00221A807D4B00221A80794B002242
:400540001A707B4B00221A707A4B1B78184601F097FB794B1B78002B02D0012B03D015E0C023FB8012E0724B1B78092B05D1B423FB806F4B00221A7007E0B023FB806C4BB0
:400580001B780133DAB26A4B1A7000BF6B4BFA881A8001F04BF9654B1A88FB8813449AB2624B1A8001F036F95F4B1B881A46FB881344B3F5407F47D95B4B1B88C3F5407342
:4005C000BB805F4B19785E4B5B78BA88084611461A46232301F00CFD594B5A78F988BB88CB1A9BB210461946FE22072301F000FD534B19784C4B1A88524B9BB213449AB234
:40060000514B9BB2084611461A4601F029FD4C4B59784C4B9AB24C4B98B2BB8803449BB2084611461A4601F01BFD424B1A78444B1B781046194601F0F3FBFA88BB88D31A1D
:400640009AB2394B1A802EE03D4B1A78FB8810461946FE22072301F0CBFC394B1978324B1A88384B9BB213449AB2374B9BB2084611461A4601F0F4FC2E4B1A78304B1B7839
:400680001046194601F0CCFB274B1A88FB8813449AB2254B1A80244B1B88B3F5407F02D1214B00221A80234B1B781846012101F0A1FA204B1B781846012101F0CFFB234B61
:4006C0001B78002B28D1194B1B88B3F5C07F23D31E4B01221A701E4B1B781846042101F0BDFB1B4B1B781846012101F083FA184B1A78184B1B781046194601F091FB144BBE
:400700001B781846012101F075FAFFF7D1FD00F0E7FF012006F036FB0837BD4680BD00BF82E1FF1F76E1FF1F7EE1FF1F78E1FF1F83E1FF1FC0E2FF1FB0E2FF1FECE1FF1F5F
:40074000D4E2FF1F5CE7FF1FF0E1FF1F77E1FF1FD0E2FF1FB8E2FF1F80B500AF104B1B78002B1CD00F4B1B781846042101F076FB0D4B01221A700D4B01221A700C4B4FF4F8
:4007800040721A800B4B00221A80054B00221A70002006F0F7FA00F0BDFFFFF7A5FD80BD77E1FF1FD0E2FF1F76E1FF1F7CE1FF1F10E1FF1F7AE1FF1F80B582B000AF03463A
:4007C000FB71FFF7C9FF002001F05EFF0D4802F001F90D4BFA791A70FB79184600F056FDFB79002B01D0012B00E000BF012001F04BFF064802F0EEF8054B01221A700837BD
:40080000BD4680BD00366E01B0E2FF1F40A5AE0282E1FF1F80B400AFBD465DF8047B704780B500AF002001F02FFF0A4802F0D2F8642002F0BDF801F099FC002006F0A2FA08
:40084000FFF752FD044B00221A70044BFF221A7080BD00BF00366E0182E1FF1F13E1FF1F80B582B000AF324B1B78DBB2002B5BD1304B1B78DBB2002B56D00023FB712D4B0D
:400880001B78DBB21A462C4913465B0013440B4402331B78DBB21904264B1B78DBB21A46254813465B001344034401331B78DBB21B0219431F4B1B78DBB21A461E48134651
:4008C0005B00134403441B78DBB20B433B60194B00221A703A684BF680339A4202D10023FB7106E03A684AF644439A4201D10123FB71124B1B78FA799A4212D00F4BFA7997
:400900001A700F4B1B78002B03D00E4B01221A7007E00A4B1B781846FFF74EFF094B00221A70094B00221A700837BD4680BD00BF06EBFF1FE7EAFF1FCCEAFF1F13E1FF1FAA
:4009400012E1FF1F80E1FF1F81E1FF1F80B500AF1D4B1B78002B18D11B4B1B78002B14D11A4B5B78DBB2002B0FD1194B1B78002B02D1174B64221A70154B1B78012B04D140
:40098000114B01221A70FFF74BFF0F4B1B78012B19D10D4B1B78012B15D10C4B5B78DBB2002B10D0084B00221A70FFF733FF094B1B78002B07D0084B1B781846FFF7FCFEE8
:4009C000044B00221A7080BD12E1FF1FF0EAFF1F81E1FF1F80E1FF1F13E1FF1F80B483B000AF104B1B78002B17D00023FB800DE0FB88BF2B03D8FB880B4A0021D154FB881B
:400A00000A4A0021D154FB880133FB80FB88B3F5407FEDD3034B00221A700C37BD465DF8047B70477CE1FF1FF0E1FF1F5CE7FF1F80B500AF034B1B88022000211A4603F03F
:400A4000ADF980BDECE1FF1F80B582B000AF114B1A88114B1B88D31AFB80104B1A88FB88D31A9AB20D4B1A800A4B1A880A4B1A800A4B1B88B3F5407F02D3FFF76DFE05E022
:400A8000064B1B8860339AB2044B1A800837BD4680BD00BF78E1FF1F7AE1FF1F10E1FF1F80B400AF054B1B78DAB2054B1A70044B01221A70BD465DF8047B70479043004074
:400AC00064E1FF1F80B500AF06F0B8F905F020FA05F0A6FC05F0A2FE052001F047FF06F075FA05F0DDFA05F063FD05F05FFF06F0B5F905F01DFA05F0A3FC05F09FFE80BD85
:400B000080B500AFFFF7DEFFFFF754FCFFF7BEFB02F0ECFF0346002B05D0FFF7C9FAFFF715FFFFF79DFEFFF781FBFFF7A7FA01F0D3FFFFF753FFEBE780B400AFFEE700BF22
:400B400080B586B000AF224B7B61224B3B61204B7B6135E03B691B68FB603B695B68BB603B699B683B6000237B600CE0FB681A68BB681A60BB680433BB60FB680433FB6091
:400B80007B6804337B607A683B689A42EED13B69DB683B6000237B6008E0BB6800221A60BB680433BB607B6804337B607A683B689A42F2D13B6910333B617B69013B7B61EC
:400BC0007B69002BC6D107F05DFAFFF799FFFEE7010000005884000080B582B000AF184B184A1A60184B184A126842F400721A6000237B600FE07B68032B04D8134B7A68E1
:400C000053F8223000E0124B124A796842F821307B6801337B607B682F2BECD90E4B1B78DAB20E4B1A700E4B0A4A1A6000F030FA00F0B2FF0B4B00221A600837BD4680BD70
:400C40000CED00E00004FA0514ED00E000000000390B000000E0FF1FBC76004004E1FF1F08ED00E000E1FF1F80B582B000AF78603960786800213A6807F033FA0837BD469C
:400C800080BD00BF80B584B000AFF860B9607A60F868B9687A6807F01BFA1037BD4680BD80B483B000AF0346FB71FEE780B487B000AF7860396000233B6100237B6126E0E0
:400CC0007B699B007A6813441B68BB60BB68FB73BB6823F0FF03BB6013E03B695B003A6813441B781A46BB6813443A69520039680A4452781A703B6901333B61FB7B013B04
:400D0000FB73FB7B002BE8D17B6901337B617B69232BD5D91C37BD465DF8047B704700BF80B582B000AF484B2F221A80474B1C221A70474B03221A80464B1C221A70464B4E
:400D400007221A80454B1C221A70454B00221A80444B50221A70444B00221A80434B11221A70434843490422FFF78CFF424B06221A70424B52221A70414B424A1278D2B23D
:400D80001A70414B40F20F721A80404B41F251221A800023FB7019237B6014E0FB785B00DAB23B4B1B78DBB203F00103DBB21343DBB203F00303FB704FF4F07000F0D8FE38
:400DC0007B68013B7B607B68002B02D0FB78032BE4D17B68002B02D10320FFF761FF2D4B4FF480721A802B4B07221A702A4B00221A702A4B48221A70264B00221A70284BDF
:400E000000221A70274B02221A70274B04221A70264B264A1278D2B242F01F02D2B21A70234B234A1278D2B242F00102D2B21A70204B204A1278D2B262F07F02D2B21A7084
:400E40000837BD4680BD00BF80400040824000408440004086400040884000408A4000408C4000408E400040904000409240004000410040080800480043004000420040FC
:400E8000A14600400F01004922420040204200402542004004400040064000400840004009400040014000400B400040A2430040A1430040A043004080B483B000AF334B9E
:400EC0001B78FB71324BFA7902F00702D2B21A70304BFA791209D2B21A702F4B03221A702E4B44F281221A802D4B0D221A702D4B20221A702C4B80221A702C4B10221A7083
:400F00002B4B08221A702B4B08221A702A4B01221A702A4B40221A70294B60221A70294B01221A70284B04221A70284B40221A70274B40221A70274B08221A70264B402260
:400F40001A70264B80221A70254B40221A70254B01221A70244B40221A70244B01221A70234B244A1A60244B244A1A60244B90221A70244B4FF482721A80234B44221A7064
:400F80000C37BD465DF8047B704700BFCF0100496E5800406F5800400D5100403C5100406C580040005A0040085A0040105A0040185A00401A5A0040235A0040285A004041
:400FC000305A0040385A00403A5A0040C05A0040C35A0040C85A0040CB5A0040D05A0040D35A0040D85A0040DB5A0040025B0040405B004007020402445B004003020802D0
:40100000585B00405A5B00407658004080B483B000AF0346FB71FB79012B0ED8FA79094B53F82230F979074A52F821201178FA790548825C0A43D2B21A700C37BD465DF89A
:40104000047B7047F88000000081000080B483B000AF0346FB71FB79012B10D8FA790A4B53F82230F979084A52F821201178FA790648825CD243D2B20A40D2B21A700C37DE
:40108000BD465DF8047B7047F88000000081000080B582B000AF72B60023FB7113E0FA7913465B0013445B00474A13443B603B681A683B689B889BB210461946FFF7D4FDD9
:4010C000FB790133FB71FB79062BE8D94FF090403E49FFF7EBFD3E4B0A221A703D4B03221A803D4B40F203121A803C4B40F203221A803B4B40F203321A803A480421FFF777
:40110000B3FD394839490422FFF7BCFD384839490422FFF7B7FD384838490422FFF7B2FD374838490422FFF7ADFD374B364A1278D2B242F00202D2B21A70344B334A1278E9
:40114000D2B242F00202D2B21A70314B304A1278D2B242F04002D2B21A702E4B2D4A1278D2B242F01002D2B21A702B482B490822FFF788FD2A482B490822FFF783FD2A484D
:401180002A490A22FFF77EFD29482A490822FFF779FD294B284A1278D2B242F00802D2B21A70264B01221A70FFF7BAFD234BC1221A70FFF781FE224815490E22FFF762FDFF
:4011C0000837BD4680BD00BF048100009000004883580040485800404A5800404C5800404E58004000760040087600400C0800481076004010080048187600401408004885
:4012000028760040180800480350014013500140A0430040C243004002510040E4070048C2510040EC070048F0510040F40700483251004000080048224300400048004070
:40124000B043004080B400AF0A4B09221A700A4B15221A70094B76221A70094B5D221A70084B35221A70084B0F221A70BD465DF8047B70472A6400403A6400402B6400401A
:401280002C640040286400403864004080B582B000AF0346FB71FB79072B4BD801A252F823F000BFC5120000FD120000C5120000C5120000C5120000FD120000FD120000DA
:4012C000C5120000504B24221A80504B40221A704F4B60221A704F4BC0221A704E4B8D221A704E4B00221A704D4BDC221A704D4B40221A704C4B60221A701CE0424B21223F
:401300001A80424BC0221A70414B54221A70414B80221A70404B99221A70404B80221A703F4BDC221A703F4BC0221A703E4B54221A7000E000BF002000F0C0FEFA2001F046
:4013400037FBFB79072B5BD801A252F823F000BFA7130000DD130000951300008313000071130000B9130000CB130000EF1300001720002100F066FA2F20002100F02CFB5C
:401380003FE00B20002100F05DFA1720002100F023FB36E00320012100F054FA0820012100F01AFB2DE00220012100F04BFA0520012100F011FB24E00F20002100F042FAE4
:4013C0001F20002100F008FB1BE00720002100F039FA0F20002100F0FFFA12E00220012100F030FA0520012100F0F6FA09E00120002100F027FA0320002100F0EDFA00E04D
:4014000000BF0837BD4680BD224200401865004019650040286500402965004038650040396500403B6400403C64004080B582B000AF786000F03CF8786800F009F8042033
:4014400000F018F800F028F80837BD4680BD00BF80B485B000AF7860054B1B68FB60FB6850337A681A601437BD465DF8047B704708ED00E080B483B000AF0346FB71054BF5
:40148000FA795201D2B21A700C37BD465DF8047B704700BF04E400E080B400AF034B10221A60BD465DF8047B704700BF00E100E080B400AF034B10221A60BD465DF8047B61
:4014C000704700BF80E100E080B584B002AFF871B971BA807B80134B02221A70114B1978FA79BB790020009000200190084611461A46022300F0DCFC0A4B1978BA887B8835
:40150000084611461A4600F04DFC064B1B781846032100F019FC034B1B7818460837BD4680BD00BF14E1FF1F80B500AF054B1B78002B04D100F008F8024B01221A7000F0D1
:401540000BF880BD84E1FF1F80B500AF032000F055F800F03BF880BD80B582B000AF194B1B78DBB203F00203002B18D100F00AFB0346FB71134B134A1278D2B242F00202B5
:40158000D2B21A70104B104A1278D2B242F00402D2B21A70FB79184600F0F8FA0FE000F0F1FA0346FB71084B074A1278D2B242F00402D2B21A70FB79184600F0E7FA083707
:4015C000BD4680BD004300408243004080B582B000AF00F0D7FA0346FB71074B064A1278D2B242F00802D2B21A70FB79184600F0CDFA0837BD4680BD8243004080B483B029
:4016000000AF0346FB710D4B1B78DBB203F00403002B0DD10A4B0A4A1278D2B222F00F02D1B2FA7902F00F02D2B20A43D2B21A700C37BD465DF8047B704700BF8243004084
:401640008143004080B582B000AF786000F03CF8786800F009F8072000F018F800F028F80837BD4680BD00BF80B485B000AF7860054B1B68FB60FB6854337A681A6014375F
:40168000BD465DF8047B704708ED00E080B483B000AF0346FB71054BFA795201D2B21A700C37BD465DF8047B704700BF05E400E080B400AF034B20221A60BD465DF8047BBB
:4016C000704700BF00E100E080B400AF034B20221A60BD465DF8047B704700BF80E100E080B400AF094B094A1278D2B242F00102D2B21A70064B064A1278D2B242F0010279
:40170000D2B21A70BD465DF8047B7047A2430040B243004080B400AF094B094A1278D2B222F00102D2B21A70064B064A1278D2B222F00102D2B21A70BD465DF8047B704798
:40174000A2430040B243004080B584B002AFF871B971BA807B80134B00221A70114B1978FA79BB790020009000200190084611461A46002300F09CFB0A4B1978BA887B8854
:40178000084611461A4600F00DFB064B1B781846002100F0D9FA034B1B7818460837BD4680BD00BF15E1FF1F80B582B000AF786000F03CF8786800F009F8042000F018F86E
:4017C00000F028F80837BD4680BD00BF80B485B000AF7860054B1B68FB60FB6840337A681A601437BD465DF8047B704708ED00E080B483B000AF0346FB71054BFA795201BC
:40180000D2B21A700C37BD465DF8047B704700BF00E400E080B400AF034B01221A60BD465DF8047B704700BF00E100E080B400AF034B01221A60BD465DF8047B704700BF4F
:4018400080E100E080B584B000AF02460B46FA807B7100F0B1F80346FB7300F0A1F80346BB81FA88BB899A4200F08780444B1B78DBB203F00203FB72FB7B002B20D1BB892F
:40188000002B02D0FB88002B1AD1BB89002B0BD13C4BFA881A803C4B3B4A1278D2B222F04002D2B21A7068E0374B374A1278D2B242F04002D2B21A70324BFA881A805CE078
:4018C000FB7A002B33D0314B00221A70304B02221A70304B00221A702F4B2F4A1278D2B202F07F02D2B21A70274B1B78DBB203F00803002B02D0FB88002B18D1274BBA8972
:401900001A80224B07221A7000BF204B1B78DBB203F00103002BF8D1194B194A1278D2B222F00202D2B21A70184B00221A70144B1B78DBB203F00203002B13D0174BFA8847
:401940001A80124A7B79002B01D0032300E00123137000BF0D4B1B78DBB203F00103002BF8D10AE0074BFA881A80054B044A1278D1B2FA7A0A43D2B21A701037BD4680BD59
:40198000A24300408440004086400040014000401040004014400040084000400240004080B400AF034B1B889BB21846BD465DF8047B70478440004080B400AF054B1B7872
:4019C000DBB203F00703DBB21846BD465DF8047B704700BF8640004080B584B000AF02460B46FA807B7100F0B1F80346FB7300F0A1F80346BB81FA88BB899A4200F0878011
:401A0000444B1B78DBB203F00403FB72FB7B002B20D1BB89002B02D0FB88002B1AD1BB89002B0BD13C4BFA881A803C4B3B4A1278D2B222F04002D2B21A7068E0374B374A6F
:401A40001278D2B242F04002D2B21A70324BFA881A805CE0FB7A002B33D0314B00221A70304B04221A70304B00221A702F4B2F4A1278D2B202F07F02D2B21A70274B1B785D
:401A8000DBB203F00803002B02D0FB88002B18D1274BBA891A80224B07221A7000BF204B1B78DBB203F00103002BF8D1194B194A1278D2B222F00402D2B21A70184B0022E3
:401AC0001A70144B1B78DBB203F00403002B13D0174BFA881A80124A7B79002B01D0032300E00123137000BF0D4B1B78DBB203F00103002BF8D10AE0074BFA881A80054B94
:401B0000044A1278D1B2FA7A0A43D2B21A701037BD4680BDA2430040884000408A400040014000401040004014400040084000400240004080B400AF034B1B889BB218468F
:401B4000BD465DF8047B70478840004080B400AF054B1B78DBB203F00703DBB21846BD465DF8047B704700BF8A400040000000000230800800F0058000BF013800467FF45D
:401B8000FCAF7047EFF3108072B6704780F31088704700BFAFF3008080B483B000AF134B7F221A70124B80221A707F23FB710CE0FB79DB0003F1804303F5F043FA79013ACE
:401BC000D2B21A70FB79013BFB71FB79002BEFD1FB79DB0003F1804303F5F04300221A700C37BD465DF8047B704700BF19E1FF1F18E1FF1F80B485B000AF02460B46FA71A4
:401C0000BB710123FB60FB79172B2FD8BB79002B0ED0FB791A01194B1344FA791101174A0A441278D2B242F02002D2B21A700DE0FB791A01114B1344FA7911010F4A0A44B6
:401C40001278D2B222F02002D2B21A70FB791A010A4B1344FA791101084A0A441278D2B242F00102D2B21A700023FB60FB6818461437BD465DF8047B704700BF10700040CC
:401C800080B485B000AF0346FB710123FB60FB79172B1DD8FB791A01114B1344FA7911010F4A0A441278D2B222F00102D2B21A70FB791A010A4B1344FA791101084A0A442E
:401CC0001278D2B222F02002D2B21A700023FB60FB6818461437BD465DF8047B704700BF1070004080B485B000AF0346FB710123FB60FB79172B1DD8FB791A01114B1344C4
:401D0000FA7911010F4A0A441279D2B242F00402D2B21A71FB791A010A4B1344FA791101084A0A441278D2B242F00102D2B21A700023FB60FB6818461437BD465DF8047B0F
:401D4000704700BF1070004080B485B000AF02460B46FA71BB710123FB60FB79172B18D8FB791A010E4B13441B78DBB223F00E03FB72FB791A010A4B1344BA7902F0070267
:401D8000D2B25200D1B2FA7A0A43D2B21A700023FB60FB6818461437BD465DF8047B70471070004080B485B000AF13460246FA710A46BA807B800123FB60BA8841F6FF7310
:401DC0009A4202D14FF40053BB807A8841F6FF739A4202D14FF400537B80FB79172B17D8FB79DB0003F1804303F5EC430433BB60BB68BA881A80FB79DB0003F1804303F557
:401E0000EC430633BB60BB687A881A800023FB60FB6818461437BD465DF8047B704700BF80B485B000AF02460B46FA71BB710123FB60FB79172B07D8FB791A01064B1344F6
:401E4000BA795A720023FB60FB6818461437BD465DF8047B704700BF1070004080B485B000AF02460B46FA71BB710123FB60FB79172B14D8FB791A010C4B1344FA791101A1
:401E80000A4A0A441279D2B2D1B2BA7902F00702D2B20A43D2B2D2B21A710023FB60FB6818461437BD465DF8047B70471070004080B485B000AFF871B9717A713B7101231E
:401EC000FB60FB79172B34D8FB79DB0003F1804303F5EC43BA7902F07F02D1B27A79D201D2B20A43D2B21A70FB79DB0003F1804303F5EC433A7E1201D1B23A7902F00F0299
:401F0000D2B20A43D2B25A70FB79DB0003F1804303F5EC433A7F02F00F02D2B29A70FB79DB0003F1804303F5EC430022DA700023FB60FB6818461437BD465DF8047B70475A
:401F400080B582B000AFFF23FB71FFF71BFE0346BB71104B1B78182B12D90F4B1B78FB710C4B1B78013BDAB20A4B1A70FB79DB0003F1804303F5F0431B78DAB2064B1A7008
:401F8000BB791846FFF702FEFB7918460837BD4680BD00BF18E1FF1F19E1FF1F80B584B000AF0346FB71FB795BB2002B19DBFFF7E9FD0346FB73FB79DB0003F1804303F55C
:401FC000F043094A12781A70074BFA791A70074B1B780133DAB2054B1A70FB7B1846FFF7D5FD1037BD4680BD19E1FF1F18E1FF1F80B485B000AFF871B980BA71FB700123B3
:40200000FB60FB795BB2002B23DBBB8823F47F6323F00F039BB2002B1BD1FB79DB0003F1804303F5F043BB60BB68BA881A80FB79DB0003F1804303F5F043BA799A70FB79A9
:40204000DB0003F1804303F5F043FA78DA700023FB60FB6818461437BD465DF8047B704780B485B000AF13460246FA710A46BA807B800123FB60FB795BB2002B17DBFB7995
:40208000DB0003F1804303F5F0430433BB60BB68BA881A80FB79DB0003F1804303F5F0430633BB60BB687A881A800023FB60FB6818461437BD465DF8047B704780B584B04D
:4020C00000AF0346FB710023FB60234B224A1278D2B242F00102D2B21A70FB79002B36D01E4B1B78DBB203F00403FB721C4B1B78BB721C4B1B787B72182001F0E5F81023F7
:40210000FB6010E0184B1B78DBB203F00103002B09D0154B1B78DBB203F00103002B02D00023FB6008E0012001F0A2F8034603F00103DBB2002BE5D0FB7A002B01D100F041
:4021400081FB074BBA7A1A70064B7A7A1A70FB6818461037BD4680BD204200400043004080430040824300402542004080B400AF054B054A1278D2B222F00102D2B21A7035
:40218000BD465DF8047B70472042004080B582B000AF0346FB71114B1B78DBB203F00103002B02D0002000F0D5FBFB790033022B0DD84FF040234FF040221278D2B222F0B8
:4021C0000302D1B2FA790A43D2B21A7003E0002000F0C0FB00BF0837BD4680BD2042004080B584B000AF0346FB711D4B1C4A1278D2B242F01002D2B21A701A4B194A1278AE
:40220000D2B242F01002D2B21A70FB79002B23D0154B1B78DBB203F00403FB73134B1B78BB73134B1B787B73002001F04DF800BF012001F01DF8034603F00103DBB2002B1C
:40224000F6D0FB7B002B01D100F0FCFA074BBA7B1A70074B7A7B1A701037BD4680BD00BFA0430040B043004000430040804300408243004080B400AF094B094A1278D2B29E
:4022800022F01002D2B21A70064B064A1278D2B222F01002D2B21A70BD465DF8047B7047A0430040B043004080B483B000AF0023FB71124B1B78DBB203F00703002B06D106
:4022C0000F4B1B78DBB203F00103002B0DD10B4B1B78DBB203F00703012B08D1094B1B78DBB203F00103002B01D00123FB71FB7918460C37BD465DF8047B7047934300403C
:40230000A5430040B543004080B584B000AF0346FB71FFF7C9FF0346FB73FB7B012B07D1314B314A1278D2B222F00202D2B21A70FB79082B50D801A252F823F06123000005
:402340006D2300007923000085230000912300009D230000A9230000D9230000B5230000224B234A1278D2B21A7039E01F4B214A1278D2B21A7033E01C4B1F4A1278D2B28C
:402380001A702DE0194B1D4A1278D2B21A7027E0164B1B4A1278D2B21A7021E0134B194A1278D2B21A701BE0104B174A1278D2B21A7015E00D4B154A1278D2B21A70FB7B5B
:4023C000012B08D1084B084A1278D2B242F00202D2B21A7004E003E0002000F0BBFA00BF1037BD4680BD00BF09600040A146004008010049090100490A0100490B01004932
:40240000890100490C0100490D0100490F01004980B584B000AF0346FB71674B1B78DBB203F00703FB73FB79082B01D0FB7900E00323BB73FB7B062B25D801A252F823F0F5
:402440005D24000063240000692400006F240000752400007B240000812400000223FB7315E00123FB7312E00323FB730FE00023FB730CE00423FB7309E00523FB7306E051
:402480000623FB7303E0002000F064FA00BFBA7BFB7B9A4203D3FB791846FFF735FFFB79082B72D801A252F823F000BFD1240000E924000001250000132500002B250000BC
:4024C000432500005B2500008B25000073250000394B394A1278D2B222F04702D2B242F00302D2B21A7054E0334B334A1278D2B222F04702D2B242F00102D2B21A7048E0EC
:402500002D4B2D4A1278D2B222F04702D2B21A703FE0294B284A1278D2B222F04702D2B242F00202D2B21A7033E0234B224A1278D2B222F04702D2B242F00402D2B21A70DF
:4025400027E01D4B1C4A1278D2B222F04702D2B242F00502D2B21A701BE0174B164A1278D2B222F04702D2B242F00602D2B21A700FE0114B104A1278D2B222F04702D2B2CE
:4025800042F04202D2B21A7003E0002000F0E2F900BFFB79082B02D100F056F801E000F063F8BA7BFB7B9A4203D2FB791846FFF7ABFE1037BD4680BD0042004080B582B0E9
:4025C00000AF0346FB71FB79012B17D0022B02D0002B26D02EE04FF040234FF040221278D2B222F04002D2B21A70164B154A1278D2B242F02002D2B21A701FE04FF040233E
:402600004FF040221278D2B242F04002D2B21A700C4B0C4A1278D2B242F02002D2B21A700CE0084B074A1278D2B222F02002D2B21A7003E0002000F08DF900BF0837BD46F2
:4026400080BD00BF0042004080B400AF054B054A1278D2B242F01002D2B21A70BD465DF8047B70470042004080B400AF054B054A1278D2B222F01002D2B21A70BD465DF8D0
:40268000047B70470042004080B483B000AF0346FB71094B084A1278D2B222F00302D1B2FA7902F00302D2B20A43D2B21A700C37BD465DF8047B70470540004080B483B043
:4026C00000AF0346FB71044BFA791A700C37BD465DF8047B704700BF0440004080B483B000AF0346FB80154B144A1278D2B222F00F02D2B21A70124B00221A70114B114A7F
:402700001278D2B262F07F02D2B21A700E4BFA88D2B21A700D4BFA88120A92B2D2B21A700B4B0B4A1278D2B242F00102D2B21A700C37BD465DF8047B704700BF1440004059
:40274000104000400840004002400040034000400140004080B584B000AF0346FB80FFF711FA0346FB73234B1B78DBB21B02BB81214B1B78DBB21A46BB891343BB81FB88FB
:40278000002B02D0BB89002B29D11C4B1B78FB72FB7A062B02D80720FFF790FFFB88002B0CD1174B164A1278D2B242F04002D2B21A70FB881846FFF791FF0BE0FB88184610
:4027C000FFF78CFF0E4B0E4A1278D2B222F04002D2B21A70FB7A1846FFF770FF03E0FB881846FFF77BFFFB7B1846FFF7CFF91037BD4680BD07400040064000400440004021
:402800000840004080B400AF054B054A1278D2B242F00202D2B21A70BD465DF8047B70470043004080B400AF054B054A1278D2B242F00402D2B21A70BD465DF8047B7047C7
:402840000043004080B400AF054B054A1278D2B222F00402D2B21A70BD465DF8047B70470043004080B586B000AF0346FB7100237B61FB793B742B4B2A4A1278D2B242F0F3
:402880000102D2B21A70FB79002B46D0264B1B78FB74264B1B78BB74254B1B787B74182000F012FD10237B6126E01E4B1B780423FB730EE000BF012000F0DAFC034603F00D
:4028C0000103DBB2002BF6D0FB7BDBB2013BDBB2FB73FB7BDBB2002BECD1124B1B78DBB2DBB25BB2002B02DB00237B6108E03B7CDBB2013BDBB23B743B7CDBB2002BD4D15B
:40290000FB7C03F00403002B01D1FFF79BFF074BBA7C1A70064B7A7C1A707B6918461837BD4680BD1042004000430040804300408243004080B400AF054B054A1278D2B238
:4029400022F00102D2B21A70BD465DF8047B70471042004080B483B000AF0346FB7101BE0C37BD465DF8047B704700BF80B582B000AF786008E00C4B1B681846FFF7F8F806
:402980007B68A3F500437B607B68B3F5004FF2D8064B1B687A6802FB03F31846FFF7E8F80837BD4680BD00BF2CE1FF1F24E1FF1F80B582B000AF0346FB80FB88044A12783C
:4029C00002FB03F31846FFF7D3F80837BD4680BD28E1FF1F80B483B000AF78607B68002B03D0144B7A681A6002E0124B124A1A60104B1B6803F5742303F23F230F4AA2FBC6
:402A000003139B0CDAB20E4B1A700A4B1B6803F2E7320C4BA3FB02139A090B4B1A600A4B1B68DA03094B1A600C37BD465DF8047B704700BF20E1FF1F40A5AE0283DE1B4381
:402A400028E1FF1FD34D621024E1FF1F2CE1FF1F80B483B000AF02460B46FA71BB711D4B1C4A1278D2B222F00302D1B2FA7902F00302D2B20A43D2B21A70164B154A127800
:402A8000D2B262F07F02D2B21A70124B114A1278D2B202F07F02D2B21A700E4BBA795201D2B202F06002D1B20A4A1278D2B222F06002D2B20A43D2B21A70064B054A127851
:402AC000D2B242F01002D2B21A700C37BD465DF8047B70478343004080B400AF034B01221A70BD465DF8047B704700BF8443004080B584B000AF03463960FB710F4B1B68B4
:402B0000FB60FB791F2B02D90020FFF723FFFB7903F01F0310339B00FA6813441B68BB60FB7903F01F0310339B00FA6813443A681A60BB6818461037BD4680BD08ED00E092
:402B400080B582B000AF02460B46FA71BB71BB79072B02D90020FFF7FDFEFB791F2B02D90020FFF7F7FEFB7903F01F0303F1604303F56443BA795201D2B21A700837BD4684
:402B800080BD00BF80B500AF904B1B78DBB203F00F03DAB28E4B1A708E4B1B78DAB28C4B5A708A4B894A1278D2B222F00F02D2B21A70884B1B78874B00221A70864B1B787E
:402BC000DBB223F03F03DAB2814B5A71372005F0B5F9824B1B78DBB203F00703DAB27C4BDA707E4B1B78DBB203F04003DAB2784B1A717A4B1B78DBB203F01003002B03D06D
:402C0000734B01225A7202E0714B00225A72744B1B78DBB203F00303DAB26D4B9A706C4B9B78012B1CD14FF040231B78DBB203F00303012B08D0012B02D3022B08D00BE0A2
:402C40000020FFF721FD0BE00220FFF71DFD07E00320FFF719FD03E00020FFF77BFE00BF604B1B78DBB203F00103002B05D0584B01229A73FFF77AFA02E0554B00229A730C
:402C80000420FFF7C5FB584B1B78DBB203F01003DBB2002B03D04E4B01229A7108E04C4B00229A710020FFF79BFA0620FFF780FE4A4B1B78DBB203F02003002B10D04FF019
:402CC00040231B78DBB203F04003002B01D1022300E001233E4AD3710020FFF76FFC02E03B4B0022DA714FF040231B78DBB203F03003DAB2364B1A72354B1B7A002B09D039
:402D00004FF040234FF040221278D2B222F03002D2B21A70314B1B78DBB203F01003002B01D0FFF7A1FC314B1B78DAB2284B9A72274B9B7A002B02D00020FFF7BFFC244BE1
:402D40009B78002B02D00020FFF79EFC284B1B78DBB21B029AB21E4B9A811D4B9A89254B1B78DBB213439AB2194B9A81184B9B89002B02D00020FFF7EDFC184B1B78DBB2D1
:402D800003F007031C4AD35C184605F0D7F81B4B1B78DBB203F00103002B05D00C4B0122DA73FFF7C7FD02E0094B0022DA73144B1B78DBB203F00403002B03D0044B0122D3
:402DC0001A7402E0024B00221A7480BDA1430040B8E1FF1FA243004000480040004200400540004020420040A0430040044000400740004006400040308100001042004001
:402E00000B40004080B586B000AF10233B617D4A3B1D106818609188927999809A717A4B1B7C012B17D1794B1B78DBB203F00703774AD35C1A4613469B0013441A01D31AD3
:402E40001846FEF795FE734B724A1278D2B242F00402D2B21A706C4BDB7B012B25D10020FFF700FD6C4B1B780523FB821AE0674B1B78DBB203F00703654AD35CC82202FBDF
:402E800003F31846FEF774FE634B1B78DBB2DBB25BB2002B03DB00233B6100BF05E0FB8A013BFB82FB8A002BE1D1372005F046F8554B9B78022B03D0534B9B78032B10D1E6
:402EC000564B1B78DAB2504B9B7A9A4204D04E4B9B7A1846FFF7F2FB4B4B9B781846FFF7D3FB494B1B7903F04003002B0CD0464BDB7807F11802134413F8143C032B03D1E9
:402F00000820FFF785FA20E03F4BDB7807F11802134413F8143C1846FFF77AFA3A4B1B7903F04003002B08D0384B384A1278D2B242F04002D2B21A7007E0344B334A127837
:402F4000D2B222F04002D2B21A702F4B9B79012B0AD1334B1B78DBB203F01003DBB2002B02D10020FFF73CF9274BDB791846FFF725FB254B5B7A012B01D1FFF765FB224B1C
:402F80001B7A1A464FF040231B78DBB203F030039A4210D04FF040234FF040221278D2B2D2B222F03002D1B2174A127AD2B20A43D2B2D2B21A70144B9B7B012B3AD11023AD
:402FC0003B610020FFF77AF85020FFF7F1FC154B1B78AB23FB822AE00120FFF7E9FC114B1B78DBB203F00103002B1DD00D4B1B78DBB203F00103002B16D000233B6100BF8D
:4030000018E000BF38810000B8E1FF1F00420040308100000B4000401042004004400040A043004025420040FB8A013BFB82FB8A002BD1D12B4B9B78002B03D0294B9B782D
:40304000012B10D1284B1B78DAB2264B9B7A9A4204D0244B9B7A1846FFF730FB214B9B781846FFF711FB1F4B9B79002B09D11F4B1B78DBB203F01003DBB2002B01D0FFF707
:40308000F9F81B4B1B78DBB21B02FB81194B1B78DBB21A46FB891343FB81124B9B89FA899A4204D00F4B9B891846FFF753FB124B114A1278D2B2D2B202F03F02D1B2094A9F
:4030C0005279D2B20A43D2B2D2B21A700B4B054A12781A700A4B034A52781A701837BD4680BD00BFB8E1FF1F04400040A0430040074000400640004000480040A14300408E
:40310000A243004080B584B000AF02460B46FA71BB80FEF737FD0346FB734E4B1B78DBB203F00803002B0BD14B4B4B4A1278D2B202F01F02D2B21A70FB79002B08D004E0C0
:40314000FB7B1846FEF722FD81E00020FFF702FC00F002F9414B1B78DAB2414B1A713F4BBA88120992B2D2B21A703E4B1B78DAB23B4B5A713B4BBA88D2B202F00F02D2B240
:403180001A70394B1B78DAB2354B9A71364BBA88120B92B2D2B202F00102D2B21A70334B1B78DBB203F00703002B04D12C4B012283F82D2014E02A4B002283F82D202B4BE6
:4031C0001B78DBB203F00703DAB2254B83F82C20264B264A1278D2B222F00702D2B21A701C4B1C4A1278D2B222F00702D2B242F00302D2B21A70174B1B7800BF00BF30BFB6
:40320000174B93F82D30012B0FD0184B174A1278D2B2D2B222F00702D1B2114A92F82C20D2B20A43D2B2D2B21A7000F0D5F90B4B0B4A12791A700B4B094A52791A700A4BE0
:40324000074A92791A70FB7B1846FEF79FFC1037BD4680BD93430040834600409843004088E1FF1F994300409A4300400042004080B584B000AF0346FB71FEF783FC034677
:40328000FB730F4B1B78DAB20E4B1B781343DAB20C4B1A700B4B1B78BB73FB79DB43DAB2084B1B781340DAB2064B1A70FB7B1846FEF76CFCBB7B18461037BD4680BD00BF98
:4032C00090430040CAE1FF1F80B582B000AF0346FB711F4B1E4A1278D2B222F00202D2B21A70FFF79FFA1A4B1B78DBB203F00103002B19D0174B1B78DBB2FA799A4224D03F
:40330000134B134A1278D2B222F00102D2B21A70104BFA791A700E4B0D4A1278D2B242F00102D2B21A7010E00A4B1B78DBB2FA799A4202D0074BFA791A70054B044A12784B
:40334000D2B242F00102D2B21A700837BD4680BD824300408043004080B400AF804B1B78DAB2804B5A72804B1B78DAB27D4B9A727E4B1B78DAB27B4BDA727D4B1B78DAB2FC
:40338000784B1A737B4B1B78DAB2764B5A737A4B1B78DAB2734B9A73784B1B78DAB2714BDA73774B1B78DAB26E4B1A74754B1B78DAB26C4B5A74744B1B78DAB2694B9A7484
:4033C000724B1B78DAB2674BDA74714B1B78DAB2644B1A756F4B1B78DAB2624B5A756E4B1B78DAB25F4B9A756C4B1B78DAB25D4BDA756B4B1B78DAB25A4B1A76694B1B78D4
:40340000DAB2584B5A76684B1B78DAB2554B9A76664B1B78DAB2534BDA76654B1B78DAB2504B1A77634B1B78DAB24E4B5A77624B1B78DAB24B4B9A77604B1B78DAB2494B4A
:40344000DA775F4B1B78DAB2464B83F820205D4B1B78DAB2434B83F821205B4B1B78DAB2404B83F82220594B1B78DAB23D4B83F82320574B1B78DAB23A4B83F82420384B37
:4034800000221A70384B00221A70384B00221A70374B00221A70374B00221A70364B00221A70364B00221A70354B00221A70354B00221A70344B00221A70344B00221A709E
:4034C000334B00221A70334B00221A70324B00221A70324B00221A70314B00221A70314B00221A70304B00221A70304B00221A702F4B00221A702F4B00221A702E4B0022A1
:403500001A702E4B00221A702D4B00221A702D4B00221A702C4B00221A702C4B00221A702B4B00221A702B4B1B78DBB203F00803002B0CD00B4B012283F82E20254B254A70
:403540001278D2B222F00802D2B21A7003E0054B002283F82E20BD465DF8047B704700BF005A004088E1FF1F025A0040035A0040045A0040065A0040085A00400A5A0040CA
:40358000105A0040125A0040135A0040145A0040165A0040185A00401A5A0040205A0040225A0040235A0040245A0040265A0040285A00402A5A0040305A0040325A004077
:4035C000335A0040345A0040365A0040385A00403A5A00402243004080B400AF424B434A527A1A70424B414A927A1A70414B3F4AD27A1A70404B3D4A127B1A703F4B3B4AF1
:40360000527B1A703E4B394A927B1A703D4B374AD27B1A703C4B354A127C1A703B4B334A527C1A703A4B314A927C1A70394B2F4AD27C1A70384B2D4A127D1A70374B2B4AC0
:40364000527D1A70364B294A927D1A70354B274AD27D1A70344B254A127E1A70334B234A527E1A70324B214A927E1A70314B1F4AD27E1A70304B1D4A127F1A702F4B1B4A30
:40368000527F1A702E4B194A927F1A702D4B174AD27F1A702C4B154A92F820201A702B4B124A92F821201A70294B104A92F822201A70284B0D4A92F823201A70264B0B4A28
:4036C00092F824201A70094B93F82E30012B07D1224B224A1278D2B242F00802D2B21A70BD465DF8047B7047005A004088E1FF1F025A0040035A0040045A0040065A0040DA
:40370000085A00400A5A0040105A0040125A0040135A0040145A0040165A0040185A00401A5A0040205A0040225A0040235A0040245A0040265A0040285A00402A5A004045
:40374000305A0040325A0040335A0040345A0040365A0040385A00403A5A00402243004080B582B000AF02460B46FA71BB71094B1B78002B04D100F00FF8064B01221A70DB
:40378000FA79BB791046194600F0E2F80837BD4680BD00BFCCE1FF1F80B582B000AFFEF7F1F903467B71584B574A1278D2B242F00102D2B21A70554B544A1278D2B242F09D
:4037C0000102D2B21A70524B01221A70514B02221A70514B504A1278D2B202F07F02D2B21A700020FFF7E4F84C4B4C4A1278D2B222F00602D2B21A70494B494A1278D2B2D5
:4038000022F02002D2B21A70444B444A1278D2B242F00102D2B21A700120FFF7C9F82820FFF7C6F83F4B3F4A1278D2B202F07F02D2B21A703B4B3B4A1278D2B222F04002F5
:40384000D2B21A70354B354A1278D2B242F00202D2B21A700220FFF7ABF8304B2F4A1278D2B242F00402D2B21A702F4B00221A702E4B00221A700023FB800AE0FB882C4A1A
:40388000FF21D154FB882B4AFF21D154FB880133FB80FB88082BF1D97B791846FEF776F917202549FFF724F917200721FFF748F915202249FFF71CF915200721FFF740F999
:4038C00018201F49FFF714F918200721FFF738F902201C49FFF70CF902200721FFF730F903201949FFF704F903200721FFF728F916201649FFF7FCF816200021FFF720F9F4
:403900000837BD4680BD00BFA5430040B54300409D60004009600040106000409443004012600040F85100408460004085600040BCEAFF1FB0EAFF1F0D490000014900009C
:403940002942000055480000A54800001949000080B582B000AF02460B46FA71BB712C4B4FF400021A602A4B4FF080721A60284B04221A60264B08221A60264B22221A70ED
:40398000234B4FF480021A60234B50221A70234802F000FA02F0E6F902F056FA204B00221A70BB79002B02D0012B04D007E01D4B02221A7007E01B4B03221A7003E0194BFE
:4039C00003221A7000BF184BFA791A70174B00221A70174B00221A70164B00221A70164B00221A70154B00221A70154B00221A70144B03221A70144B80221A700120FEF7FC
:403A0000B7F8124B04221A700837BD4680BD00BF00E100E09E6000409C6000400D4A000006EBFF1F0960004000EBFF1F05EBFF1F01EBFF1F04EBFF1FECEAFF1F03EBFF1F14
:403A40007EEBFF1F28600040086000401260004080B400AF0F4B00221A700F4B00221A700E4B00221A700E4B00221A700D4B00221A700D4B00221A700C4B00221A700C4B42
:403A800003221A700B4B80221A70BD465DF8047B704700BF06EBFF1F05EBFF1F01EBFF1F04EBFF1FECEAFF1F03EBFF1F7EEBFF1F286000400860004080B483B000AF0A4BF2
:403AC0001B78FB71084BFA7922F00402D2B21A70FB7903F004039B10DBB218460C37BD465DF8047B704700BF0960004080B400AF034B1B78DBB21846BD465DF8047B704761
:403B000005EBFF1F80B483B000AF0023FB71094B1B78DBB2002B05D0064B1B78FB71054B00221A70FB7918460C37BD465DF8047B704700BF04EBFF1F80B483B000AF034644
:403B4000FB71FB79044AD35CDBB218460C37BD465DF8047B704700BFF0EAFF1F90B585B000AF03463960FB71FA79304913465B0013449B000B441B79DBB2DBB25BB2002B37
:403B800006DA3B681B0CFB814FF48043BB8105E04FF48043FB813B681B0CBB81FB79013B072B2BD801A252F823F000BFFD3B0000CD3B0000FD3B0000FD3B0000FD3B0000A4
:403BC000E53B0000FD3B0000FD3B0000FC79FA89BB892020012102F029F803461A46144B1A550CE0FC79FA89BB892020012102F04DF803461A460E4B1A5500E000BFFB79C8
:403C0000002B10D0FB79082B0DD8FC79FEF798F903461A46074B1A55FC79FEF791F903461A46054B1A551437BD4690BD10EBFF1F84EAFF1FBCEAFF1FB0EAFF1F80B584B007
:403C400000AF0346FB71FB79082B01D8FB7900E00123FB73FB7B174AD35CFF2B0FD0FB7B154AD35C1846FEF70BF8FB7B114AD35C1846FEF793F9FB7B0E4AFF21D154FB7BA9
:403C80000E4AD35CFF2B09D0FB7B0C4AD35C1846FEF784F9FB7B094AFF21D154FB7B0133FB73FB7B082B02D8FB79092BD2D01037BD4680BDBCEAFF1F84EAFF1FB0EAFF1F2D
:403CC00080B485B000AF02460B46FA71BB71BB79002B29D1FB792B4AD35CDB0003F1804303F5F043FB60FA79274B33F812309BB2203B9AB2FB681A80FB79224AD35CDB00C6
:403D000003F1804303F5F0430433FB60FA791F4B53F822309BB220339AB2FB681A80FB791B4A0121D1541EE0FB79164AD35CDB0003F1804303F5F043FB60FB6802221A8052
:403D4000FB79104AD35CDB0003F1804303F5F0430433FB60FA790D4B53F822309BB21E339AB2FB681A80FB790A4AD35C1A010A4B1344FA7903498A5C5A721437BD465DF8D6
:403D8000047B7047BCEAFF1F90EAFF1F60EAFF1FA4EAFF1F84EAFF1F1070004090B585B000AF396013460246FA71BB80FB79002B00F00781FB79082B00F20381FB79013B24
:403DC000DBB21B01FB73FA7B7F4B1344BB60FA7B7E4B13441946BB881B0A9BB2D8B2FA797B4C13465B0013449B002344DB78DBB20343DBB20B70FA7B764B1344BA88D2B200
:403E00001A70FB79744AD35CFF2B04D1FB7918463968FFF7A3FE3B68002B60D0FB796F4AD35C1846FDF72CFFFA796D4BB98823F81210FA796B4B396843F82210FB79664AB3
:403E4000D15CBB88202B28BF20239AB2FB796648C35C084611461A461123FEF7C9F8FB795D4AD15C3B689AB2BB689BB2084611461A46FEF7F5F8FB795B4AD15CFB795A4AF5
:403E8000D25CFB795948C35C08460121FEF7B0F8FB79554AD15C564B9AB2FB7B9BB203F5C1439BB2084611461A46FEF7D9F8FB794A4AD35C1846FDF715FFFB79474AD25CBF
:403EC000FB794549CB5C10461946FDF7A9FFFB79424AD35C18460121FDF78CFE71E0FA793B4913465B0013449B000B4400225A70BB88002B57D0FA79394BB98823F81210E8
:403F0000FB793C4A0021D154FB79344AD35C1846FDF7B6FEFB79304AD15CBB88202B28BF20239AB2FB793048C35C084611461A461123FEF75DF8FB79274AD15CFA79294B74
:403F400053F822309AB2BB689BB2084611461A46FEF786F8FB79214AD35C1846FDF7C2FEFB791E4AD25CFB791B49CB5C10461946FDF756FFFB79194AD35C18460121FDF7CF
:403F800039FEFB7B03F1804303F5C1431A46FB7B03F1804303F5C1431B78DBB243F00103DBB213700DE0FA7B134B13441946FA79074813465B0013449B0003445B79DBB22B
:403FC0000B701437BD4690BD886000400C60004010EBFF1F0D600040BCEAFF1F84EAFF1F90EAFF1F60EAFF1FB0EAFF1F4081000030E1FF1FA4EAFF1F0E60004080B582B058
:4040000000AF0023FB717C4B1B78BB717B4B1B78DBB203F07F037B71BB795BB2002B80F29580BB7903F00303022B1CD1744B1B78DBB2812B00D015E0724B1B78DBB2012BE2
:404040000FD1714B03221A807A7913465B0013446E4A1A446C4B5A6000F062FA0346FB71FFE700BFC2E0BB7903F00303012B40F0BD80634B1B78DBB2832B3CD0832B04DC3C
:40408000812B07D0822B25D05FE0842B44D0FF2B53D05AE05B4B1B78DBB2012B0AD15A4B01221A80584B5A4A5A6000F039FA0346FB710EE0534B1B78DBB2022B09D1524BFA
:4040C00002221A80504B534A5A6000F029FA0346FB713AE04B4B1B78DBB2022B0AD14A4B02221A80484B4C4A5A6000F019FA0346FB712AE029E0434B1B78DBB2022B0AD1B9
:40410000414B02221A80404B444A5A6000F008FA0346FB7119E018E03A4B1B78DBB2022B0AD1394B02221A80374B3D4A5A6000F0F7F90346FB7108E007E0334B00221A807A
:4041400000F06EFA0346FB7100BF4FE0BB7903F00303022B1FD12A4B1B78DBB2012B00D018E0284B1B78DBB2012B12D1264B03221A807A7913465B001344244A1A44224B68
:404180005A6000F04DFA0346FB71264B7A791A70FFE700BF2AE0BB7903F00303012B25D1174B1B78DBB2012B00D01FE0154B1B78DBB2012B0AD1144B01221A80124B144A92
:4041C0005A6000F02DFA0346FB710EE00D4B1B78DBB2022B09D10C4B02221A800A4B0D4A5A6000F01DFA0346FB7100BFFB7918460837BD4680BD00BF006000400460004082
:404200000160004003600040F4EAFF1FCCEAFF1FE8EAFF1FC8EAFF1F34E1FF1F38E1FF1F3CE1FF1FE7EAFF1F80B582B000AF374B1B78BB71BB7903F01003002B63D0012303
:40424000FB71BB795BB2002B13DABB7903F00F03012B02D00023FB711DE000F061F82C4B1B78DBB2DBB25BB2002B14DA0023FB7111E0BB7903F04003002B02D000F094F8C0
:4042800009E0BB7903F02003002B02D000F0B2F801E00023FB71FB79002B34D01B4B1B78BB71BB795BB2002B2DDB1A4B1B78DAB2194B1B78DBB21343BB71184BBA791A70DE
:4042C000164B1B78DBB2BA799A421CD1104B1B78FB710E4B1B78DBB223F07F03BB71BB79002B0AD1094B0A4A1278D2B21A70074B1B78DBB203F00F03FB71054B1B78DBB2E0
:40430000FA799A42E2D10837BD4680BD28600040EDEAFF1F02EBFF1F7FEBFF1F2960004080B582B000AF1D4B1B78FB711B4BFA791A701A4B1B78FB71FB795BB2002B03DA16
:40434000174BFA791A7025E0022000F049FA154B1B78DBB203F06003202B08D0402B0BD0002B0ED100F002FD0346FB710CE003F043FE0346FB7107E001F03AFC0346FB71FF
:4043800002E00023FB7100BFFB79002B02D1044B03221A700837BD4680BD00BF28600040EDEAFF1F0060004080B500AF104B1B78DBB2062B19D801A252F823F0EB43000013
:4043C000EB430000D9430000EB430000DF430000EB430000E543000000F0FCF806E000F0AFF903E000F0D8F900E000BF80BD00BF06EBFF1F80B500AF124B1B78DBB2062B8B
:404400001DD801A252F823F03F4400003F440000254400003F4400002B4400003F4400003144000000F0DCF80AE000F02DF907E0032000F0D5F9044B03221A7000E000BF05
:4044400080BD00BF06EBFF1FEDEAFF1F80B483B000AF0023FB712B4B1B78DBB21A462A4B1B889BB213449AB2274B1A8018E0FB7903F1804303F5C043244A52681278D2B239
:404480001A70224B5B685A1C204B5A60FB790133FB711E4B1B889BB2013B9AB21B4B1A801A4B1B889BB2002B02D0FB79072BDED9144B1B78DBB2082B02D0FB79002B0FD001
:4044C000134B1B78DBB283F07F03DB43DAB2104B1A70104B0F221A700F4B02221A7005E00C4B02221A700C4B02221A70054BFA791A700A4BFA791A700C37BD465DF8047BF4
:40450000704700BF7EEBFF1F80EBFF1FF4EAFF1F02EBFF1FEDEAFF1F06EBFF1F7FEBFF1F80B582B000AF154B1B889BB2002B02D100F02EF81DE0124B02221A70114B002262
:404540001A7000F06DF9104B1B78DBB21B029AB20E4B1B78DBB213439BB2FB80074B1B889BB2FA889A4202D2044BFA881A80FFF76DFF012318460837BD4680BDF4EAFF1FA2
:4045800006EBFF1F02EBFF1F076000400660004080B400AF0A4B02221A700A4B80221A70094B0F221A70094B00221A70084B00221A7001231846BD465DF8047B704700BF50
:4045C00006EBFF1F02EBFF1FEDEAFF1F7EEBFF1F7FEBFF1F80B500AFFFF738FF80BD00BF80B500AF0A4B1B78DBB21A46094B1B889BB213449AB2074B1A80074B00221A7006
:40460000012000F0EDF8054B03221A7080BD00BF7EEBFF1F80EBFF1F06EBFF1FEDEAFF1F80B582B000AF124B04221A70114B80221A7000F0F5F8104B1B78DBB21B029AB209
:404640000E4B1B78DBB213439BB2FB800C4B1B889BB2FA889A4202D2094BFA881A80094B0B221A70012318460837BD4680BD00BF06EBFF1F02EBFF1F076000400660004088
:40468000F4EAFF1FEDEAFF1F80B483B000AF0023BB71254B1B78DBB203F00F03DBB2023BFB71FB799AB2214B1B889BB213449AB21E4B1A801BE01E4B5A68BB7903F1804306
:4046C00003F5C0431B78DBB21370194B5B685A1C174B5A60BB790133BB71FB79013BFB71134B1B889BB2013B9AB2114B1A80104B1B889BB2002B02D0FB79002BDBD10D4BFC
:40470000FA791A700C4B1B78DBB283F07F03DB43DAB2094B1A70094B0B221A700C37BD465DF8047B704700BF2960004080EBFF1FF4EAFF1F7FEBFF1F02EBFF1FEDEAFF1F17
:4047400080B500AF044B00221A70012000F048F8024B03221A7080BD06EBFF1FEDEAFF1F80B400AF084B06221A70084B06221A70074B80221A70074B00221A7001231846E1
:40478000BD465DF8047B704706EBFF1FEDEAFF1F02EBFF1F7FEBFF1F80B500AF0C4B1B78DBB2002B0AD00B4B094A1278D2B262F07F02D2B21A70064B00221A70064B00226C
:4047C0001A70012000F00CF8044B03221A7080BDECEAFF1F0860004006EBFF1FEDEAFF1F80B483B000AF0346FB710B4B9B68002B0CD0094B9B68FA791A70074B9B68074A1A
:40480000128892B25A80044B00229A600C37BD465DF8047B704700BFF4EAFF1F80EBFF1F80B400AF094B00221A80094B9B68002B07D0074B9B6800221A70054B9B6800227E
:404840005A80BD465DF8047B704700BF80EBFF1FF4EAFF1F80B500AFFBF75CFE0E4B1B780E4B1B7EDBB203F00303012B08D00B4BDB7EDBB283F07F03DB43DAB2074BDA7677
:40488000064B01225A76064B054A1278D2B222F00202D2B21A7080BD1E60004010EBFF1F0B60004080B400AF124B1B78124B93F84830DBB203F00303012B0AD00E4B93F880
:4048C0004B30DBB283F07F03DB43DAB20A4B83F84B20094B012283F84920084B074A1278D2B222F02002D2B21A70BD465DF8047B704700BF5E60004010EBFF1F0B60004078
:4049000080B400AFBD465DF8047B704780B500AFFFF79EF880BD00BF80B582B000AF0123BB7100237B71334B1B78FB71314BFA791A7059E0FB7903F00103002B4BD07A7952
:404940002D4B13441B783B713B7903F00103002B3CD0BA79294913465B0013449B000B441B79DBB2DBB25BB2002B2FDA7B7903F1804303F5C1431A467B7903F1804303F514
:40498000C1431B78DBB223F00103DBB21370BA791B4B33F812309BB2202B05D9BB7918460021FFF78DF903E0BB79164A0121D1547A79154B13441946BA79104813465B00FB
:4049C00013449B0003445B79DBB20B707A790A4B13443A791A707B7910337B71BB790133BB71FB795B08FB71FB79002BA2D10837BD4680BD9F6000408260004010EBFF1FC1
:404A000090EAFF1FA4EAFF1F0E60004080B582B000AF01237B7100233B7101F097F9034603F07F03BB7101F003FA034603F00303FB7153E041E0BB7903F00103002B33D0DB
:404A40003A79294B13441B78FB70FB7803F00103002B29D17B79254AD35CDBB2002B23D13A79234B134400221A703A79214B13447A795201D2B2023AD2B21A707B791846ED
:404A80000121FFF71DF93B7903F1804303F5C1431A463B7903F1804303F5C1431B78DBB243F00103DBB213703B7910333B717B7901337B71BB795B08BB71BB79002BBAD1CF
:404AC000FB795B08FB71FB79002B07D070233B7108237B71FB7903F00103BB71FB79002BA8D10837BD4680BD82600040A4EAFF1F856000408460004080B400AF024B1B789F
:404B0000BD465DF8047B70478F45004080B500AF034B1B78DBB2002B01D000F0B5FB80BD05EBFF1F80B582B000AFFDF72BF80346FB713E4B1B78DBB2DBB25BB2002B5ADA16
:404B40003B4B01221A700920FFF778F8394B394A1278D2B202F07F02D2B21A700020FDF727FF354B344A1278D2B222F00602D2B21A702E4B2D4A1278D2B202F07F02D2B27A
:404B80001A700020FDF714FF2C4B1B78DBB203F00103DAB2264B5A70284B284A1278D2B222F00102D2B21A700120FDF701FF224B214A1278D2B222F00102D2B21A70204B50
:404BC0001F4A1278D2B242F02002D2B21A701D4B1C4A1278D2B222F00102D2B21A701A4B194A1278D2B222F00102D2B21A700120FDF7DEFE02E00E4B00221A70FB7918463A
:404C0000FCF7C4FF0C201149FDF772FF0C200721FDF796FF0E4B4FF480521A600D4B4FF480521A600837BD4680BD00BF08600040D0E1FF1F10600040944300400960004002
:404C400012600040A5430040B5430040F94A000080E200E000E100E080B582B000AFFCF791FF0346FB71354B1B78002B5ED0344B4FF480521A60334B324A1278D2B242F0DA
:404C80000102D2B21A70304B2F4A1278D2B242F00102D2B21A702D4B2C4A1278D2B242F00102D2B21A702A4B294A1278D2B242F00102D2B21A702820FDF77AFE254B254A93
:404CC0001278D1B21D4A52780A43D2B21A700020FDF76EFE1E4B1E4A1278D2B242F00202D2B21A700220FDF763FE194B184A1278D2B242F00402D2B21A70174B22221A70B7
:404D0000164B50221A70164B03221A70154B154A1278D2B262F07F02D2B21A700120FCF727FF114B04221A70FFF7F0FEFB791846FCF72CFF0837BD4680BD00BFD0E1FF1F31
:404D400080E100E0A5430040B54300409D60004094430040096000409E6000409C60004028600040086000401260004080B586B000AF0023FB7500233B61994B00221A80ED
:404D8000984B1B78DBB2DBB25BB2002B80F2FE80954B1B78DBB20A2B00F2F68001A252F823F000BFDD4E0000894F0000894F0000894F0000894F0000894F0000D14D00005E
:404DC000894F0000534F0000894F0000694F0000864B1B78DBB2012B0ED100F083FDB860BB685A687E4B5A607D4B12221A80FFF797FB0346FB7570E07C4B1B78DBB2022B82
:404E000023D17B4B1B78DBB2184600F041FDB860BB68002B61D0BB685A68714B5A60704B5B6803331B78DBB21B029AB26C4B5B6802331B78DBB213439BB29AB2684B1A80D2
:404E4000FFF76EFB0346FB759FE0684B1B78DBB2032B3DD10023FB73664B3B6109E03B691B78FB71FB793A6913443B61FB7B0133FB735F4B1B78DBB2FA7B9A4204D23B696B
:404E80001B78DBB2002BEAD1594B1B78DBB2002B0BD0574B1B78DAB2574B1B7C9A4204D1564800F0A9F9554B3B613B691B78DBB2002B12D03B691B78DBB21A46484B1A80E9
:404EC000474B3A695A60FFF72BFB0346FB755CE003F092F80346FB7557E056E0414B1B78DBB203F00303002B1FD0022B00D02FE03B4B02221A80424B1B78DBB203F07F02DF
:404F0000404913465B0013449B000B449B78DAB23D4B1A703C4B00225A70314B3A4A5A60FFF7FEFA0346FB7512E02D4B02221A80364B1B78DAB2344B1A70334B00225A7033
:404F4000274B314A5A60FFF7EBFA0346FB7500BF1BE0234B01221A80214B2D4A5A60FFF7DFFA0346FB7510E01D4B01221A80244B1B78DBB21A46274B1A44194B5A60FFF704
:404F8000CFFA0346FB7500E000BF1CE1164B1B78DBB2013B0A2B00F2158101A252F823F0AD500000C551000039510000C5510000CD4F0000C5510000C5510000C551000048
:404FC0001D500000C551000073500000084B1B78DAB2114B1A70FFF7C3FB0346FB75F2E0F4EAFF1F00600040016000400360004002600040E4810000608100008CEBFF1F77
:405000000460004010EBFF1FD4E1FF1F03EBFF1F05EBFF1FF0EAFF1FECEAFF1F6C4B1B78BB71BB79002B06D0BB79013BDBB2184600F02EFCB860BB79002B02D0BB68002B23
:4050400002D1BB79002B13D1624B1B78DBB2BA799A4208D05F4BBA791A705F4B01221A70012000F095F9FFF77BFB0346FB75AAE0A9E000F081FD0346002B16D0574B1B78D4
:405080007B71574B7A791A70534B01221A7000F0DDFA7B797A7953498A5CD1B2524AD154FFF75EFB0346FB758DE08CE04F4B1B78DBB203F00303012B22D0012B0DD3022B3B
:4050C00000D038E0424B1B78DBB2002B04D100F0B1FC0346FB752EE02DE03D4B1B78DBB2012B0CD1424B1B78DBB223F00203DAB23F4B1A70FFF734FB0346FB751BE01AE0C1
:40510000364B1B78DBB2012B14D8344B1B78DBB21A463849CB5CD9B22D4B1B78DBB2DB43DBB20B40D9B2334B9954FFF719FB0346FB75FFE700BF46E02C4B1B78DBB203F0E8
:405140000303012B22D0012B0DD3022B00D038E01F4B1B78DBB2002B04D100F0FBFB0346FB752EE02DE01A4B1B78DBB2012B0CD11F4B1B78DBB243F00203DAB21C4B1A70D9
:40518000FFF7EEFA0346FB751BE01AE0134B1B78DBB2012B14D8114B1B78DBB21A461549CB5CD9B20A4B1B78DBB2DB43DBB20B40D9B2104B9954FFF7D3FA0346FB75FFE741
:4051C00000BF00E000BFFB7D18461837BD4680BD0260004005EBFF1F04EBFF1F0460004001EBFF1FF0EAFF1F7CEBFF1F0060004003EBFF1F08EBFF1F90B488B000AF786044
:405200000023BB771F4B07F10C040FCB84E80F007B68002B32D07B6822221A707B68013303221A700223FB7725E0BB7F03F1924303F580731B787B77BB7F0133BB77FB7FA2
:405240007A6813447A7F1209D2B207F120010A4412F8142C1A70FB7F02337A6813447A7F02F00F0207F120010A4412F8142C1A70FB7F0433FB77FB7F212BD6D92037BD4611
:4052800090BC70474C81000080B483B000AF00237B710123FB710023BB7143E0BB7903F1804303F5C1430C221A70BA792E4B13441D221A70FA792D4913465B0013449B00FD
:4052C0000B445B79DBB2002B21D0FA79274913465B0013449B000B441B79DBB2DBB25BB2002B05DABA79224B13440C221A7013E0BA791F4B134408221A70FB79013B012228
:4053000002FA03F3DAB27B7913437B7104E0BA79174B134480221A70FB790133FB71BB791033BB71BB795BB2002BB7DA114B55221A70114B20221A70104B00221A70104B22
:4053400022221A700F4B7A791A700F4BD0221A700D4B50221A700D4BFF221A700C37BD465DF8047B704700BF8160004010EBFF1F0E6000408C600040BC600040BD600040FE
:405380008E6000408F6000409C6000400A60004080B588B000AF0346FB710023FB7743E0FA7FA44913465B0013449B000B4400221A70FA7F9F4913465B0013449B000B44C4
:4053C00000229A70FA7F9B4913465B0013449B000B4400225A70FA7F964913465B0013449B000B440022DA70FA7F924913465B0013449B000B4400225A71FA7F8D491346AC
:405400005B0013449B000B44083300221A80FA7F884913465B0013449B000B44083300229A70FB7F0133FB77FB7F082BB8D9FB79002B10D000237B770AE07B7F7E4A002174
:40544000D1547B7F7D4A0021D1547B7F01337B777B7F012BF1D97A4B1B78DBB2002B00F0E680774B1B78DBB2013BDBB2184600F00FFA78617B695B683B613B6907331B78FB
:4054800003F04003002B08D06E4B1B78DBB243F00103DAB26B4B1A7007E06A4B1B78DBB223F00103DAB2674B1A707B6908337B617B691B78FB7701237B778EE07B695B682D
:4054C000BB610023BB7780E07A7FBB699B7803F07F039A4273D17A7F564913465B0013449B000B4408331B889AB2BB699B889A420BD27A7FBB6999884E4813465B00134480
:405500009B00034408330A461A80BB691B784A4AD35CDAB2BB695B789A4250D1BB69DB7803F00303FB73BB699B78DBB25BB2002B17DA7A7F3F4913465B0013449B000B4429
:4055400001225A70797FFB7B012B01D1072200E00D2238480B465B000B449B0003445A7116E07A7F334913465B0013449B000B4400225A70797FFB7B012B01D1052200E0B3
:4055800009222C480B465B000B449B0003445A717A7FBB699978274813465B0013449B0003440A461A717A7FBB69D978214813465B0013449B0003440A461A700AE0BB6993
:4055C0000833BB61BB7F0133BB77BA7FFB7F9A42FFF47AAF7B7F01337B777B7F082B7FF66DAF7B695B68BB6100237B7714E0BB699B7803F07F02BB6919780E4813465B00F5
:4056000013449B00034408330A469A70BB690833BB617B7F01337B777A7FFB7F9A42E6D300F072F90246084B1A60FFF72DFE2037BD4680BD10EBFF1FF0EAFF1F7CEBFF1F3B
:4056400005EBFF1F03EBFF1F0CEBFF1F80B584B000AF874B1B78DBB2002B00F00681844B1B78DBB2013BDBB2184600F011F978607B6808337B607B681B78FB707B685B68E7
:40568000BB600023FB73EBE0BB681B78794AD35CDAB2BB681B787849CB5CDBB29A4200F0D980BB681B78734AD35CDAB2BB685B789A4240F0CF80BB681A78704B1B78DBB2E0
:4056C0009A4240F0C780BB689B7803F07F03BB70BB78013BDBB21B017B70BB68DB7803F003033B70BB689B78DBB25BB2002B17DABA78634913465B0013449B000B44012282
:405700005A70B9783B78012B01D1072200E00D225B480B465B000B449B0003445A7116E0BA78574913465B0013449B000B4400225A70B9783B78012B01D1052200E009227D
:405740004F480B465B000B449B0003445A717A784C4B134401221A70BA78BB689988484813465B0013449B00034408330A461A80BA78BB689978424813465B0013449B00AF
:4057800003440A461A71BA78BB68D9783C4813465B0013449B0003440A461A70BA78384913465B0013449B000B440022DA707B7803F1804303F5C1431A467B7803F1804312
:4057C00003F5C1431B78DBB223F00103DBB213702D4BBA78013AD2B25200D2B21A702A4B294A1278D2B242F00102D2B21A7000BF254B1B78DBB203F01003002BF8D0BB68F9
:405800009B78DBB25BB2002B0DDB204B1F4A1278D1B2BA78013A012000FA02F2D2B20A43D2B21A700EE0194B184A1278D1B2BA78013A012000FA02F2D2B2D243D2B20A40C8
:40584000D2B21A70104B104A1278D2B222F00102D2B21A70BB680833BB60FB7B0133FB73FA7BFB789A42FFF40FAF1037BD4680BD05EBFF1FF0EAFF1F7CEBFF1F0460004078
:4058800010EBFF1F0E600040146000408F60004080B485B000AF0346FB71104B1B78DBB20F4ADB0013445B68FB60FB680833FB60FB681B78FA799A4202D30023FB6005E0D7
:4058C000FB79DB00FA6813445B68FB60FB6818461437BD465DF8047B704700BF00EBFF1F2C84000080B400AF054B1B78DBB2054ADB0013445B681846BD465DF8047B7047ED
:4059000000EBFF1F2C84000080B584B000AF104B1B78DBB2013BDBB21846FFF7B9FFB860BB68002B0DD0BB685B681B79FB71FB790233DB00BA681344BB60BB685B68FB60C4
:4059400001E00023FB60FB6818461037BD4680BD05EBFF1F80B582B000AF0023FB71324B1B78DBB203F07F03BB71BB79013BDBB21B017B71BB79002B51D0BB79082B4ED87D
:40598000BA79B97929480B465B000B449B0003449B78DBB243F00103D9B2244813465B0013449B0003440A469A70BA791F4913465B0013449B000B440022DA70BA79B979BE
:4059C0001A480B465B000B449B0003445B78DBB243F00203D9B2154813465B0013449B0003440A465A70BA79104913465B0013449B000B441B79DBB2DBB25BB2002B05DA9B
:405A00007A790B4B13448D221A7004E07A79084B134489221A70FEF7A3FE0346FB71FB7918460837BD4680BD0460004010EBFF1F0E60004080B582B000AF0023FB714A4B96
:405A40001B78DBB203F07F03BB71BB79013BDBB21B017B71BB79002B00F08180BB79082B7DD8BA79B97941480B465B000B449B0003449B78DBB223F00103D9B23B4813466B
:405A80005B0013449B0003440A469A70BA79374913465B0013449B000B440022DA707A79334B13441A467979314B0B441B78DBB203F07F03DBB21370BA79B9792B480B4631
:405AC0005B000B449B0003445B78DBB223F00203D9B2264813465B0013449B0003440A465A70BA79214913465B0013449B000B441B79DBB2DBB25BB2002B16DABA791B49A3
:405B000013465B0013449B000B445B78DBB2012B05D17A79174B13440C221A701BE07A79144B13440D221A7015E0BA790F4913465B0013449B000B445B78DBB2012B05D176
:405B40007A790C4B134408221A7004E07A79094B134409221A70FEF703FE0346FB71FB7918460837BD4680BD0460004010EBFF1F0C6000400E60004080B584B000AF01234A
:405B8000FB73164B1B78BB73154B1B78DBB2013BDBB21846FFF77CFEB860BB685B681B79FB71BA7BFB799A4202D2BB7B012B02D90023FB730CE0BB7BBA7B0A498A5CD1B206
:405BC000094AD154BB7B094A1278D1B2054AD154FB7B18461037BD4680BD00BF0460004005EBFF1FF0EAFF1F7CEBFF1F0260004080B483B000AF0023FB710A4B1B78DBB21E
:405C0000DBB25BB2002B06DA074B1B78DBB2012B00D000E000BFFB7918460C37BD465DF8047B7047006000400160004080B584B002AFF871B971BA807B80134B01221A70E1
:405C4000114B1978FA79BB790020009000200190084611461A460123FCF72AF90A4B1978BA887B88084611461A46FCF79BF8064B1B7818460221FCF767F8034B1B78184644
:405C80000837BD4680BD00BF40E1FF1F80B584B002AFF871B971BA807B80134B05221A70114B1978FA79BB790020009000200190084611461A460523FCF7FAF80A4B197889
:405CC000BA887B88084611461A46FCF76BF8064B1B7818460221FCF737F8034B1B7818460837BD4680BD00BF41E1FF1F80B584B002AFF871B971BA807B80134B03221A70D1
:405D0000114B1978FA79BB790020009000200190084611461A460323FCF7CAF80A4B1978BA887B88084611461A46FCF73BF8064B1B7818460221FCF707F8034B1B781846A2
:405D40000837BD4680BD00BF42E1FF1F80B400AF034B1B78DBB21846BD465DF8047B70476865004080B582B000AFFBF70BFF0346FB71074B064A1278D2B242F01002D2B21B
:405D80001A70FB791846FBF701FF0837BD4680BD9865004080B582B000AF786000F03CF8786800F009F8072000F018F800F028F80837BD4680BD00BF80B485B000AF786091
:405DC000054B1B68FB60FB6844337A681A601437BD465DF8047B704708ED00E080B483B000AF0346FB71054BFA795201D2B21A700C37BD465DF8047B704700BF01E400E04D
:405E000080B400AF034B02221A60BD465DF8047B704700BF00E100E080B400AF034B02221A60BD465DF8047B704700BF80E100E080B400AF034B1B78DBB21846BD465DF821
:405E4000047B70476864004080B582B000AFFBF799FE0346FB71074B064A1278D2B242F01002D2B21A70FB791846FBF78FFE0837BD4680BD9864004080B500AF012000F089
:405E800071F8144B134A1278D2B222F02002D2B21A70104B0F4A1278D2B222F00402D2B21A700C4B0B4A1278D2B242F00802D2B21A70094B084A1278D2B222F01802D2B21D
:405EC0001A70054B044A1278D2B242F01002D2B21A7080BD42580040D75A004080B400AF094B094A1278D2B242F00402D2B21A70064B064A1278D2B242F00402D2B21A70BF
:405F0000BD465DF8047B7047A7430040B743004080B500AF054B1B78002B04D1FFF7ACFF024B01221A70FFF7D9FF80BDD8E1FF1F80B400AF094B094A1278D2B222F004027B
:405F4000D2B21A70064B064A1278D2B222F00402D2B21A70BD465DF8047B7047A7430040B743004080B483B000AF0346FB71164B154A1278D2B2D2B222F00302D1B2FA7922
:405F800002F00302D2B20A43D2B2D2B21A70FB79012B0AD10D4B0E4A1278D2B21A700D4B0D4A1278D2B21A7009E0084B0B4A1278D2B21A70074B0A4A1278D2B21A700C37D3
:405FC000BD465DF8047B70474258004034460040120100493546004016010049B1010049B901004980B584B000AF0346FB71294B1B78DBB203F004037B73FB79002B0BD146
:406000007B7B002B13D0244B234A1278D2B242F01002D2B21A700AE07B7B002B07D11F4B1E4A1278D2B242F01002D2B21A70FB79002B02D10F23BB7301E00723BB730023DD
:40604000FB7320E0FB79002B07D1134B124A1278D2B20132D2B21A7006E0104B0F4A1278D2B20132D2B21A700A20FCF7A1FC094B1B78DBB203F004027B7B9A4200D006E09A
:40608000FB7B0133FB73FA7BBB7B9A42DAD31037BD4680BD965B0040344600403546004080B582B000AF284B1B78FB71274B1B78BB71274B1B787B71234B00221A70234B35
:4060C00000221A70224B7A7922F00902D2B21A70204B1B783B711F4B1E4A1278D2B242F03002D2B21A701C4B00221A701B4B00221A70184B1B78DBB203F00303012B03D1CC
:406100000020FFF76FFF05E00120FFF76BFF0020FFF768FF0F4B3A791A700B4BFA791A700A4BBA791A700A4B7A791A700B4B1B78DBB21B029AB2084B1B78DBB213439BB235
:4061400018460837BD4680BDD05A0040D25A0040D35A004042580040344600403546004080B500AF0A4B0E221A700A4B18221A70094B81221A70094B084A1278D2B242F03D
:406180000802D2B21A70032000F058F880BD00BF0058004001580040025800400B5A004080B400AF0D4B0D4A1278D2B242F00102D2B21A700A4B0A4A1278D2B242F0010229
:4061C000D2B21A70074B074A1278D2B262F07F02D2B21A70BD465DF8047B7047A9430040B94300407758004080B500AF054B1B78002B04D1FFF7B4FF024B01221A70FFF79A
:40620000CFFF80BDD9E1FF1F80B400AF094B094A1278D2B222F00102D2B21A70064B064A1278D2B222F00102D2B21A70BD465DF8047B7047A9430040B943004080B485B08F
:4062400000AF0346FB710A4B1B78DBB223F00303FB73FB7903F00303DAB2FB7B1343FB73034BFA7B1A701437BD465DF8047B70470158004080B500AF0A4B0E221A700A4B84
:4062800018221A70094B81221A70094B084A1278D2B242F00802D2B21A70032000F058F880BD00BF08580040095800400A5800402B5A004080B400AF0D4B0D4A1278D2B2F4
:4062C00042F00402D2B21A700A4B0A4A1278D2B242F00402D2B21A70074B074A1278D2B262F07F02D2B21A70BD465DF8047B7047A9430040B94300407758004080B500AFE0
:40630000054B1B78002B04D1FFF7B4FF024B01221A70FFF7CFFF80BDDAE1FF1F80B400AF094B094A1278D2B222F00402D2B21A70064B064A1278D2B222F00402D2B21A706A
:40634000BD465DF8047B7047A9430040B943004080B485B000AF0346FB710A4B1B78DBB223F00303FB73FB7903F00303DAB2FB7B1343FB73034BFA7B1A701437BD465DF83B
:40638000047B70470958004080B500AF012000F071F8144B134A1278D2B222F02002D2B21A70104B0F4A1278D2B222F00402D2B21A700C4B0B4A1278D2B242F00802D2B23A
:4063C0001A70094B084A1278D2B222F01802D2B21A70054B044A1278D2B242F01002D2B21A7080BD40580040C75A004080B400AF094B094A1278D2B242F00102D2B21A70D6
:40640000064B064A1278D2B242F00102D2B21A70BD465DF8047B7047A7430040B743004080B500AF054B1B78002B04D1FFF7ACFF024B01221A70FFF7D9FF80BDDBE1FF1F31
:4064400080B400AF094B094A1278D2B222F00102D2B21A70064B064A1278D2B222F00102D2B21A70BD465DF8047B7047A7430040B743004080B483B000AF0346FB71164B71
:40648000154A1278D2B2D2B222F00302D1B2FA7902F00302D2B20A43D2B2D2B21A70FB79012B0AD10D4B0E4A1278D2B21A700D4B0D4A1278D2B21A7009E0084B0B4A12785F
:4064C000D2B21A70074B0A4A1278D2B21A700C37BD465DF8047B70474058004030460040100100493146004014010049AD010049B501004980B584B000AF0346FB71294B4B
:406500001B78DBB203F001037B73FB79002B0BD17B7B002B13D0244B234A1278D2B242F01002D2B21A700AE07B7B002B07D11F4B1E4A1278D2B242F01002D2B21A70FB7912
:40654000002B02D10F23BB7301E00723BB730023FB7320E0FB79002B07D1134B124A1278D2B20132D2B21A7006E0104B0F4A1278D2B20132D2B21A700A20FCF719FA094B06
:406580001B78DBB203F001027B7B9A4200D006E0FB7B0133FB73FA7BBB7B9A42DAD31037BD4680BD965B0040304600403146004080B582B000AF284B1B78FB71274B1B783F
:4065C000BB71274B1B787B71234B00221A70234B00221A70224B7A7922F00902D2B21A70204B1B783B711F4B1E4A1278D2B242F03002D2B21A701C4B00221A701B4B002228
:406600001A70184B1B78DBB203F00303012B03D10020FFF76FFF05E00120FFF76BFF0020FFF768FF0F4B3A791A700B4BFA791A700A4BBA791A700A4B7A791A700B4B1B7836
:40664000DBB21B029AB2084B1B78DBB213439BB218460837BD4680BDC05A0040C25A0040C35A004040580040304600403146004080B500AF0A4B0E221A700A4B18221A70CD
:40668000094B81221A70094B084A1278D2B242F00802D2B21A70032000F058F880BD00BF0458004005580040065800401B5A004080B400AF0D4B0D4A1278D2B242F002029A
:4066C000D2B21A700A4B0A4A1278D2B242F00202D2B21A70074B074A1278D2B262F07F02D2B21A70BD465DF8047B7047A9430040B94300407758004080B500AF054B1B7833
:40670000002B04D1FFF7B4FF024B01221A70FFF7CFFF80BDDCE1FF1F80B400AF094B094A1278D2B222F00202D2B21A70064B064A1278D2B222F00202D2B21A70BD465DF8F3
:40674000047B7047A9430040B943004080B485B000AF0346FB710A4B1B78DBB223F00303FB73FB7903F00303DAB2FB7B1343FB73034BFA7B1A701437BD465DF8047B704759
:406780000558004080B500AF012000F071F8144B134A1278D2B222F02002D2B21A70104B0F4A1278D2B222F00402D2B21A700C4B0B4A1278D2B242F00802D2B21A70094B92
:4067C000084A1278D2B222F01802D2B21A70054B044A1278D2B242F01002D2B21A7080BD41580040CF5A004080B400AF094B094A1278D2B242F00202D2B21A70064B064A05
:406800001278D2B242F00202D2B21A70BD465DF8047B7047A7430040B743004080B500AF054B1B78002B04D1FFF7ACFF024B01221A70FFF7D9FF80BDDDE1FF1F80B400AFE8
:40684000094B094A1278D2B222F00202D2B21A70064B064A1278D2B222F00202D2B21A70BD465DF8047B7047A7430040B743004080B483B000AF0346FB71164B154A127865
:40688000D2B2D2B222F00302D1B2FA7902F00302D2B20A43D2B2D2B21A70FB79012B0AD10D4B0E4A1278D2B21A700D4B0D4A1278D2B21A7009E0084B0B4A1278D2B21A7036
:4068C000074B0A4A1278D2B21A700C37BD465DF8047B70474158004032460040110100493346004015010049AF010049B701004980B584B000AF0346FB71294B1B78DBB22A
:4069000003F002037B73FB79002B0BD17B7B002B13D0244B234A1278D2B242F01002D2B21A700AE07B7B002B07D11F4B1E4A1278D2B242F01002D2B21A70FB79002B02D12F
:406940000F23BB7301E00723BB730023FB7320E0FB79002B07D1134B124A1278D2B20132D2B21A7006E0104B0F4A1278D2B20132D2B21A700A20FCF71BF8094B1B78DBB2E0
:4069800003F002027B7B9A4200D006E0FB7B0133FB73FA7BBB7B9A42DAD31037BD4680BD965B0040324600403346004080B582B000AF284B1B78FB71274B1B78BB71274BB8
:4069C0001B787B71234B00221A70234B00221A70224B7A7922F00902D2B21A70204B1B783B711F4B1E4A1278D2B242F03002D2B21A701C4B00221A701B4B00221A70184BD5
:406A00001B78DBB203F00303012B03D10020FFF76FFF05E00120FFF76BFF0020FFF768FF0F4B3A791A700B4BFA791A700A4BBA791A700A4B7A791A700B4B1B78DBB21B0275
:406A40009AB2084B1B78DBB213439BB218460837BD4680BDC85A0040CA5A0040CB5A004041580040324600403346004080B500AF032000F05FF880BD80B400AF0D4B0D4A45
:406A80001278D2B242F06002D2B21A700A4B0A4A1278D2B242F00802D2B21A70074B074A1278D2B242F00802D2B21A70BD465DF8047B704777580040A4430040B44300402F
:406AC00080B500AF054B1B78002B04D1034B01221A70FFF7CBFFFFF7CFFF80BDDEE1FF1F80B400AF104B104A1278D2B222F00802D2B21A700D4B0D4A1278D2B222F008028D
:406B0000D2B21A70084B1B78DBB2002B07D1084B074A1278D2B222F06002D2B21A70BD465DF8047B704700BFA4430040B44300407758004080B483B000AF0346FB710C4BC1
:406B40000B4A1278D2B222F00302D2B21A70084B074A1278D1B2FA7902F00302D2B20A43D2B21A700C37BD465DF8047B704700BF5E58004080B500AF032000F05FF880BD82
:406B800080B400AF0D4B0D4A1278D2B242F06002D2B21A700A4B0A4A1278D2B242F00402D2B21A70074B074A1278D2B242F00402D2B21A70BD465DF8047B70477758004002
:406BC000A4430040B443004080B500AF054B1B78002B04D1034B01221A70FFF7CBFFFFF7CFFF80BDDFE1FF1F80B400AF104B104A1278D2B222F00402D2B21A700D4B0D4A5B
:406C00001278D2B222F00402D2B21A70084B1B78DBB2002B07D1084B074A1278D2B222F06002D2B21A70BD465DF8047B704700BFA4430040B44300407758004080B483B055
:406C400000AF0346FB710C4B0B4A1278D2B222F00302D2B21A70084B074A1278D1B2FA7902F00302D2B20A43D2B21A700C37BD465DF8047B704700BF5C58004080B500AF6F
:406C8000032000F05FF880BD80B400AF0D4B0D4A1278D2B242F06002D2B21A700A4B0A4A1278D2B242F00202D2B21A70074B074A1278D2B242F00202D2B21A70BD465DF8A3
:406CC000047B704777580040A4430040B443004080B500AF054B1B78002B04D1034B01221A70FFF7CBFFFFF7CFFF80BDE0E1FF1F80B400AF104B104A1278D2B222F00202D3
:406D0000D2B21A700D4B0D4A1278D2B222F00202D2B21A70084B1B78DBB2002B07D1084B074A1278D2B222F06002D2B21A70BD465DF8047B704700BFA4430040B44300400F
:406D40007758004080B483B000AF0346FB710C4B0B4A1278D2B222F00302D2B21A70084B074A1278D1B2FA7902F00302D2B20A43D2B21A700C37BD465DF8047B704700BFD0
:406D80005A58004080B483B000AF0346FB71044BFA791A700C37BD465DF8047B704700BF7D64004080B500AF012000F071F8144B134A1278D2B222F02002D2B21A70104B54
:406DC0000F4A1278D2B222F00402D2B21A700C4B0B4A1278D2B242F00802D2B21A70094B084A1278D2B222F01802D2B21A70054B044A1278D2B242F01002D2B21A7080BDD9
:406E000043580040DF5A004080B400AF094B094A1278D2B242F00802D2B21A70064B064A1278D2B242F00802D2B21A70BD465DF8047B7047A7430040B743004080B500AF4D
:406E4000054B1B78002B04D1FFF7ACFF024B01221A70FFF7D9FF80BDE1E1FF1F80B400AF094B094A1278D2B222F00802D2B21A70064B064A1278D2B222F00802D2B21A700E
:406E8000BD465DF8047B7047A7430040B743004080B483B000AF0346FB71164B154A1278D2B2D2B222F00302D1B2FA7902F00302D2B20A43D2B2D2B21A70FB79012B0AD1E1
:406EC0000D4B0E4A1278D2B21A700D4B0D4A1278D2B21A7009E0084B0B4A1278D2B21A70074B0A4A1278D2B21A700C37BD465DF8047B7047435800403646004013010049D7
:406F00003746004017010049B3010049BB01004980B584B000AF0346FB71294B1B78DBB203F008037B73FB79002B0BD17B7B002B13D0244B234A1278D2B242F01002D2B2B3
:406F40001A700AE07B7B002B07D11F4B1E4A1278D2B242F01002D2B21A70FB79002B02D10F23BB7301E00723BB730023FB7320E0FB79002B07D1134B124A1278D2B2013264
:406F8000D2B21A7006E0104B0F4A1278D2B20132D2B21A700A20FBF70BFD094B1B78DBB203F008027B7B9A4200D006E0FB7B0133FB73FA7BBB7B9A42DAD31037BD4680BDEA
:406FC000965B0040364600403746004080B582B000AF284B1B78FB71274B1B78BB71274B1B787B71234B00221A70234B00221A70224B7A7922F00902D2B21A70204B1B7880
:407000003B711F4B1E4A1278D2B242F03002D2B21A701C4B00221A701B4B00221A70184B1B78DBB203F00303012B03D10020FFF76FFF05E00120FFF76BFF0020FFF768FF4A
:407040000F4B3A791A700B4BFA791A700A4BBA791A700A4B7A791A700B4B1B78DBB21B029AB2084B1B78DBB213439BB218460837BD4680BDD85A0040DA5A0040DB5A004015
:4070800043580040364600403746004080B500AF0A4B0E221A700A4B18221A70094B81221A70094B084A1278D2B242F00802D2B21A70032000F058F880BD00BF0C580040EE
:4070C0000D5800400E5800403B5A004080B400AF0D4B0D4A1278D2B242F00802D2B21A700A4B0A4A1278D2B242F00802D2B21A70074B074A1278D2B262F07F02D2B21A70F3
:40710000BD465DF8047B7047A9430040B94300407758004080B500AF054B1B78002B04D1FFF7B4FF024B01221A70FFF7CFFF80BDE2E1FF1F80B400AF094B094A1278D2B266
:4071400022F00802D2B21A70064B064A1278D2B222F00802D2B21A70BD465DF8047B7047A9430040B943004080B485B000AF0346FB710A4B1B78DBB223F00303FB73FB79D9
:4071800003F00303DAB2FB7B1343FB73034BFA7B1A701437BD465DF8047B70470D58004080B500AF032000F05FF880BD80B400AF0D4B0D4A1278D2B242F06002D2B21A7078
:4071C0000A4B0A4A1278D2B242F00102D2B21A70074B074A1278D2B242F00102D2B21A70BD465DF8047B704777580040A4430040B443004080B500AF054B1B78002B04D1DF
:40720000034B01221A70FFF7CBFFFFF7CFFF80BDE3E1FF1F80B400AF104B104A1278D2B222F00102D2B21A700D4B0D4A1278D2B222F00102D2B21A70084B1B78DBB2002B69
